
F767ZI_board_main_source.elf:     file format elf32-littlearm

Sections:
Idx Name          Size      VMA       LMA       File off  Algn
  0 .isr_vector   000001f8  08000000  08000000  00010000  2**0
                  CONTENTS, ALLOC, LOAD, READONLY, DATA
  1 .text         00008854  080001f8  080001f8  000101f8  2**2
                  CONTENTS, ALLOC, LOAD, READONLY, CODE
  2 .rodata       00000060  08008a4c  08008a4c  00018a4c  2**2
                  CONTENTS, ALLOC, LOAD, READONLY, DATA
  3 .ARM.extab    00000000  08008aac  08008aac  00020184  2**0
                  CONTENTS
  4 .ARM          00000008  08008aac  08008aac  00018aac  2**2
                  CONTENTS, ALLOC, LOAD, READONLY, DATA
  5 .preinit_array 00000000  08008ab4  08008ab4  00020184  2**0
                  CONTENTS, ALLOC, LOAD, DATA
  6 .init_array   00000004  08008ab4  08008ab4  00018ab4  2**2
                  CONTENTS, ALLOC, LOAD, DATA
  7 .fini_array   00000004  08008ab8  08008ab8  00018ab8  2**2
                  CONTENTS, ALLOC, LOAD, DATA
  8 .data         00000184  20000000  08008abc  00020000  2**2
                  CONTENTS, ALLOC, LOAD, DATA
  9 .bss          00000b04  20000184  08008c40  00020184  2**2
                  ALLOC
 10 ._user_heap_stack 00000600  20000c88  08008c40  00020c88  2**0
                  ALLOC
 11 .ARM.attributes 0000002e  00000000  00000000  00020184  2**0
                  CONTENTS, READONLY
 12 .debug_info   000199f4  00000000  00000000  000201b2  2**0
                  CONTENTS, READONLY, DEBUGGING, OCTETS
 13 .debug_abbrev 0000356e  00000000  00000000  00039ba6  2**0
                  CONTENTS, READONLY, DEBUGGING, OCTETS
 14 .debug_aranges 00001480  00000000  00000000  0003d118  2**3
                  CONTENTS, READONLY, DEBUGGING, OCTETS
 15 .debug_ranges 00001318  00000000  00000000  0003e598  2**3
                  CONTENTS, READONLY, DEBUGGING, OCTETS
 16 .debug_macro  0002b2e2  00000000  00000000  0003f8b0  2**0
                  CONTENTS, READONLY, DEBUGGING, OCTETS
 17 .debug_line   00019cf5  00000000  00000000  0006ab92  2**0
                  CONTENTS, READONLY, DEBUGGING, OCTETS
 18 .debug_str    0010016e  00000000  00000000  00084887  2**0
                  CONTENTS, READONLY, DEBUGGING, OCTETS
 19 .comment      00000050  00000000  00000000  001849f5  2**0
                  CONTENTS, READONLY
 20 .debug_frame  000057cc  00000000  00000000  00184a48  2**2
                  CONTENTS, READONLY, DEBUGGING, OCTETS

Disassembly of section .text:

080001f8 <__do_global_dtors_aux>:
 80001f8:	b510      	push	{r4, lr}
 80001fa:	4c05      	ldr	r4, [pc, #20]	; (8000210 <__do_global_dtors_aux+0x18>)
 80001fc:	7823      	ldrb	r3, [r4, #0]
 80001fe:	b933      	cbnz	r3, 800020e <__do_global_dtors_aux+0x16>
 8000200:	4b04      	ldr	r3, [pc, #16]	; (8000214 <__do_global_dtors_aux+0x1c>)
 8000202:	b113      	cbz	r3, 800020a <__do_global_dtors_aux+0x12>
 8000204:	4804      	ldr	r0, [pc, #16]	; (8000218 <__do_global_dtors_aux+0x20>)
 8000206:	f3af 8000 	nop.w
 800020a:	2301      	movs	r3, #1
 800020c:	7023      	strb	r3, [r4, #0]
 800020e:	bd10      	pop	{r4, pc}
 8000210:	20000184 	.word	0x20000184
 8000214:	00000000 	.word	0x00000000
 8000218:	08008a34 	.word	0x08008a34

0800021c <frame_dummy>:
 800021c:	b508      	push	{r3, lr}
 800021e:	4b03      	ldr	r3, [pc, #12]	; (800022c <frame_dummy+0x10>)
 8000220:	b11b      	cbz	r3, 800022a <frame_dummy+0xe>
 8000222:	4903      	ldr	r1, [pc, #12]	; (8000230 <frame_dummy+0x14>)
 8000224:	4803      	ldr	r0, [pc, #12]	; (8000234 <frame_dummy+0x18>)
 8000226:	f3af 8000 	nop.w
 800022a:	bd08      	pop	{r3, pc}
 800022c:	00000000 	.word	0x00000000
 8000230:	20000188 	.word	0x20000188
 8000234:	08008a34 	.word	0x08008a34

08000238 <__aeabi_uldivmod>:
 8000238:	b953      	cbnz	r3, 8000250 <__aeabi_uldivmod+0x18>
 800023a:	b94a      	cbnz	r2, 8000250 <__aeabi_uldivmod+0x18>
 800023c:	2900      	cmp	r1, #0
 800023e:	bf08      	it	eq
 8000240:	2800      	cmpeq	r0, #0
 8000242:	bf1c      	itt	ne
 8000244:	f04f 31ff 	movne.w	r1, #4294967295
 8000248:	f04f 30ff 	movne.w	r0, #4294967295
 800024c:	f000 b974 	b.w	8000538 <__aeabi_idiv0>
 8000250:	f1ad 0c08 	sub.w	ip, sp, #8
 8000254:	e96d ce04 	strd	ip, lr, [sp, #-16]!
 8000258:	f000 f806 	bl	8000268 <__udivmoddi4>
 800025c:	f8dd e004 	ldr.w	lr, [sp, #4]
 8000260:	e9dd 2302 	ldrd	r2, r3, [sp, #8]
 8000264:	b004      	add	sp, #16
 8000266:	4770      	bx	lr

08000268 <__udivmoddi4>:
 8000268:	e92d 47f0 	stmdb	sp!, {r4, r5, r6, r7, r8, r9, sl, lr}
 800026c:	9d08      	ldr	r5, [sp, #32]
 800026e:	4604      	mov	r4, r0
 8000270:	468e      	mov	lr, r1
 8000272:	2b00      	cmp	r3, #0
 8000274:	d14d      	bne.n	8000312 <__udivmoddi4+0xaa>
 8000276:	428a      	cmp	r2, r1
 8000278:	4694      	mov	ip, r2
 800027a:	d969      	bls.n	8000350 <__udivmoddi4+0xe8>
 800027c:	fab2 f282 	clz	r2, r2
 8000280:	b152      	cbz	r2, 8000298 <__udivmoddi4+0x30>
 8000282:	fa01 f302 	lsl.w	r3, r1, r2
 8000286:	f1c2 0120 	rsb	r1, r2, #32
 800028a:	fa20 f101 	lsr.w	r1, r0, r1
 800028e:	fa0c fc02 	lsl.w	ip, ip, r2
 8000292:	ea41 0e03 	orr.w	lr, r1, r3
 8000296:	4094      	lsls	r4, r2
 8000298:	ea4f 481c 	mov.w	r8, ip, lsr #16
 800029c:	0c21      	lsrs	r1, r4, #16
 800029e:	fbbe f6f8 	udiv	r6, lr, r8
 80002a2:	fa1f f78c 	uxth.w	r7, ip
 80002a6:	fb08 e316 	mls	r3, r8, r6, lr
 80002aa:	ea41 4303 	orr.w	r3, r1, r3, lsl #16
 80002ae:	fb06 f107 	mul.w	r1, r6, r7
 80002b2:	4299      	cmp	r1, r3
 80002b4:	d90a      	bls.n	80002cc <__udivmoddi4+0x64>
 80002b6:	eb1c 0303 	adds.w	r3, ip, r3
 80002ba:	f106 30ff 	add.w	r0, r6, #4294967295
 80002be:	f080 811f 	bcs.w	8000500 <__udivmoddi4+0x298>
 80002c2:	4299      	cmp	r1, r3
 80002c4:	f240 811c 	bls.w	8000500 <__udivmoddi4+0x298>
 80002c8:	3e02      	subs	r6, #2
 80002ca:	4463      	add	r3, ip
 80002cc:	1a5b      	subs	r3, r3, r1
 80002ce:	b2a4      	uxth	r4, r4
 80002d0:	fbb3 f0f8 	udiv	r0, r3, r8
 80002d4:	fb08 3310 	mls	r3, r8, r0, r3
 80002d8:	ea44 4403 	orr.w	r4, r4, r3, lsl #16
 80002dc:	fb00 f707 	mul.w	r7, r0, r7
 80002e0:	42a7      	cmp	r7, r4
 80002e2:	d90a      	bls.n	80002fa <__udivmoddi4+0x92>
 80002e4:	eb1c 0404 	adds.w	r4, ip, r4
 80002e8:	f100 33ff 	add.w	r3, r0, #4294967295
 80002ec:	f080 810a 	bcs.w	8000504 <__udivmoddi4+0x29c>
 80002f0:	42a7      	cmp	r7, r4
 80002f2:	f240 8107 	bls.w	8000504 <__udivmoddi4+0x29c>
 80002f6:	4464      	add	r4, ip
 80002f8:	3802      	subs	r0, #2
 80002fa:	ea40 4006 	orr.w	r0, r0, r6, lsl #16
 80002fe:	1be4      	subs	r4, r4, r7
 8000300:	2600      	movs	r6, #0
 8000302:	b11d      	cbz	r5, 800030c <__udivmoddi4+0xa4>
 8000304:	40d4      	lsrs	r4, r2
 8000306:	2300      	movs	r3, #0
 8000308:	e9c5 4300 	strd	r4, r3, [r5]
 800030c:	4631      	mov	r1, r6
 800030e:	e8bd 87f0 	ldmia.w	sp!, {r4, r5, r6, r7, r8, r9, sl, pc}
 8000312:	428b      	cmp	r3, r1
 8000314:	d909      	bls.n	800032a <__udivmoddi4+0xc2>
 8000316:	2d00      	cmp	r5, #0
 8000318:	f000 80ef 	beq.w	80004fa <__udivmoddi4+0x292>
 800031c:	2600      	movs	r6, #0
 800031e:	e9c5 0100 	strd	r0, r1, [r5]
 8000322:	4630      	mov	r0, r6
 8000324:	4631      	mov	r1, r6
 8000326:	e8bd 87f0 	ldmia.w	sp!, {r4, r5, r6, r7, r8, r9, sl, pc}
 800032a:	fab3 f683 	clz	r6, r3
 800032e:	2e00      	cmp	r6, #0
 8000330:	d14a      	bne.n	80003c8 <__udivmoddi4+0x160>
 8000332:	428b      	cmp	r3, r1
 8000334:	d302      	bcc.n	800033c <__udivmoddi4+0xd4>
 8000336:	4282      	cmp	r2, r0
 8000338:	f200 80f9 	bhi.w	800052e <__udivmoddi4+0x2c6>
 800033c:	1a84      	subs	r4, r0, r2
 800033e:	eb61 0303 	sbc.w	r3, r1, r3
 8000342:	2001      	movs	r0, #1
 8000344:	469e      	mov	lr, r3
 8000346:	2d00      	cmp	r5, #0
 8000348:	d0e0      	beq.n	800030c <__udivmoddi4+0xa4>
 800034a:	e9c5 4e00 	strd	r4, lr, [r5]
 800034e:	e7dd      	b.n	800030c <__udivmoddi4+0xa4>
 8000350:	b902      	cbnz	r2, 8000354 <__udivmoddi4+0xec>
 8000352:	deff      	udf	#255	; 0xff
 8000354:	fab2 f282 	clz	r2, r2
 8000358:	2a00      	cmp	r2, #0
 800035a:	f040 8092 	bne.w	8000482 <__udivmoddi4+0x21a>
 800035e:	eba1 010c 	sub.w	r1, r1, ip
 8000362:	ea4f 471c 	mov.w	r7, ip, lsr #16
 8000366:	fa1f fe8c 	uxth.w	lr, ip
 800036a:	2601      	movs	r6, #1
 800036c:	0c20      	lsrs	r0, r4, #16
 800036e:	fbb1 f3f7 	udiv	r3, r1, r7
 8000372:	fb07 1113 	mls	r1, r7, r3, r1
 8000376:	ea40 4101 	orr.w	r1, r0, r1, lsl #16
 800037a:	fb0e f003 	mul.w	r0, lr, r3
 800037e:	4288      	cmp	r0, r1
 8000380:	d908      	bls.n	8000394 <__udivmoddi4+0x12c>
 8000382:	eb1c 0101 	adds.w	r1, ip, r1
 8000386:	f103 38ff 	add.w	r8, r3, #4294967295
 800038a:	d202      	bcs.n	8000392 <__udivmoddi4+0x12a>
 800038c:	4288      	cmp	r0, r1
 800038e:	f200 80cb 	bhi.w	8000528 <__udivmoddi4+0x2c0>
 8000392:	4643      	mov	r3, r8
 8000394:	1a09      	subs	r1, r1, r0
 8000396:	b2a4      	uxth	r4, r4
 8000398:	fbb1 f0f7 	udiv	r0, r1, r7
 800039c:	fb07 1110 	mls	r1, r7, r0, r1
 80003a0:	ea44 4401 	orr.w	r4, r4, r1, lsl #16
 80003a4:	fb0e fe00 	mul.w	lr, lr, r0
 80003a8:	45a6      	cmp	lr, r4
 80003aa:	d908      	bls.n	80003be <__udivmoddi4+0x156>
 80003ac:	eb1c 0404 	adds.w	r4, ip, r4
 80003b0:	f100 31ff 	add.w	r1, r0, #4294967295
 80003b4:	d202      	bcs.n	80003bc <__udivmoddi4+0x154>
 80003b6:	45a6      	cmp	lr, r4
 80003b8:	f200 80bb 	bhi.w	8000532 <__udivmoddi4+0x2ca>
 80003bc:	4608      	mov	r0, r1
 80003be:	eba4 040e 	sub.w	r4, r4, lr
 80003c2:	ea40 4003 	orr.w	r0, r0, r3, lsl #16
 80003c6:	e79c      	b.n	8000302 <__udivmoddi4+0x9a>
 80003c8:	f1c6 0720 	rsb	r7, r6, #32
 80003cc:	40b3      	lsls	r3, r6
 80003ce:	fa22 fc07 	lsr.w	ip, r2, r7
 80003d2:	ea4c 0c03 	orr.w	ip, ip, r3
 80003d6:	fa20 f407 	lsr.w	r4, r0, r7
 80003da:	fa01 f306 	lsl.w	r3, r1, r6
 80003de:	431c      	orrs	r4, r3
 80003e0:	40f9      	lsrs	r1, r7
 80003e2:	ea4f 491c 	mov.w	r9, ip, lsr #16
 80003e6:	fa00 f306 	lsl.w	r3, r0, r6
 80003ea:	fbb1 f8f9 	udiv	r8, r1, r9
 80003ee:	0c20      	lsrs	r0, r4, #16
 80003f0:	fa1f fe8c 	uxth.w	lr, ip
 80003f4:	fb09 1118 	mls	r1, r9, r8, r1
 80003f8:	ea40 4101 	orr.w	r1, r0, r1, lsl #16
 80003fc:	fb08 f00e 	mul.w	r0, r8, lr
 8000400:	4288      	cmp	r0, r1
 8000402:	fa02 f206 	lsl.w	r2, r2, r6
 8000406:	d90b      	bls.n	8000420 <__udivmoddi4+0x1b8>
 8000408:	eb1c 0101 	adds.w	r1, ip, r1
 800040c:	f108 3aff 	add.w	sl, r8, #4294967295
 8000410:	f080 8088 	bcs.w	8000524 <__udivmoddi4+0x2bc>
 8000414:	4288      	cmp	r0, r1
 8000416:	f240 8085 	bls.w	8000524 <__udivmoddi4+0x2bc>
 800041a:	f1a8 0802 	sub.w	r8, r8, #2
 800041e:	4461      	add	r1, ip
 8000420:	1a09      	subs	r1, r1, r0
 8000422:	b2a4      	uxth	r4, r4
 8000424:	fbb1 f0f9 	udiv	r0, r1, r9
 8000428:	fb09 1110 	mls	r1, r9, r0, r1
 800042c:	ea44 4101 	orr.w	r1, r4, r1, lsl #16
 8000430:	fb00 fe0e 	mul.w	lr, r0, lr
 8000434:	458e      	cmp	lr, r1
 8000436:	d908      	bls.n	800044a <__udivmoddi4+0x1e2>
 8000438:	eb1c 0101 	adds.w	r1, ip, r1
 800043c:	f100 34ff 	add.w	r4, r0, #4294967295
 8000440:	d26c      	bcs.n	800051c <__udivmoddi4+0x2b4>
 8000442:	458e      	cmp	lr, r1
 8000444:	d96a      	bls.n	800051c <__udivmoddi4+0x2b4>
 8000446:	3802      	subs	r0, #2
 8000448:	4461      	add	r1, ip
 800044a:	ea40 4008 	orr.w	r0, r0, r8, lsl #16
 800044e:	fba0 9402 	umull	r9, r4, r0, r2
 8000452:	eba1 010e 	sub.w	r1, r1, lr
 8000456:	42a1      	cmp	r1, r4
 8000458:	46c8      	mov	r8, r9
 800045a:	46a6      	mov	lr, r4
 800045c:	d356      	bcc.n	800050c <__udivmoddi4+0x2a4>
 800045e:	d053      	beq.n	8000508 <__udivmoddi4+0x2a0>
 8000460:	b15d      	cbz	r5, 800047a <__udivmoddi4+0x212>
 8000462:	ebb3 0208 	subs.w	r2, r3, r8
 8000466:	eb61 010e 	sbc.w	r1, r1, lr
 800046a:	fa01 f707 	lsl.w	r7, r1, r7
 800046e:	fa22 f306 	lsr.w	r3, r2, r6
 8000472:	40f1      	lsrs	r1, r6
 8000474:	431f      	orrs	r7, r3
 8000476:	e9c5 7100 	strd	r7, r1, [r5]
 800047a:	2600      	movs	r6, #0
 800047c:	4631      	mov	r1, r6
 800047e:	e8bd 87f0 	ldmia.w	sp!, {r4, r5, r6, r7, r8, r9, sl, pc}
 8000482:	f1c2 0320 	rsb	r3, r2, #32
 8000486:	40d8      	lsrs	r0, r3
 8000488:	fa0c fc02 	lsl.w	ip, ip, r2
 800048c:	fa21 f303 	lsr.w	r3, r1, r3
 8000490:	4091      	lsls	r1, r2
 8000492:	4301      	orrs	r1, r0
 8000494:	ea4f 471c 	mov.w	r7, ip, lsr #16
 8000498:	fa1f fe8c 	uxth.w	lr, ip
 800049c:	fbb3 f0f7 	udiv	r0, r3, r7
 80004a0:	fb07 3610 	mls	r6, r7, r0, r3
 80004a4:	0c0b      	lsrs	r3, r1, #16
 80004a6:	ea43 4306 	orr.w	r3, r3, r6, lsl #16
 80004aa:	fb00 f60e 	mul.w	r6, r0, lr
 80004ae:	429e      	cmp	r6, r3
 80004b0:	fa04 f402 	lsl.w	r4, r4, r2
 80004b4:	d908      	bls.n	80004c8 <__udivmoddi4+0x260>
 80004b6:	eb1c 0303 	adds.w	r3, ip, r3
 80004ba:	f100 38ff 	add.w	r8, r0, #4294967295
 80004be:	d22f      	bcs.n	8000520 <__udivmoddi4+0x2b8>
 80004c0:	429e      	cmp	r6, r3
 80004c2:	d92d      	bls.n	8000520 <__udivmoddi4+0x2b8>
 80004c4:	3802      	subs	r0, #2
 80004c6:	4463      	add	r3, ip
 80004c8:	1b9b      	subs	r3, r3, r6
 80004ca:	b289      	uxth	r1, r1
 80004cc:	fbb3 f6f7 	udiv	r6, r3, r7
 80004d0:	fb07 3316 	mls	r3, r7, r6, r3
 80004d4:	ea41 4103 	orr.w	r1, r1, r3, lsl #16
 80004d8:	fb06 f30e 	mul.w	r3, r6, lr
 80004dc:	428b      	cmp	r3, r1
 80004de:	d908      	bls.n	80004f2 <__udivmoddi4+0x28a>
 80004e0:	eb1c 0101 	adds.w	r1, ip, r1
 80004e4:	f106 38ff 	add.w	r8, r6, #4294967295
 80004e8:	d216      	bcs.n	8000518 <__udivmoddi4+0x2b0>
 80004ea:	428b      	cmp	r3, r1
 80004ec:	d914      	bls.n	8000518 <__udivmoddi4+0x2b0>
 80004ee:	3e02      	subs	r6, #2
 80004f0:	4461      	add	r1, ip
 80004f2:	1ac9      	subs	r1, r1, r3
 80004f4:	ea46 4600 	orr.w	r6, r6, r0, lsl #16
 80004f8:	e738      	b.n	800036c <__udivmoddi4+0x104>
 80004fa:	462e      	mov	r6, r5
 80004fc:	4628      	mov	r0, r5
 80004fe:	e705      	b.n	800030c <__udivmoddi4+0xa4>
 8000500:	4606      	mov	r6, r0
 8000502:	e6e3      	b.n	80002cc <__udivmoddi4+0x64>
 8000504:	4618      	mov	r0, r3
 8000506:	e6f8      	b.n	80002fa <__udivmoddi4+0x92>
 8000508:	454b      	cmp	r3, r9
 800050a:	d2a9      	bcs.n	8000460 <__udivmoddi4+0x1f8>
 800050c:	ebb9 0802 	subs.w	r8, r9, r2
 8000510:	eb64 0e0c 	sbc.w	lr, r4, ip
 8000514:	3801      	subs	r0, #1
 8000516:	e7a3      	b.n	8000460 <__udivmoddi4+0x1f8>
 8000518:	4646      	mov	r6, r8
 800051a:	e7ea      	b.n	80004f2 <__udivmoddi4+0x28a>
 800051c:	4620      	mov	r0, r4
 800051e:	e794      	b.n	800044a <__udivmoddi4+0x1e2>
 8000520:	4640      	mov	r0, r8
 8000522:	e7d1      	b.n	80004c8 <__udivmoddi4+0x260>
 8000524:	46d0      	mov	r8, sl
 8000526:	e77b      	b.n	8000420 <__udivmoddi4+0x1b8>
 8000528:	3b02      	subs	r3, #2
 800052a:	4461      	add	r1, ip
 800052c:	e732      	b.n	8000394 <__udivmoddi4+0x12c>
 800052e:	4630      	mov	r0, r6
 8000530:	e709      	b.n	8000346 <__udivmoddi4+0xde>
 8000532:	4464      	add	r4, ip
 8000534:	3802      	subs	r0, #2
 8000536:	e742      	b.n	80003be <__udivmoddi4+0x156>

08000538 <__aeabi_idiv0>:
 8000538:	4770      	bx	lr
 800053a:	bf00      	nop

0800053c <ButtonStateHandler>:
uint8_t SwTriangle;
uint8_t SwCircle;
uint8_t SwSquare;

KeyboardMacroState ButtonStateHandler(void)
{
 800053c:	b580      	push	{r7, lr}
 800053e:	af00      	add	r7, sp, #0
	if (HAL_GPIO_ReadPin(GPIOE, GPIO_PIN_10))
 8000540:	f44f 6180 	mov.w	r1, #1024	; 0x400
 8000544:	481e      	ldr	r0, [pc, #120]	; (80005c0 <ButtonStateHandler+0x84>)
 8000546:	f000 ffbb 	bl	80014c0 <HAL_GPIO_ReadPin>
 800054a:	4603      	mov	r3, r0
 800054c:	2b00      	cmp	r3, #0
 800054e:	d003      	beq.n	8000558 <ButtonStateHandler+0x1c>
		SwSuper = 0x02; // left Shift
 8000550:	4b1c      	ldr	r3, [pc, #112]	; (80005c4 <ButtonStateHandler+0x88>)
 8000552:	2202      	movs	r2, #2
 8000554:	701a      	strb	r2, [r3, #0]
 8000556:	e002      	b.n	800055e <ButtonStateHandler+0x22>
	else
		SwSuper = 0x00; // release key
 8000558:	4b1a      	ldr	r3, [pc, #104]	; (80005c4 <ButtonStateHandler+0x88>)
 800055a:	2200      	movs	r2, #0
 800055c:	701a      	strb	r2, [r3, #0]

	if (HAL_GPIO_ReadPin(GPIOE, GPIO_PIN_12))
 800055e:	f44f 5180 	mov.w	r1, #4096	; 0x1000
 8000562:	4817      	ldr	r0, [pc, #92]	; (80005c0 <ButtonStateHandler+0x84>)
 8000564:	f000 ffac 	bl	80014c0 <HAL_GPIO_ReadPin>
 8000568:	4603      	mov	r3, r0
 800056a:	2b00      	cmp	r3, #0
 800056c:	d003      	beq.n	8000576 <ButtonStateHandler+0x3a>
		SwTriangle = 0x04; // "a"
 800056e:	4b16      	ldr	r3, [pc, #88]	; (80005c8 <ButtonStateHandler+0x8c>)
 8000570:	2204      	movs	r2, #4
 8000572:	701a      	strb	r2, [r3, #0]
 8000574:	e002      	b.n	800057c <ButtonStateHandler+0x40>
	else
		SwTriangle = 0x00; // release key
 8000576:	4b14      	ldr	r3, [pc, #80]	; (80005c8 <ButtonStateHandler+0x8c>)
 8000578:	2200      	movs	r2, #0
 800057a:	701a      	strb	r2, [r3, #0]

	if (HAL_GPIO_ReadPin(GPIOE, GPIO_PIN_14))
 800057c:	f44f 4180 	mov.w	r1, #16384	; 0x4000
 8000580:	480f      	ldr	r0, [pc, #60]	; (80005c0 <ButtonStateHandler+0x84>)
 8000582:	f000 ff9d 	bl	80014c0 <HAL_GPIO_ReadPin>
 8000586:	4603      	mov	r3, r0
 8000588:	2b00      	cmp	r3, #0
 800058a:	d003      	beq.n	8000594 <ButtonStateHandler+0x58>
		SwCircle = 0x05; // "b"
 800058c:	4b0f      	ldr	r3, [pc, #60]	; (80005cc <ButtonStateHandler+0x90>)
 800058e:	2205      	movs	r2, #5
 8000590:	701a      	strb	r2, [r3, #0]
 8000592:	e002      	b.n	800059a <ButtonStateHandler+0x5e>
	else
		SwCircle = 0x00; // release key
 8000594:	4b0d      	ldr	r3, [pc, #52]	; (80005cc <ButtonStateHandler+0x90>)
 8000596:	2200      	movs	r2, #0
 8000598:	701a      	strb	r2, [r3, #0]

	if (HAL_GPIO_ReadPin(GPIOE, GPIO_PIN_15))
 800059a:	f44f 4100 	mov.w	r1, #32768	; 0x8000
 800059e:	4808      	ldr	r0, [pc, #32]	; (80005c0 <ButtonStateHandler+0x84>)
 80005a0:	f000 ff8e 	bl	80014c0 <HAL_GPIO_ReadPin>
 80005a4:	4603      	mov	r3, r0
 80005a6:	2b00      	cmp	r3, #0
 80005a8:	d003      	beq.n	80005b2 <ButtonStateHandler+0x76>
		SwSquare = 0x06; // "c"
 80005aa:	4b09      	ldr	r3, [pc, #36]	; (80005d0 <ButtonStateHandler+0x94>)
 80005ac:	2206      	movs	r2, #6
 80005ae:	701a      	strb	r2, [r3, #0]
 80005b0:	e002      	b.n	80005b8 <ButtonStateHandler+0x7c>
	else
		SwSquare = 0x00; // release key
 80005b2:	4b07      	ldr	r3, [pc, #28]	; (80005d0 <ButtonStateHandler+0x94>)
 80005b4:	2200      	movs	r2, #0
 80005b6:	701a      	strb	r2, [r3, #0]
	return ReadEncoder;
 80005b8:	2301      	movs	r3, #1
}
 80005ba:	4618      	mov	r0, r3
 80005bc:	bd80      	pop	{r7, pc}
 80005be:	bf00      	nop
 80005c0:	40021000 	.word	0x40021000
 80005c4:	2000027c 	.word	0x2000027c
 80005c8:	2000027d 	.word	0x2000027d
 80005cc:	2000027e 	.word	0x2000027e
 80005d0:	2000027f 	.word	0x2000027f

080005d4 <EncoderStateHandler>:
{
	Position = (int16_t)__HALTIM_GET_Counter(htim);
} */

KeyboardMacroState EncoderStateHandler(void)
{
 80005d4:	b480      	push	{r7}
 80005d6:	af00      	add	r7, sp, #0
	OldPosition = Position;
 80005d8:	4b0e      	ldr	r3, [pc, #56]	; (8000614 <EncoderStateHandler+0x40>)
 80005da:	f9b3 2000 	ldrsh.w	r2, [r3]
 80005de:	4b0e      	ldr	r3, [pc, #56]	; (8000618 <EncoderStateHandler+0x44>)
 80005e0:	801a      	strh	r2, [r3, #0]
	Position = ((int16_t)(TIM1->CNT));
 80005e2:	4b0e      	ldr	r3, [pc, #56]	; (800061c <EncoderStateHandler+0x48>)
 80005e4:	6a5b      	ldr	r3, [r3, #36]	; 0x24
 80005e6:	b21a      	sxth	r2, r3
 80005e8:	4b0a      	ldr	r3, [pc, #40]	; (8000614 <EncoderStateHandler+0x40>)
 80005ea:	801a      	strh	r2, [r3, #0]
	DeltaPosition = Position - OldPosition;
 80005ec:	4b09      	ldr	r3, [pc, #36]	; (8000614 <EncoderStateHandler+0x40>)
 80005ee:	f9b3 3000 	ldrsh.w	r3, [r3]
 80005f2:	b29a      	uxth	r2, r3
 80005f4:	4b08      	ldr	r3, [pc, #32]	; (8000618 <EncoderStateHandler+0x44>)
 80005f6:	f9b3 3000 	ldrsh.w	r3, [r3]
 80005fa:	b29b      	uxth	r3, r3
 80005fc:	1ad3      	subs	r3, r2, r3
 80005fe:	b29b      	uxth	r3, r3
 8000600:	b21a      	sxth	r2, r3
 8000602:	4b07      	ldr	r3, [pc, #28]	; (8000620 <EncoderStateHandler+0x4c>)
 8000604:	801a      	strh	r2, [r3, #0]
//			EncoderToggle = 1;
//		}
//		else
//			EncoderToggle = 0;
//	}
	return InterpretButtons;
 8000606:	2302      	movs	r3, #2
}
 8000608:	4618      	mov	r0, r3
 800060a:	46bd      	mov	sp, r7
 800060c:	f85d 7b04 	ldr.w	r7, [sp], #4
 8000610:	4770      	bx	lr
 8000612:	bf00      	nop
 8000614:	20000280 	.word	0x20000280
 8000618:	20000282 	.word	0x20000282
 800061c:	40010000 	.word	0x40010000
 8000620:	20000284 	.word	0x20000284

08000624 <ButtonTranslateHandler>:

KeyboardMacroState ButtonTranslateHandler(void)
{
 8000624:	b480      	push	{r7}
 8000626:	af00      	add	r7, sp, #0
	keyboardhid.MODIFIER = SwSuper;
 8000628:	4b0a      	ldr	r3, [pc, #40]	; (8000654 <ButtonTranslateHandler+0x30>)
 800062a:	781a      	ldrb	r2, [r3, #0]
 800062c:	4b0a      	ldr	r3, [pc, #40]	; (8000658 <ButtonTranslateHandler+0x34>)
 800062e:	701a      	strb	r2, [r3, #0]
	keyboardhid.KEYCODE1 = SwTriangle;
 8000630:	4b0a      	ldr	r3, [pc, #40]	; (800065c <ButtonTranslateHandler+0x38>)
 8000632:	781a      	ldrb	r2, [r3, #0]
 8000634:	4b08      	ldr	r3, [pc, #32]	; (8000658 <ButtonTranslateHandler+0x34>)
 8000636:	709a      	strb	r2, [r3, #2]
	keyboardhid.KEYCODE2 = SwCircle;
 8000638:	4b09      	ldr	r3, [pc, #36]	; (8000660 <ButtonTranslateHandler+0x3c>)
 800063a:	781a      	ldrb	r2, [r3, #0]
 800063c:	4b06      	ldr	r3, [pc, #24]	; (8000658 <ButtonTranslateHandler+0x34>)
 800063e:	70da      	strb	r2, [r3, #3]
	keyboardhid.KEYCODE3 = SwSquare;
 8000640:	4b08      	ldr	r3, [pc, #32]	; (8000664 <ButtonTranslateHandler+0x40>)
 8000642:	781a      	ldrb	r2, [r3, #0]
 8000644:	4b04      	ldr	r3, [pc, #16]	; (8000658 <ButtonTranslateHandler+0x34>)
 8000646:	711a      	strb	r2, [r3, #4]
	return InterpretEncoder;
 8000648:	2303      	movs	r3, #3
}
 800064a:	4618      	mov	r0, r3
 800064c:	46bd      	mov	sp, r7
 800064e:	f85d 7b04 	ldr.w	r7, [sp], #4
 8000652:	4770      	bx	lr
 8000654:	2000027c 	.word	0x2000027c
 8000658:	20000274 	.word	0x20000274
 800065c:	2000027d 	.word	0x2000027d
 8000660:	2000027e 	.word	0x2000027e
 8000664:	2000027f 	.word	0x2000027f

08000668 <EncoderTranslateHandler>:

KeyboardMacroState EncoderTranslateHandler(void)
{
 8000668:	b480      	push	{r7}
 800066a:	af00      	add	r7, sp, #0
	if (DeltaPosition > 0)
 800066c:	4b0e      	ldr	r3, [pc, #56]	; (80006a8 <EncoderTranslateHandler+0x40>)
 800066e:	f9b3 3000 	ldrsh.w	r3, [r3]
 8000672:	2b00      	cmp	r3, #0
 8000674:	dd02      	ble.n	800067c <EncoderTranslateHandler+0x14>
		keyboardhid.KEYCODE4 = 0x4F; // Right Arrow
 8000676:	4b0d      	ldr	r3, [pc, #52]	; (80006ac <EncoderTranslateHandler+0x44>)
 8000678:	224f      	movs	r2, #79	; 0x4f
 800067a:	715a      	strb	r2, [r3, #5]
	if (DeltaPosition < 0)
 800067c:	4b0a      	ldr	r3, [pc, #40]	; (80006a8 <EncoderTranslateHandler+0x40>)
 800067e:	f9b3 3000 	ldrsh.w	r3, [r3]
 8000682:	2b00      	cmp	r3, #0
 8000684:	da02      	bge.n	800068c <EncoderTranslateHandler+0x24>
		keyboardhid.KEYCODE4 = 0x50; // Left Arrow
 8000686:	4b09      	ldr	r3, [pc, #36]	; (80006ac <EncoderTranslateHandler+0x44>)
 8000688:	2250      	movs	r2, #80	; 0x50
 800068a:	715a      	strb	r2, [r3, #5]
	if (DeltaPosition == 0)
 800068c:	4b06      	ldr	r3, [pc, #24]	; (80006a8 <EncoderTranslateHandler+0x40>)
 800068e:	f9b3 3000 	ldrsh.w	r3, [r3]
 8000692:	2b00      	cmp	r3, #0
 8000694:	d102      	bne.n	800069c <EncoderTranslateHandler+0x34>
		keyboardhid.KEYCODE4 = 0x00; // Release Key
 8000696:	4b05      	ldr	r3, [pc, #20]	; (80006ac <EncoderTranslateHandler+0x44>)
 8000698:	2200      	movs	r2, #0
 800069a:	715a      	strb	r2, [r3, #5]
	return SendKeyboard;
 800069c:	2304      	movs	r3, #4
}
 800069e:	4618      	mov	r0, r3
 80006a0:	46bd      	mov	sp, r7
 80006a2:	f85d 7b04 	ldr.w	r7, [sp], #4
 80006a6:	4770      	bx	lr
 80006a8:	20000284 	.word	0x20000284
 80006ac:	20000274 	.word	0x20000274

080006b0 <SendKeyboardHandler>:

KeyboardMacroState SendKeyboardHandler(void)
{
 80006b0:	b580      	push	{r7, lr}
 80006b2:	af00      	add	r7, sp, #0
	USBD_HID_SendReport(&hUsbDeviceFS, &keyboardhid, sizeof(keyboardhid)); //
 80006b4:	2208      	movs	r2, #8
 80006b6:	4905      	ldr	r1, [pc, #20]	; (80006cc <SendKeyboardHandler+0x1c>)
 80006b8:	4805      	ldr	r0, [pc, #20]	; (80006d0 <SendKeyboardHandler+0x20>)
 80006ba:	f006 f823 	bl	8006704 <USBD_HID_SendReport>
	HAL_Delay(15);
 80006be:	200f      	movs	r0, #15
 80006c0:	f000 fc1c 	bl	8000efc <HAL_Delay>
	return ReadButtons;
 80006c4:	2300      	movs	r3, #0
}
 80006c6:	4618      	mov	r0, r3
 80006c8:	bd80      	pop	{r7, pc}
 80006ca:	bf00      	nop
 80006cc:	20000274 	.word	0x20000274
 80006d0:	20000294 	.word	0x20000294

080006d4 <main>:
/**
  * @brief  The application entry point.
  * @retval int
  */
int main(void)
{
 80006d4:	b580      	push	{r7, lr}
 80006d6:	b082      	sub	sp, #8
 80006d8:	af00      	add	r7, sp, #0
  /* USER CODE END 1 */

  /* MCU Configuration--------------------------------------------------------*/

  /* Reset of all peripherals, Initializes the Flash interface and the Systick. */
  HAL_Init();
 80006da:	f000 fbb2 	bl	8000e42 <HAL_Init>
  /* USER CODE BEGIN Init */

  /* USER CODE END Init */

  /* Configure the system clock */
  SystemClock_Config();
 80006de:	f000 f841 	bl	8000764 <SystemClock_Config>
  /* USER CODE BEGIN SysInit */

  /* USER CODE END SysInit */

  /* Initialize all configured peripherals */
  MX_GPIO_Init();
 80006e2:	f000 f93b 	bl	800095c <MX_GPIO_Init>
  MX_USART3_UART_Init();
 80006e6:	f000 f909 	bl	80008fc <MX_USART3_UART_Init>
  MX_TIM1_Init();
 80006ea:	f000 f8ad 	bl	8000848 <MX_TIM1_Init>
  MX_USB_DEVICE_Init();
 80006ee:	f007 fbad 	bl	8007e4c <MX_USB_DEVICE_Init>
  /* USER CODE BEGIN 2 */
  HAL_TIM_Encoder_Start(&htim1, TIM_CHANNEL_ALL);
 80006f2:	213c      	movs	r1, #60	; 0x3c
 80006f4:	481a      	ldr	r0, [pc, #104]	; (8000760 <main+0x8c>)
 80006f6:	f003 fbb7 	bl	8003e68 <HAL_TIM_Encoder_Start>

  KeyboardMacroState NextState = ReadButtons;
 80006fa:	2300      	movs	r3, #0
 80006fc:	71fb      	strb	r3, [r7, #7]
  {
    /* USER CODE END WHILE */

    /* USER CODE BEGIN 3 */

	  switch(NextState)
 80006fe:	79fb      	ldrb	r3, [r7, #7]
 8000700:	2b04      	cmp	r3, #4
 8000702:	d826      	bhi.n	8000752 <main+0x7e>
 8000704:	a201      	add	r2, pc, #4	; (adr r2, 800070c <main+0x38>)
 8000706:	f852 f023 	ldr.w	pc, [r2, r3, lsl #2]
 800070a:	bf00      	nop
 800070c:	08000721 	.word	0x08000721
 8000710:	0800072b 	.word	0x0800072b
 8000714:	08000735 	.word	0x08000735
 8000718:	0800073f 	.word	0x0800073f
 800071c:	08000749 	.word	0x08000749
	  {
	  case ReadButtons:
	  NextState = ButtonStateHandler();
 8000720:	f7ff ff0c 	bl	800053c <ButtonStateHandler>
 8000724:	4603      	mov	r3, r0
 8000726:	71fb      	strb	r3, [r7, #7]
	  break;
 8000728:	e018      	b.n	800075c <main+0x88>
	  case ReadEncoder:
	  NextState = EncoderStateHandler();
 800072a:	f7ff ff53 	bl	80005d4 <EncoderStateHandler>
 800072e:	4603      	mov	r3, r0
 8000730:	71fb      	strb	r3, [r7, #7]
	  break;
 8000732:	e013      	b.n	800075c <main+0x88>
	  case InterpretButtons:
	  NextState = ButtonTranslateHandler();
 8000734:	f7ff ff76 	bl	8000624 <ButtonTranslateHandler>
 8000738:	4603      	mov	r3, r0
 800073a:	71fb      	strb	r3, [r7, #7]
	  break;
 800073c:	e00e      	b.n	800075c <main+0x88>
	  case InterpretEncoder:
	  NextState = EncoderTranslateHandler();
 800073e:	f7ff ff93 	bl	8000668 <EncoderTranslateHandler>
 8000742:	4603      	mov	r3, r0
 8000744:	71fb      	strb	r3, [r7, #7]
	  break;
 8000746:	e009      	b.n	800075c <main+0x88>
	  case SendKeyboard:
	  NextState = SendKeyboardHandler();
 8000748:	f7ff ffb2 	bl	80006b0 <SendKeyboardHandler>
 800074c:	4603      	mov	r3, r0
 800074e:	71fb      	strb	r3, [r7, #7]
	  break;
 8000750:	e004      	b.n	800075c <main+0x88>
	  default:
	  NextState = ButtonStateHandler();
 8000752:	f7ff fef3 	bl	800053c <ButtonStateHandler>
 8000756:	4603      	mov	r3, r0
 8000758:	71fb      	strb	r3, [r7, #7]
	  break;
 800075a:	bf00      	nop
	  switch(NextState)
 800075c:	e7cf      	b.n	80006fe <main+0x2a>
 800075e:	bf00      	nop
 8000760:	200001a0 	.word	0x200001a0

08000764 <SystemClock_Config>:
/**
  * @brief System Clock Configuration
  * @retval None
  */
void SystemClock_Config(void)
{
 8000764:	b580      	push	{r7, lr}
 8000766:	b094      	sub	sp, #80	; 0x50
 8000768:	af00      	add	r7, sp, #0
  RCC_OscInitTypeDef RCC_OscInitStruct = {0};
 800076a:	f107 031c 	add.w	r3, r7, #28
 800076e:	2234      	movs	r2, #52	; 0x34
 8000770:	2100      	movs	r1, #0
 8000772:	4618      	mov	r0, r3
 8000774:	f008 f858 	bl	8008828 <memset>
  RCC_ClkInitTypeDef RCC_ClkInitStruct = {0};
 8000778:	f107 0308 	add.w	r3, r7, #8
 800077c:	2200      	movs	r2, #0
 800077e:	601a      	str	r2, [r3, #0]
 8000780:	605a      	str	r2, [r3, #4]
 8000782:	609a      	str	r2, [r3, #8]
 8000784:	60da      	str	r2, [r3, #12]
 8000786:	611a      	str	r2, [r3, #16]

  /** Configure LSE Drive Capability
  */
  HAL_PWR_EnableBkUpAccess();
 8000788:	f002 f96c 	bl	8002a64 <HAL_PWR_EnableBkUpAccess>

  /** Configure the main internal regulator output voltage
  */
  __HAL_RCC_PWR_CLK_ENABLE();
 800078c:	4b2c      	ldr	r3, [pc, #176]	; (8000840 <SystemClock_Config+0xdc>)
 800078e:	6c1b      	ldr	r3, [r3, #64]	; 0x40
 8000790:	4a2b      	ldr	r2, [pc, #172]	; (8000840 <SystemClock_Config+0xdc>)
 8000792:	f043 5380 	orr.w	r3, r3, #268435456	; 0x10000000
 8000796:	6413      	str	r3, [r2, #64]	; 0x40
 8000798:	4b29      	ldr	r3, [pc, #164]	; (8000840 <SystemClock_Config+0xdc>)
 800079a:	6c1b      	ldr	r3, [r3, #64]	; 0x40
 800079c:	f003 5380 	and.w	r3, r3, #268435456	; 0x10000000
 80007a0:	607b      	str	r3, [r7, #4]
 80007a2:	687b      	ldr	r3, [r7, #4]
  __HAL_PWR_VOLTAGESCALING_CONFIG(PWR_REGULATOR_VOLTAGE_SCALE3);
 80007a4:	4b27      	ldr	r3, [pc, #156]	; (8000844 <SystemClock_Config+0xe0>)
 80007a6:	681b      	ldr	r3, [r3, #0]
 80007a8:	f423 4340 	bic.w	r3, r3, #49152	; 0xc000
 80007ac:	4a25      	ldr	r2, [pc, #148]	; (8000844 <SystemClock_Config+0xe0>)
 80007ae:	f443 4380 	orr.w	r3, r3, #16384	; 0x4000
 80007b2:	6013      	str	r3, [r2, #0]
 80007b4:	4b23      	ldr	r3, [pc, #140]	; (8000844 <SystemClock_Config+0xe0>)
 80007b6:	681b      	ldr	r3, [r3, #0]
 80007b8:	f403 4340 	and.w	r3, r3, #49152	; 0xc000
 80007bc:	603b      	str	r3, [r7, #0]
 80007be:	683b      	ldr	r3, [r7, #0]

  /** Initializes the RCC Oscillators according to the specified parameters
  * in the RCC_OscInitTypeDef structure.
  */
  RCC_OscInitStruct.OscillatorType = RCC_OSCILLATORTYPE_HSE;
 80007c0:	2301      	movs	r3, #1
 80007c2:	61fb      	str	r3, [r7, #28]
  RCC_OscInitStruct.HSEState = RCC_HSE_BYPASS;
 80007c4:	f44f 23a0 	mov.w	r3, #327680	; 0x50000
 80007c8:	623b      	str	r3, [r7, #32]
  RCC_OscInitStruct.PLL.PLLState = RCC_PLL_ON;
 80007ca:	2302      	movs	r3, #2
 80007cc:	637b      	str	r3, [r7, #52]	; 0x34
  RCC_OscInitStruct.PLL.PLLSource = RCC_PLLSOURCE_HSE;
 80007ce:	f44f 0380 	mov.w	r3, #4194304	; 0x400000
 80007d2:	63bb      	str	r3, [r7, #56]	; 0x38
  RCC_OscInitStruct.PLL.PLLM = 4;
 80007d4:	2304      	movs	r3, #4
 80007d6:	63fb      	str	r3, [r7, #60]	; 0x3c
  RCC_OscInitStruct.PLL.PLLN = 96;
 80007d8:	2360      	movs	r3, #96	; 0x60
 80007da:	643b      	str	r3, [r7, #64]	; 0x40
  RCC_OscInitStruct.PLL.PLLP = RCC_PLLP_DIV2;
 80007dc:	2302      	movs	r3, #2
 80007de:	647b      	str	r3, [r7, #68]	; 0x44
  RCC_OscInitStruct.PLL.PLLQ = 4;
 80007e0:	2304      	movs	r3, #4
 80007e2:	64bb      	str	r3, [r7, #72]	; 0x48
  RCC_OscInitStruct.PLL.PLLR = 2;
 80007e4:	2302      	movs	r3, #2
 80007e6:	64fb      	str	r3, [r7, #76]	; 0x4c
  if (HAL_RCC_OscConfig(&RCC_OscInitStruct) != HAL_OK)
 80007e8:	f107 031c 	add.w	r3, r7, #28
 80007ec:	4618      	mov	r0, r3
 80007ee:	f002 f999 	bl	8002b24 <HAL_RCC_OscConfig>
 80007f2:	4603      	mov	r3, r0
 80007f4:	2b00      	cmp	r3, #0
 80007f6:	d001      	beq.n	80007fc <SystemClock_Config+0x98>
  {
    Error_Handler();
 80007f8:	f000 f9b0 	bl	8000b5c <Error_Handler>
  }

  /** Activate the Over-Drive mode
  */
  if (HAL_PWREx_EnableOverDrive() != HAL_OK)
 80007fc:	f002 f942 	bl	8002a84 <HAL_PWREx_EnableOverDrive>
 8000800:	4603      	mov	r3, r0
 8000802:	2b00      	cmp	r3, #0
 8000804:	d001      	beq.n	800080a <SystemClock_Config+0xa6>
  {
    Error_Handler();
 8000806:	f000 f9a9 	bl	8000b5c <Error_Handler>
  }

  /** Initializes the CPU, AHB and APB buses clocks
  */
  RCC_ClkInitStruct.ClockType = RCC_CLOCKTYPE_HCLK|RCC_CLOCKTYPE_SYSCLK
 800080a:	230f      	movs	r3, #15
 800080c:	60bb      	str	r3, [r7, #8]
                              |RCC_CLOCKTYPE_PCLK1|RCC_CLOCKTYPE_PCLK2;
  RCC_ClkInitStruct.SYSCLKSource = RCC_SYSCLKSOURCE_PLLCLK;
 800080e:	2302      	movs	r3, #2
 8000810:	60fb      	str	r3, [r7, #12]
  RCC_ClkInitStruct.AHBCLKDivider = RCC_SYSCLK_DIV1;
 8000812:	2300      	movs	r3, #0
 8000814:	613b      	str	r3, [r7, #16]
  RCC_ClkInitStruct.APB1CLKDivider = RCC_HCLK_DIV2;
 8000816:	f44f 5380 	mov.w	r3, #4096	; 0x1000
 800081a:	617b      	str	r3, [r7, #20]
  RCC_ClkInitStruct.APB2CLKDivider = RCC_HCLK_DIV1;
 800081c:	2300      	movs	r3, #0
 800081e:	61bb      	str	r3, [r7, #24]

  if (HAL_RCC_ClockConfig(&RCC_ClkInitStruct, FLASH_LATENCY_3) != HAL_OK)
 8000820:	f107 0308 	add.w	r3, r7, #8
 8000824:	2103      	movs	r1, #3
 8000826:	4618      	mov	r0, r3
 8000828:	f002 fc2a 	bl	8003080 <HAL_RCC_ClockConfig>
 800082c:	4603      	mov	r3, r0
 800082e:	2b00      	cmp	r3, #0
 8000830:	d001      	beq.n	8000836 <SystemClock_Config+0xd2>
  {
    Error_Handler();
 8000832:	f000 f993 	bl	8000b5c <Error_Handler>
  }
}
 8000836:	bf00      	nop
 8000838:	3750      	adds	r7, #80	; 0x50
 800083a:	46bd      	mov	sp, r7
 800083c:	bd80      	pop	{r7, pc}
 800083e:	bf00      	nop
 8000840:	40023800 	.word	0x40023800
 8000844:	40007000 	.word	0x40007000

08000848 <MX_TIM1_Init>:
  * @brief TIM1 Initialization Function
  * @param None
  * @retval None
  */
static void MX_TIM1_Init(void)
{
 8000848:	b580      	push	{r7, lr}
 800084a:	b08c      	sub	sp, #48	; 0x30
 800084c:	af00      	add	r7, sp, #0

  /* USER CODE BEGIN TIM1_Init 0 */

  /* USER CODE END TIM1_Init 0 */

  TIM_Encoder_InitTypeDef sConfig = {0};
 800084e:	f107 030c 	add.w	r3, r7, #12
 8000852:	2224      	movs	r2, #36	; 0x24
 8000854:	2100      	movs	r1, #0
 8000856:	4618      	mov	r0, r3
 8000858:	f007 ffe6 	bl	8008828 <memset>
  TIM_MasterConfigTypeDef sMasterConfig = {0};
 800085c:	463b      	mov	r3, r7
 800085e:	2200      	movs	r2, #0
 8000860:	601a      	str	r2, [r3, #0]
 8000862:	605a      	str	r2, [r3, #4]
 8000864:	609a      	str	r2, [r3, #8]

  /* USER CODE BEGIN TIM1_Init 1 */

  /* USER CODE END TIM1_Init 1 */
  htim1.Instance = TIM1;
 8000866:	4b23      	ldr	r3, [pc, #140]	; (80008f4 <MX_TIM1_Init+0xac>)
 8000868:	4a23      	ldr	r2, [pc, #140]	; (80008f8 <MX_TIM1_Init+0xb0>)
 800086a:	601a      	str	r2, [r3, #0]
  htim1.Init.Prescaler = 0;
 800086c:	4b21      	ldr	r3, [pc, #132]	; (80008f4 <MX_TIM1_Init+0xac>)
 800086e:	2200      	movs	r2, #0
 8000870:	605a      	str	r2, [r3, #4]
  htim1.Init.CounterMode = TIM_COUNTERMODE_UP;
 8000872:	4b20      	ldr	r3, [pc, #128]	; (80008f4 <MX_TIM1_Init+0xac>)
 8000874:	2200      	movs	r2, #0
 8000876:	609a      	str	r2, [r3, #8]
  htim1.Init.Period = 65535;
 8000878:	4b1e      	ldr	r3, [pc, #120]	; (80008f4 <MX_TIM1_Init+0xac>)
 800087a:	f64f 72ff 	movw	r2, #65535	; 0xffff
 800087e:	60da      	str	r2, [r3, #12]
  htim1.Init.ClockDivision = TIM_CLOCKDIVISION_DIV1;
 8000880:	4b1c      	ldr	r3, [pc, #112]	; (80008f4 <MX_TIM1_Init+0xac>)
 8000882:	2200      	movs	r2, #0
 8000884:	611a      	str	r2, [r3, #16]
  htim1.Init.RepetitionCounter = 0;
 8000886:	4b1b      	ldr	r3, [pc, #108]	; (80008f4 <MX_TIM1_Init+0xac>)
 8000888:	2200      	movs	r2, #0
 800088a:	615a      	str	r2, [r3, #20]
  htim1.Init.AutoReloadPreload = TIM_AUTORELOAD_PRELOAD_ENABLE;
 800088c:	4b19      	ldr	r3, [pc, #100]	; (80008f4 <MX_TIM1_Init+0xac>)
 800088e:	2280      	movs	r2, #128	; 0x80
 8000890:	619a      	str	r2, [r3, #24]
  sConfig.EncoderMode = TIM_ENCODERMODE_TI12;
 8000892:	2303      	movs	r3, #3
 8000894:	60fb      	str	r3, [r7, #12]
  sConfig.IC1Polarity = TIM_ICPOLARITY_RISING;
 8000896:	2300      	movs	r3, #0
 8000898:	613b      	str	r3, [r7, #16]
  sConfig.IC1Selection = TIM_ICSELECTION_DIRECTTI;
 800089a:	2301      	movs	r3, #1
 800089c:	617b      	str	r3, [r7, #20]
  sConfig.IC1Prescaler = TIM_ICPSC_DIV1;
 800089e:	2300      	movs	r3, #0
 80008a0:	61bb      	str	r3, [r7, #24]
  sConfig.IC1Filter = 10;
 80008a2:	230a      	movs	r3, #10
 80008a4:	61fb      	str	r3, [r7, #28]
  sConfig.IC2Polarity = TIM_ICPOLARITY_RISING;
 80008a6:	2300      	movs	r3, #0
 80008a8:	623b      	str	r3, [r7, #32]
  sConfig.IC2Selection = TIM_ICSELECTION_DIRECTTI;
 80008aa:	2301      	movs	r3, #1
 80008ac:	627b      	str	r3, [r7, #36]	; 0x24
  sConfig.IC2Prescaler = TIM_ICPSC_DIV1;
 80008ae:	2300      	movs	r3, #0
 80008b0:	62bb      	str	r3, [r7, #40]	; 0x28
  sConfig.IC2Filter = 10;
 80008b2:	230a      	movs	r3, #10
 80008b4:	62fb      	str	r3, [r7, #44]	; 0x2c
  if (HAL_TIM_Encoder_Init(&htim1, &sConfig) != HAL_OK)
 80008b6:	f107 030c 	add.w	r3, r7, #12
 80008ba:	4619      	mov	r1, r3
 80008bc:	480d      	ldr	r0, [pc, #52]	; (80008f4 <MX_TIM1_Init+0xac>)
 80008be:	f003 fa2d 	bl	8003d1c <HAL_TIM_Encoder_Init>
 80008c2:	4603      	mov	r3, r0
 80008c4:	2b00      	cmp	r3, #0
 80008c6:	d001      	beq.n	80008cc <MX_TIM1_Init+0x84>
  {
    Error_Handler();
 80008c8:	f000 f948 	bl	8000b5c <Error_Handler>
  }
  sMasterConfig.MasterOutputTrigger = TIM_TRGO_RESET;
 80008cc:	2300      	movs	r3, #0
 80008ce:	603b      	str	r3, [r7, #0]
  sMasterConfig.MasterOutputTrigger2 = TIM_TRGO2_RESET;
 80008d0:	2300      	movs	r3, #0
 80008d2:	607b      	str	r3, [r7, #4]
  sMasterConfig.MasterSlaveMode = TIM_MASTERSLAVEMODE_DISABLE;
 80008d4:	2300      	movs	r3, #0
 80008d6:	60bb      	str	r3, [r7, #8]
  if (HAL_TIMEx_MasterConfigSynchronization(&htim1, &sMasterConfig) != HAL_OK)
 80008d8:	463b      	mov	r3, r7
 80008da:	4619      	mov	r1, r3
 80008dc:	4805      	ldr	r0, [pc, #20]	; (80008f4 <MX_TIM1_Init+0xac>)
 80008de:	f003 fc17 	bl	8004110 <HAL_TIMEx_MasterConfigSynchronization>
 80008e2:	4603      	mov	r3, r0
 80008e4:	2b00      	cmp	r3, #0
 80008e6:	d001      	beq.n	80008ec <MX_TIM1_Init+0xa4>
  {
    Error_Handler();
 80008e8:	f000 f938 	bl	8000b5c <Error_Handler>
  }
  /* USER CODE BEGIN TIM1_Init 2 */

  /* USER CODE END TIM1_Init 2 */

}
 80008ec:	bf00      	nop
 80008ee:	3730      	adds	r7, #48	; 0x30
 80008f0:	46bd      	mov	sp, r7
 80008f2:	bd80      	pop	{r7, pc}
 80008f4:	200001a0 	.word	0x200001a0
 80008f8:	40010000 	.word	0x40010000

080008fc <MX_USART3_UART_Init>:
  * @brief USART3 Initialization Function
  * @param None
  * @retval None
  */
static void MX_USART3_UART_Init(void)
{
 80008fc:	b580      	push	{r7, lr}
 80008fe:	af00      	add	r7, sp, #0
  /* USER CODE END USART3_Init 0 */

  /* USER CODE BEGIN USART3_Init 1 */

  /* USER CODE END USART3_Init 1 */
  huart3.Instance = USART3;
 8000900:	4b14      	ldr	r3, [pc, #80]	; (8000954 <MX_USART3_UART_Init+0x58>)
 8000902:	4a15      	ldr	r2, [pc, #84]	; (8000958 <MX_USART3_UART_Init+0x5c>)
 8000904:	601a      	str	r2, [r3, #0]
  huart3.Init.BaudRate = 115200;
 8000906:	4b13      	ldr	r3, [pc, #76]	; (8000954 <MX_USART3_UART_Init+0x58>)
 8000908:	f44f 32e1 	mov.w	r2, #115200	; 0x1c200
 800090c:	605a      	str	r2, [r3, #4]
  huart3.Init.WordLength = UART_WORDLENGTH_8B;
 800090e:	4b11      	ldr	r3, [pc, #68]	; (8000954 <MX_USART3_UART_Init+0x58>)
 8000910:	2200      	movs	r2, #0
 8000912:	609a      	str	r2, [r3, #8]
  huart3.Init.StopBits = UART_STOPBITS_1;
 8000914:	4b0f      	ldr	r3, [pc, #60]	; (8000954 <MX_USART3_UART_Init+0x58>)
 8000916:	2200      	movs	r2, #0
 8000918:	60da      	str	r2, [r3, #12]
  huart3.Init.Parity = UART_PARITY_NONE;
 800091a:	4b0e      	ldr	r3, [pc, #56]	; (8000954 <MX_USART3_UART_Init+0x58>)
 800091c:	2200      	movs	r2, #0
 800091e:	611a      	str	r2, [r3, #16]
  huart3.Init.Mode = UART_MODE_TX_RX;
 8000920:	4b0c      	ldr	r3, [pc, #48]	; (8000954 <MX_USART3_UART_Init+0x58>)
 8000922:	220c      	movs	r2, #12
 8000924:	615a      	str	r2, [r3, #20]
  huart3.Init.HwFlowCtl = UART_HWCONTROL_NONE;
 8000926:	4b0b      	ldr	r3, [pc, #44]	; (8000954 <MX_USART3_UART_Init+0x58>)
 8000928:	2200      	movs	r2, #0
 800092a:	619a      	str	r2, [r3, #24]
  huart3.Init.OverSampling = UART_OVERSAMPLING_16;
 800092c:	4b09      	ldr	r3, [pc, #36]	; (8000954 <MX_USART3_UART_Init+0x58>)
 800092e:	2200      	movs	r2, #0
 8000930:	61da      	str	r2, [r3, #28]
  huart3.Init.OneBitSampling = UART_ONE_BIT_SAMPLE_DISABLE;
 8000932:	4b08      	ldr	r3, [pc, #32]	; (8000954 <MX_USART3_UART_Init+0x58>)
 8000934:	2200      	movs	r2, #0
 8000936:	621a      	str	r2, [r3, #32]
  huart3.AdvancedInit.AdvFeatureInit = UART_ADVFEATURE_NO_INIT;
 8000938:	4b06      	ldr	r3, [pc, #24]	; (8000954 <MX_USART3_UART_Init+0x58>)
 800093a:	2200      	movs	r2, #0
 800093c:	625a      	str	r2, [r3, #36]	; 0x24
  if (HAL_UART_Init(&huart3) != HAL_OK)
 800093e:	4805      	ldr	r0, [pc, #20]	; (8000954 <MX_USART3_UART_Init+0x58>)
 8000940:	f003 fc74 	bl	800422c <HAL_UART_Init>
 8000944:	4603      	mov	r3, r0
 8000946:	2b00      	cmp	r3, #0
 8000948:	d001      	beq.n	800094e <MX_USART3_UART_Init+0x52>
  {
    Error_Handler();
 800094a:	f000 f907 	bl	8000b5c <Error_Handler>
  }
  /* USER CODE BEGIN USART3_Init 2 */

  /* USER CODE END USART3_Init 2 */

}
 800094e:	bf00      	nop
 8000950:	bd80      	pop	{r7, pc}
 8000952:	bf00      	nop
 8000954:	200001ec 	.word	0x200001ec
 8000958:	40004800 	.word	0x40004800

0800095c <MX_GPIO_Init>:
  * @brief GPIO Initialization Function
  * @param None
  * @retval None
  */
static void MX_GPIO_Init(void)
{
 800095c:	b580      	push	{r7, lr}
 800095e:	b08c      	sub	sp, #48	; 0x30
 8000960:	af00      	add	r7, sp, #0
  GPIO_InitTypeDef GPIO_InitStruct = {0};
 8000962:	f107 031c 	add.w	r3, r7, #28
 8000966:	2200      	movs	r2, #0
 8000968:	601a      	str	r2, [r3, #0]
 800096a:	605a      	str	r2, [r3, #4]
 800096c:	609a      	str	r2, [r3, #8]
 800096e:	60da      	str	r2, [r3, #12]
 8000970:	611a      	str	r2, [r3, #16]

  /* GPIO Ports Clock Enable */
  __HAL_RCC_GPIOE_CLK_ENABLE();
 8000972:	4b74      	ldr	r3, [pc, #464]	; (8000b44 <MX_GPIO_Init+0x1e8>)
 8000974:	6b1b      	ldr	r3, [r3, #48]	; 0x30
 8000976:	4a73      	ldr	r2, [pc, #460]	; (8000b44 <MX_GPIO_Init+0x1e8>)
 8000978:	f043 0310 	orr.w	r3, r3, #16
 800097c:	6313      	str	r3, [r2, #48]	; 0x30
 800097e:	4b71      	ldr	r3, [pc, #452]	; (8000b44 <MX_GPIO_Init+0x1e8>)
 8000980:	6b1b      	ldr	r3, [r3, #48]	; 0x30
 8000982:	f003 0310 	and.w	r3, r3, #16
 8000986:	61bb      	str	r3, [r7, #24]
 8000988:	69bb      	ldr	r3, [r7, #24]
  __HAL_RCC_GPIOC_CLK_ENABLE();
 800098a:	4b6e      	ldr	r3, [pc, #440]	; (8000b44 <MX_GPIO_Init+0x1e8>)
 800098c:	6b1b      	ldr	r3, [r3, #48]	; 0x30
 800098e:	4a6d      	ldr	r2, [pc, #436]	; (8000b44 <MX_GPIO_Init+0x1e8>)
 8000990:	f043 0304 	orr.w	r3, r3, #4
 8000994:	6313      	str	r3, [r2, #48]	; 0x30
 8000996:	4b6b      	ldr	r3, [pc, #428]	; (8000b44 <MX_GPIO_Init+0x1e8>)
 8000998:	6b1b      	ldr	r3, [r3, #48]	; 0x30
 800099a:	f003 0304 	and.w	r3, r3, #4
 800099e:	617b      	str	r3, [r7, #20]
 80009a0:	697b      	ldr	r3, [r7, #20]
  __HAL_RCC_GPIOH_CLK_ENABLE();
 80009a2:	4b68      	ldr	r3, [pc, #416]	; (8000b44 <MX_GPIO_Init+0x1e8>)
 80009a4:	6b1b      	ldr	r3, [r3, #48]	; 0x30
 80009a6:	4a67      	ldr	r2, [pc, #412]	; (8000b44 <MX_GPIO_Init+0x1e8>)
 80009a8:	f043 0380 	orr.w	r3, r3, #128	; 0x80
 80009ac:	6313      	str	r3, [r2, #48]	; 0x30
 80009ae:	4b65      	ldr	r3, [pc, #404]	; (8000b44 <MX_GPIO_Init+0x1e8>)
 80009b0:	6b1b      	ldr	r3, [r3, #48]	; 0x30
 80009b2:	f003 0380 	and.w	r3, r3, #128	; 0x80
 80009b6:	613b      	str	r3, [r7, #16]
 80009b8:	693b      	ldr	r3, [r7, #16]
  __HAL_RCC_GPIOA_CLK_ENABLE();
 80009ba:	4b62      	ldr	r3, [pc, #392]	; (8000b44 <MX_GPIO_Init+0x1e8>)
 80009bc:	6b1b      	ldr	r3, [r3, #48]	; 0x30
 80009be:	4a61      	ldr	r2, [pc, #388]	; (8000b44 <MX_GPIO_Init+0x1e8>)
 80009c0:	f043 0301 	orr.w	r3, r3, #1
 80009c4:	6313      	str	r3, [r2, #48]	; 0x30
 80009c6:	4b5f      	ldr	r3, [pc, #380]	; (8000b44 <MX_GPIO_Init+0x1e8>)
 80009c8:	6b1b      	ldr	r3, [r3, #48]	; 0x30
 80009ca:	f003 0301 	and.w	r3, r3, #1
 80009ce:	60fb      	str	r3, [r7, #12]
 80009d0:	68fb      	ldr	r3, [r7, #12]
  __HAL_RCC_GPIOB_CLK_ENABLE();
 80009d2:	4b5c      	ldr	r3, [pc, #368]	; (8000b44 <MX_GPIO_Init+0x1e8>)
 80009d4:	6b1b      	ldr	r3, [r3, #48]	; 0x30
 80009d6:	4a5b      	ldr	r2, [pc, #364]	; (8000b44 <MX_GPIO_Init+0x1e8>)
 80009d8:	f043 0302 	orr.w	r3, r3, #2
 80009dc:	6313      	str	r3, [r2, #48]	; 0x30
 80009de:	4b59      	ldr	r3, [pc, #356]	; (8000b44 <MX_GPIO_Init+0x1e8>)
 80009e0:	6b1b      	ldr	r3, [r3, #48]	; 0x30
 80009e2:	f003 0302 	and.w	r3, r3, #2
 80009e6:	60bb      	str	r3, [r7, #8]
 80009e8:	68bb      	ldr	r3, [r7, #8]
  __HAL_RCC_GPIOD_CLK_ENABLE();
 80009ea:	4b56      	ldr	r3, [pc, #344]	; (8000b44 <MX_GPIO_Init+0x1e8>)
 80009ec:	6b1b      	ldr	r3, [r3, #48]	; 0x30
 80009ee:	4a55      	ldr	r2, [pc, #340]	; (8000b44 <MX_GPIO_Init+0x1e8>)
 80009f0:	f043 0308 	orr.w	r3, r3, #8
 80009f4:	6313      	str	r3, [r2, #48]	; 0x30
 80009f6:	4b53      	ldr	r3, [pc, #332]	; (8000b44 <MX_GPIO_Init+0x1e8>)
 80009f8:	6b1b      	ldr	r3, [r3, #48]	; 0x30
 80009fa:	f003 0308 	and.w	r3, r3, #8
 80009fe:	607b      	str	r3, [r7, #4]
 8000a00:	687b      	ldr	r3, [r7, #4]
  __HAL_RCC_GPIOG_CLK_ENABLE();
 8000a02:	4b50      	ldr	r3, [pc, #320]	; (8000b44 <MX_GPIO_Init+0x1e8>)
 8000a04:	6b1b      	ldr	r3, [r3, #48]	; 0x30
 8000a06:	4a4f      	ldr	r2, [pc, #316]	; (8000b44 <MX_GPIO_Init+0x1e8>)
 8000a08:	f043 0340 	orr.w	r3, r3, #64	; 0x40
 8000a0c:	6313      	str	r3, [r2, #48]	; 0x30
 8000a0e:	4b4d      	ldr	r3, [pc, #308]	; (8000b44 <MX_GPIO_Init+0x1e8>)
 8000a10:	6b1b      	ldr	r3, [r3, #48]	; 0x30
 8000a12:	f003 0340 	and.w	r3, r3, #64	; 0x40
 8000a16:	603b      	str	r3, [r7, #0]
 8000a18:	683b      	ldr	r3, [r7, #0]

  /*Configure GPIO pin Output Level */
  HAL_GPIO_WritePin(GPIOB, LD1_Pin|LD3_Pin|LD2_Pin, GPIO_PIN_RESET);
 8000a1a:	2200      	movs	r2, #0
 8000a1c:	f244 0181 	movw	r1, #16513	; 0x4081
 8000a20:	4849      	ldr	r0, [pc, #292]	; (8000b48 <MX_GPIO_Init+0x1ec>)
 8000a22:	f000 fd65 	bl	80014f0 <HAL_GPIO_WritePin>

  /*Configure GPIO pin Output Level */
  HAL_GPIO_WritePin(USB_PowerSwitchOn_GPIO_Port, USB_PowerSwitchOn_Pin, GPIO_PIN_RESET);
 8000a26:	2200      	movs	r2, #0
 8000a28:	2140      	movs	r1, #64	; 0x40
 8000a2a:	4848      	ldr	r0, [pc, #288]	; (8000b4c <MX_GPIO_Init+0x1f0>)
 8000a2c:	f000 fd60 	bl	80014f0 <HAL_GPIO_WritePin>

  /*Configure GPIO pins : EncoderSw_Pin SwSuper_Pin SwTriangle_Pin SwCircle_Pin
                           SwSquare_Pin */
  GPIO_InitStruct.Pin = EncoderSw_Pin|SwSuper_Pin|SwTriangle_Pin|SwCircle_Pin
 8000a30:	f24d 4304 	movw	r3, #54276	; 0xd404
 8000a34:	61fb      	str	r3, [r7, #28]
                          |SwSquare_Pin;
  GPIO_InitStruct.Mode = GPIO_MODE_INPUT;
 8000a36:	2300      	movs	r3, #0
 8000a38:	623b      	str	r3, [r7, #32]
  GPIO_InitStruct.Pull = GPIO_NOPULL;
 8000a3a:	2300      	movs	r3, #0
 8000a3c:	627b      	str	r3, [r7, #36]	; 0x24
  HAL_GPIO_Init(GPIOE, &GPIO_InitStruct);
 8000a3e:	f107 031c 	add.w	r3, r7, #28
 8000a42:	4619      	mov	r1, r3
 8000a44:	4842      	ldr	r0, [pc, #264]	; (8000b50 <MX_GPIO_Init+0x1f4>)
 8000a46:	f000 fb8f 	bl	8001168 <HAL_GPIO_Init>

  /*Configure GPIO pin : USER_Btn_Pin */
  GPIO_InitStruct.Pin = USER_Btn_Pin;
 8000a4a:	f44f 5300 	mov.w	r3, #8192	; 0x2000
 8000a4e:	61fb      	str	r3, [r7, #28]
  GPIO_InitStruct.Mode = GPIO_MODE_IT_RISING;
 8000a50:	f44f 1388 	mov.w	r3, #1114112	; 0x110000
 8000a54:	623b      	str	r3, [r7, #32]
  GPIO_InitStruct.Pull = GPIO_NOPULL;
 8000a56:	2300      	movs	r3, #0
 8000a58:	627b      	str	r3, [r7, #36]	; 0x24
  HAL_GPIO_Init(USER_Btn_GPIO_Port, &GPIO_InitStruct);
 8000a5a:	f107 031c 	add.w	r3, r7, #28
 8000a5e:	4619      	mov	r1, r3
 8000a60:	483c      	ldr	r0, [pc, #240]	; (8000b54 <MX_GPIO_Init+0x1f8>)
 8000a62:	f000 fb81 	bl	8001168 <HAL_GPIO_Init>

  /*Configure GPIO pins : RMII_MDC_Pin RMII_RXD0_Pin RMII_RXD1_Pin */
  GPIO_InitStruct.Pin = RMII_MDC_Pin|RMII_RXD0_Pin|RMII_RXD1_Pin;
 8000a66:	2332      	movs	r3, #50	; 0x32
 8000a68:	61fb      	str	r3, [r7, #28]
  GPIO_InitStruct.Mode = GPIO_MODE_AF_PP;
 8000a6a:	2302      	movs	r3, #2
 8000a6c:	623b      	str	r3, [r7, #32]
  GPIO_InitStruct.Pull = GPIO_NOPULL;
 8000a6e:	2300      	movs	r3, #0
 8000a70:	627b      	str	r3, [r7, #36]	; 0x24
  GPIO_InitStruct.Speed = GPIO_SPEED_FREQ_VERY_HIGH;
 8000a72:	2303      	movs	r3, #3
 8000a74:	62bb      	str	r3, [r7, #40]	; 0x28
  GPIO_InitStruct.Alternate = GPIO_AF11_ETH;
 8000a76:	230b      	movs	r3, #11
 8000a78:	62fb      	str	r3, [r7, #44]	; 0x2c
  HAL_GPIO_Init(GPIOC, &GPIO_InitStruct);
 8000a7a:	f107 031c 	add.w	r3, r7, #28
 8000a7e:	4619      	mov	r1, r3
 8000a80:	4834      	ldr	r0, [pc, #208]	; (8000b54 <MX_GPIO_Init+0x1f8>)
 8000a82:	f000 fb71 	bl	8001168 <HAL_GPIO_Init>

  /*Configure GPIO pins : RMII_REF_CLK_Pin RMII_MDIO_Pin RMII_CRS_DV_Pin */
  GPIO_InitStruct.Pin = RMII_REF_CLK_Pin|RMII_MDIO_Pin|RMII_CRS_DV_Pin;
 8000a86:	2386      	movs	r3, #134	; 0x86
 8000a88:	61fb      	str	r3, [r7, #28]
  GPIO_InitStruct.Mode = GPIO_MODE_AF_PP;
 8000a8a:	2302      	movs	r3, #2
 8000a8c:	623b      	str	r3, [r7, #32]
  GPIO_InitStruct.Pull = GPIO_NOPULL;
 8000a8e:	2300      	movs	r3, #0
 8000a90:	627b      	str	r3, [r7, #36]	; 0x24
  GPIO_InitStruct.Speed = GPIO_SPEED_FREQ_VERY_HIGH;
 8000a92:	2303      	movs	r3, #3
 8000a94:	62bb      	str	r3, [r7, #40]	; 0x28
  GPIO_InitStruct.Alternate = GPIO_AF11_ETH;
 8000a96:	230b      	movs	r3, #11
 8000a98:	62fb      	str	r3, [r7, #44]	; 0x2c
  HAL_GPIO_Init(GPIOA, &GPIO_InitStruct);
 8000a9a:	f107 031c 	add.w	r3, r7, #28
 8000a9e:	4619      	mov	r1, r3
 8000aa0:	482d      	ldr	r0, [pc, #180]	; (8000b58 <MX_GPIO_Init+0x1fc>)
 8000aa2:	f000 fb61 	bl	8001168 <HAL_GPIO_Init>

  /*Configure GPIO pins : LD1_Pin LD3_Pin LD2_Pin */
  GPIO_InitStruct.Pin = LD1_Pin|LD3_Pin|LD2_Pin;
 8000aa6:	f244 0381 	movw	r3, #16513	; 0x4081
 8000aaa:	61fb      	str	r3, [r7, #28]
  GPIO_InitStruct.Mode = GPIO_MODE_OUTPUT_PP;
 8000aac:	2301      	movs	r3, #1
 8000aae:	623b      	str	r3, [r7, #32]
  GPIO_InitStruct.Pull = GPIO_NOPULL;
 8000ab0:	2300      	movs	r3, #0
 8000ab2:	627b      	str	r3, [r7, #36]	; 0x24
  GPIO_InitStruct.Speed = GPIO_SPEED_FREQ_LOW;
 8000ab4:	2300      	movs	r3, #0
 8000ab6:	62bb      	str	r3, [r7, #40]	; 0x28
  HAL_GPIO_Init(GPIOB, &GPIO_InitStruct);
 8000ab8:	f107 031c 	add.w	r3, r7, #28
 8000abc:	4619      	mov	r1, r3
 8000abe:	4822      	ldr	r0, [pc, #136]	; (8000b48 <MX_GPIO_Init+0x1ec>)
 8000ac0:	f000 fb52 	bl	8001168 <HAL_GPIO_Init>

  /*Configure GPIO pin : RMII_TXD1_Pin */
  GPIO_InitStruct.Pin = RMII_TXD1_Pin;
 8000ac4:	f44f 5300 	mov.w	r3, #8192	; 0x2000
 8000ac8:	61fb      	str	r3, [r7, #28]
  GPIO_InitStruct.Mode = GPIO_MODE_AF_PP;
 8000aca:	2302      	movs	r3, #2
 8000acc:	623b      	str	r3, [r7, #32]
  GPIO_InitStruct.Pull = GPIO_NOPULL;
 8000ace:	2300      	movs	r3, #0
 8000ad0:	627b      	str	r3, [r7, #36]	; 0x24
  GPIO_InitStruct.Speed = GPIO_SPEED_FREQ_VERY_HIGH;
 8000ad2:	2303      	movs	r3, #3
 8000ad4:	62bb      	str	r3, [r7, #40]	; 0x28
  GPIO_InitStruct.Alternate = GPIO_AF11_ETH;
 8000ad6:	230b      	movs	r3, #11
 8000ad8:	62fb      	str	r3, [r7, #44]	; 0x2c
  HAL_GPIO_Init(RMII_TXD1_GPIO_Port, &GPIO_InitStruct);
 8000ada:	f107 031c 	add.w	r3, r7, #28
 8000ade:	4619      	mov	r1, r3
 8000ae0:	4819      	ldr	r0, [pc, #100]	; (8000b48 <MX_GPIO_Init+0x1ec>)
 8000ae2:	f000 fb41 	bl	8001168 <HAL_GPIO_Init>

  /*Configure GPIO pin : USB_PowerSwitchOn_Pin */
  GPIO_InitStruct.Pin = USB_PowerSwitchOn_Pin;
 8000ae6:	2340      	movs	r3, #64	; 0x40
 8000ae8:	61fb      	str	r3, [r7, #28]
  GPIO_InitStruct.Mode = GPIO_MODE_OUTPUT_PP;
 8000aea:	2301      	movs	r3, #1
 8000aec:	623b      	str	r3, [r7, #32]
  GPIO_InitStruct.Pull = GPIO_NOPULL;
 8000aee:	2300      	movs	r3, #0
 8000af0:	627b      	str	r3, [r7, #36]	; 0x24
  GPIO_InitStruct.Speed = GPIO_SPEED_FREQ_LOW;
 8000af2:	2300      	movs	r3, #0
 8000af4:	62bb      	str	r3, [r7, #40]	; 0x28
  HAL_GPIO_Init(USB_PowerSwitchOn_GPIO_Port, &GPIO_InitStruct);
 8000af6:	f107 031c 	add.w	r3, r7, #28
 8000afa:	4619      	mov	r1, r3
 8000afc:	4813      	ldr	r0, [pc, #76]	; (8000b4c <MX_GPIO_Init+0x1f0>)
 8000afe:	f000 fb33 	bl	8001168 <HAL_GPIO_Init>

  /*Configure GPIO pin : USB_OverCurrent_Pin */
  GPIO_InitStruct.Pin = USB_OverCurrent_Pin;
 8000b02:	2380      	movs	r3, #128	; 0x80
 8000b04:	61fb      	str	r3, [r7, #28]
  GPIO_InitStruct.Mode = GPIO_MODE_INPUT;
 8000b06:	2300      	movs	r3, #0
 8000b08:	623b      	str	r3, [r7, #32]
  GPIO_InitStruct.Pull = GPIO_NOPULL;
 8000b0a:	2300      	movs	r3, #0
 8000b0c:	627b      	str	r3, [r7, #36]	; 0x24
  HAL_GPIO_Init(USB_OverCurrent_GPIO_Port, &GPIO_InitStruct);
 8000b0e:	f107 031c 	add.w	r3, r7, #28
 8000b12:	4619      	mov	r1, r3
 8000b14:	480d      	ldr	r0, [pc, #52]	; (8000b4c <MX_GPIO_Init+0x1f0>)
 8000b16:	f000 fb27 	bl	8001168 <HAL_GPIO_Init>

  /*Configure GPIO pins : RMII_TX_EN_Pin RMII_TXD0_Pin */
  GPIO_InitStruct.Pin = RMII_TX_EN_Pin|RMII_TXD0_Pin;
 8000b1a:	f44f 5320 	mov.w	r3, #10240	; 0x2800
 8000b1e:	61fb      	str	r3, [r7, #28]
  GPIO_InitStruct.Mode = GPIO_MODE_AF_PP;
 8000b20:	2302      	movs	r3, #2
 8000b22:	623b      	str	r3, [r7, #32]
  GPIO_InitStruct.Pull = GPIO_NOPULL;
 8000b24:	2300      	movs	r3, #0
 8000b26:	627b      	str	r3, [r7, #36]	; 0x24
  GPIO_InitStruct.Speed = GPIO_SPEED_FREQ_VERY_HIGH;
 8000b28:	2303      	movs	r3, #3
 8000b2a:	62bb      	str	r3, [r7, #40]	; 0x28
  GPIO_InitStruct.Alternate = GPIO_AF11_ETH;
 8000b2c:	230b      	movs	r3, #11
 8000b2e:	62fb      	str	r3, [r7, #44]	; 0x2c
  HAL_GPIO_Init(GPIOG, &GPIO_InitStruct);
 8000b30:	f107 031c 	add.w	r3, r7, #28
 8000b34:	4619      	mov	r1, r3
 8000b36:	4805      	ldr	r0, [pc, #20]	; (8000b4c <MX_GPIO_Init+0x1f0>)
 8000b38:	f000 fb16 	bl	8001168 <HAL_GPIO_Init>

}
 8000b3c:	bf00      	nop
 8000b3e:	3730      	adds	r7, #48	; 0x30
 8000b40:	46bd      	mov	sp, r7
 8000b42:	bd80      	pop	{r7, pc}
 8000b44:	40023800 	.word	0x40023800
 8000b48:	40020400 	.word	0x40020400
 8000b4c:	40021800 	.word	0x40021800
 8000b50:	40021000 	.word	0x40021000
 8000b54:	40020800 	.word	0x40020800
 8000b58:	40020000 	.word	0x40020000

08000b5c <Error_Handler>:
/**
  * @brief  This function is executed in case of error occurrence.
  * @retval None
  */
void Error_Handler(void)
{
 8000b5c:	b480      	push	{r7}
 8000b5e:	af00      	add	r7, sp, #0
  \details Disables IRQ interrupts by setting the I-bit in the CPSR.
           Can only be executed in Privileged modes.
 */
__STATIC_FORCEINLINE void __disable_irq(void)
{
  __ASM volatile ("cpsid i" : : : "memory");
 8000b60:	b672      	cpsid	i
}
 8000b62:	bf00      	nop
  /* USER CODE BEGIN Error_Handler_Debug */
  /* User can add his own implementation to report the HAL error return state */
  __disable_irq();
  while (1)
 8000b64:	e7fe      	b.n	8000b64 <Error_Handler+0x8>
	...

08000b68 <HAL_MspInit>:
/* USER CODE END 0 */
/**
  * Initializes the Global MSP.
  */
void HAL_MspInit(void)
{
 8000b68:	b480      	push	{r7}
 8000b6a:	b083      	sub	sp, #12
 8000b6c:	af00      	add	r7, sp, #0
  /* USER CODE BEGIN MspInit 0 */

  /* USER CODE END MspInit 0 */

  __HAL_RCC_PWR_CLK_ENABLE();
 8000b6e:	4b0f      	ldr	r3, [pc, #60]	; (8000bac <HAL_MspInit+0x44>)
 8000b70:	6c1b      	ldr	r3, [r3, #64]	; 0x40
 8000b72:	4a0e      	ldr	r2, [pc, #56]	; (8000bac <HAL_MspInit+0x44>)
 8000b74:	f043 5380 	orr.w	r3, r3, #268435456	; 0x10000000
 8000b78:	6413      	str	r3, [r2, #64]	; 0x40
 8000b7a:	4b0c      	ldr	r3, [pc, #48]	; (8000bac <HAL_MspInit+0x44>)
 8000b7c:	6c1b      	ldr	r3, [r3, #64]	; 0x40
 8000b7e:	f003 5380 	and.w	r3, r3, #268435456	; 0x10000000
 8000b82:	607b      	str	r3, [r7, #4]
 8000b84:	687b      	ldr	r3, [r7, #4]
  __HAL_RCC_SYSCFG_CLK_ENABLE();
 8000b86:	4b09      	ldr	r3, [pc, #36]	; (8000bac <HAL_MspInit+0x44>)
 8000b88:	6c5b      	ldr	r3, [r3, #68]	; 0x44
 8000b8a:	4a08      	ldr	r2, [pc, #32]	; (8000bac <HAL_MspInit+0x44>)
 8000b8c:	f443 4380 	orr.w	r3, r3, #16384	; 0x4000
 8000b90:	6453      	str	r3, [r2, #68]	; 0x44
 8000b92:	4b06      	ldr	r3, [pc, #24]	; (8000bac <HAL_MspInit+0x44>)
 8000b94:	6c5b      	ldr	r3, [r3, #68]	; 0x44
 8000b96:	f403 4380 	and.w	r3, r3, #16384	; 0x4000
 8000b9a:	603b      	str	r3, [r7, #0]
 8000b9c:	683b      	ldr	r3, [r7, #0]
  /* System interrupt init*/

  /* USER CODE BEGIN MspInit 1 */

  /* USER CODE END MspInit 1 */
}
 8000b9e:	bf00      	nop
 8000ba0:	370c      	adds	r7, #12
 8000ba2:	46bd      	mov	sp, r7
 8000ba4:	f85d 7b04 	ldr.w	r7, [sp], #4
 8000ba8:	4770      	bx	lr
 8000baa:	bf00      	nop
 8000bac:	40023800 	.word	0x40023800

08000bb0 <HAL_TIM_Encoder_MspInit>:
* This function configures the hardware resources used in this example
* @param htim_encoder: TIM_Encoder handle pointer
* @retval None
*/
void HAL_TIM_Encoder_MspInit(TIM_HandleTypeDef* htim_encoder)
{
 8000bb0:	b580      	push	{r7, lr}
 8000bb2:	b08a      	sub	sp, #40	; 0x28
 8000bb4:	af00      	add	r7, sp, #0
 8000bb6:	6078      	str	r0, [r7, #4]
  GPIO_InitTypeDef GPIO_InitStruct = {0};
 8000bb8:	f107 0314 	add.w	r3, r7, #20
 8000bbc:	2200      	movs	r2, #0
 8000bbe:	601a      	str	r2, [r3, #0]
 8000bc0:	605a      	str	r2, [r3, #4]
 8000bc2:	609a      	str	r2, [r3, #8]
 8000bc4:	60da      	str	r2, [r3, #12]
 8000bc6:	611a      	str	r2, [r3, #16]
  if(htim_encoder->Instance==TIM1)
 8000bc8:	687b      	ldr	r3, [r7, #4]
 8000bca:	681b      	ldr	r3, [r3, #0]
 8000bcc:	4a17      	ldr	r2, [pc, #92]	; (8000c2c <HAL_TIM_Encoder_MspInit+0x7c>)
 8000bce:	4293      	cmp	r3, r2
 8000bd0:	d128      	bne.n	8000c24 <HAL_TIM_Encoder_MspInit+0x74>
  {
  /* USER CODE BEGIN TIM1_MspInit 0 */

  /* USER CODE END TIM1_MspInit 0 */
    /* Peripheral clock enable */
    __HAL_RCC_TIM1_CLK_ENABLE();
 8000bd2:	4b17      	ldr	r3, [pc, #92]	; (8000c30 <HAL_TIM_Encoder_MspInit+0x80>)
 8000bd4:	6c5b      	ldr	r3, [r3, #68]	; 0x44
 8000bd6:	4a16      	ldr	r2, [pc, #88]	; (8000c30 <HAL_TIM_Encoder_MspInit+0x80>)
 8000bd8:	f043 0301 	orr.w	r3, r3, #1
 8000bdc:	6453      	str	r3, [r2, #68]	; 0x44
 8000bde:	4b14      	ldr	r3, [pc, #80]	; (8000c30 <HAL_TIM_Encoder_MspInit+0x80>)
 8000be0:	6c5b      	ldr	r3, [r3, #68]	; 0x44
 8000be2:	f003 0301 	and.w	r3, r3, #1
 8000be6:	613b      	str	r3, [r7, #16]
 8000be8:	693b      	ldr	r3, [r7, #16]

    __HAL_RCC_GPIOE_CLK_ENABLE();
 8000bea:	4b11      	ldr	r3, [pc, #68]	; (8000c30 <HAL_TIM_Encoder_MspInit+0x80>)
 8000bec:	6b1b      	ldr	r3, [r3, #48]	; 0x30
 8000bee:	4a10      	ldr	r2, [pc, #64]	; (8000c30 <HAL_TIM_Encoder_MspInit+0x80>)
 8000bf0:	f043 0310 	orr.w	r3, r3, #16
 8000bf4:	6313      	str	r3, [r2, #48]	; 0x30
 8000bf6:	4b0e      	ldr	r3, [pc, #56]	; (8000c30 <HAL_TIM_Encoder_MspInit+0x80>)
 8000bf8:	6b1b      	ldr	r3, [r3, #48]	; 0x30
 8000bfa:	f003 0310 	and.w	r3, r3, #16
 8000bfe:	60fb      	str	r3, [r7, #12]
 8000c00:	68fb      	ldr	r3, [r7, #12]
    /**TIM1 GPIO Configuration
    PE9     ------> TIM1_CH1
    PE11     ------> TIM1_CH2
    */
    GPIO_InitStruct.Pin = GPIO_PIN_9|GPIO_PIN_11;
 8000c02:	f44f 6320 	mov.w	r3, #2560	; 0xa00
 8000c06:	617b      	str	r3, [r7, #20]
    GPIO_InitStruct.Mode = GPIO_MODE_AF_PP;
 8000c08:	2302      	movs	r3, #2
 8000c0a:	61bb      	str	r3, [r7, #24]
    GPIO_InitStruct.Pull = GPIO_NOPULL;
 8000c0c:	2300      	movs	r3, #0
 8000c0e:	61fb      	str	r3, [r7, #28]
    GPIO_InitStruct.Speed = GPIO_SPEED_FREQ_LOW;
 8000c10:	2300      	movs	r3, #0
 8000c12:	623b      	str	r3, [r7, #32]
    GPIO_InitStruct.Alternate = GPIO_AF1_TIM1;
 8000c14:	2301      	movs	r3, #1
 8000c16:	627b      	str	r3, [r7, #36]	; 0x24
    HAL_GPIO_Init(GPIOE, &GPIO_InitStruct);
 8000c18:	f107 0314 	add.w	r3, r7, #20
 8000c1c:	4619      	mov	r1, r3
 8000c1e:	4805      	ldr	r0, [pc, #20]	; (8000c34 <HAL_TIM_Encoder_MspInit+0x84>)
 8000c20:	f000 faa2 	bl	8001168 <HAL_GPIO_Init>
  /* USER CODE BEGIN TIM1_MspInit 1 */

  /* USER CODE END TIM1_MspInit 1 */
  }

}
 8000c24:	bf00      	nop
 8000c26:	3728      	adds	r7, #40	; 0x28
 8000c28:	46bd      	mov	sp, r7
 8000c2a:	bd80      	pop	{r7, pc}
 8000c2c:	40010000 	.word	0x40010000
 8000c30:	40023800 	.word	0x40023800
 8000c34:	40021000 	.word	0x40021000

08000c38 <HAL_UART_MspInit>:
* This function configures the hardware resources used in this example
* @param huart: UART handle pointer
* @retval None
*/
void HAL_UART_MspInit(UART_HandleTypeDef* huart)
{
 8000c38:	b580      	push	{r7, lr}
 8000c3a:	b0ae      	sub	sp, #184	; 0xb8
 8000c3c:	af00      	add	r7, sp, #0
 8000c3e:	6078      	str	r0, [r7, #4]
  GPIO_InitTypeDef GPIO_InitStruct = {0};
 8000c40:	f107 03a4 	add.w	r3, r7, #164	; 0xa4
 8000c44:	2200      	movs	r2, #0
 8000c46:	601a      	str	r2, [r3, #0]
 8000c48:	605a      	str	r2, [r3, #4]
 8000c4a:	609a      	str	r2, [r3, #8]
 8000c4c:	60da      	str	r2, [r3, #12]
 8000c4e:	611a      	str	r2, [r3, #16]
  RCC_PeriphCLKInitTypeDef PeriphClkInitStruct = {0};
 8000c50:	f107 0314 	add.w	r3, r7, #20
 8000c54:	2290      	movs	r2, #144	; 0x90
 8000c56:	2100      	movs	r1, #0
 8000c58:	4618      	mov	r0, r3
 8000c5a:	f007 fde5 	bl	8008828 <memset>
  if(huart->Instance==USART3)
 8000c5e:	687b      	ldr	r3, [r7, #4]
 8000c60:	681b      	ldr	r3, [r3, #0]
 8000c62:	4a22      	ldr	r2, [pc, #136]	; (8000cec <HAL_UART_MspInit+0xb4>)
 8000c64:	4293      	cmp	r3, r2
 8000c66:	d13c      	bne.n	8000ce2 <HAL_UART_MspInit+0xaa>

  /* USER CODE END USART3_MspInit 0 */

  /** Initializes the peripherals clock
  */
    PeriphClkInitStruct.PeriphClockSelection = RCC_PERIPHCLK_USART3;
 8000c68:	f44f 7380 	mov.w	r3, #256	; 0x100
 8000c6c:	617b      	str	r3, [r7, #20]
    PeriphClkInitStruct.Usart3ClockSelection = RCC_USART3CLKSOURCE_PCLK1;
 8000c6e:	2300      	movs	r3, #0
 8000c70:	663b      	str	r3, [r7, #96]	; 0x60
    if (HAL_RCCEx_PeriphCLKConfig(&PeriphClkInitStruct) != HAL_OK)
 8000c72:	f107 0314 	add.w	r3, r7, #20
 8000c76:	4618      	mov	r0, r3
 8000c78:	f002 fc28 	bl	80034cc <HAL_RCCEx_PeriphCLKConfig>
 8000c7c:	4603      	mov	r3, r0
 8000c7e:	2b00      	cmp	r3, #0
 8000c80:	d001      	beq.n	8000c86 <HAL_UART_MspInit+0x4e>
    {
      Error_Handler();
 8000c82:	f7ff ff6b 	bl	8000b5c <Error_Handler>
    }

    /* Peripheral clock enable */
    __HAL_RCC_USART3_CLK_ENABLE();
 8000c86:	4b1a      	ldr	r3, [pc, #104]	; (8000cf0 <HAL_UART_MspInit+0xb8>)
 8000c88:	6c1b      	ldr	r3, [r3, #64]	; 0x40
 8000c8a:	4a19      	ldr	r2, [pc, #100]	; (8000cf0 <HAL_UART_MspInit+0xb8>)
 8000c8c:	f443 2380 	orr.w	r3, r3, #262144	; 0x40000
 8000c90:	6413      	str	r3, [r2, #64]	; 0x40
 8000c92:	4b17      	ldr	r3, [pc, #92]	; (8000cf0 <HAL_UART_MspInit+0xb8>)
 8000c94:	6c1b      	ldr	r3, [r3, #64]	; 0x40
 8000c96:	f403 2380 	and.w	r3, r3, #262144	; 0x40000
 8000c9a:	613b      	str	r3, [r7, #16]
 8000c9c:	693b      	ldr	r3, [r7, #16]

    __HAL_RCC_GPIOD_CLK_ENABLE();
 8000c9e:	4b14      	ldr	r3, [pc, #80]	; (8000cf0 <HAL_UART_MspInit+0xb8>)
 8000ca0:	6b1b      	ldr	r3, [r3, #48]	; 0x30
 8000ca2:	4a13      	ldr	r2, [pc, #76]	; (8000cf0 <HAL_UART_MspInit+0xb8>)
 8000ca4:	f043 0308 	orr.w	r3, r3, #8
 8000ca8:	6313      	str	r3, [r2, #48]	; 0x30
 8000caa:	4b11      	ldr	r3, [pc, #68]	; (8000cf0 <HAL_UART_MspInit+0xb8>)
 8000cac:	6b1b      	ldr	r3, [r3, #48]	; 0x30
 8000cae:	f003 0308 	and.w	r3, r3, #8
 8000cb2:	60fb      	str	r3, [r7, #12]
 8000cb4:	68fb      	ldr	r3, [r7, #12]
    /**USART3 GPIO Configuration
    PD8     ------> USART3_TX
    PD9     ------> USART3_RX
    */
    GPIO_InitStruct.Pin = STLK_RX_Pin|STLK_TX_Pin;
 8000cb6:	f44f 7340 	mov.w	r3, #768	; 0x300
 8000cba:	f8c7 30a4 	str.w	r3, [r7, #164]	; 0xa4
    GPIO_InitStruct.Mode = GPIO_MODE_AF_PP;
 8000cbe:	2302      	movs	r3, #2
 8000cc0:	f8c7 30a8 	str.w	r3, [r7, #168]	; 0xa8
    GPIO_InitStruct.Pull = GPIO_NOPULL;
 8000cc4:	2300      	movs	r3, #0
 8000cc6:	f8c7 30ac 	str.w	r3, [r7, #172]	; 0xac
    GPIO_InitStruct.Speed = GPIO_SPEED_FREQ_VERY_HIGH;
 8000cca:	2303      	movs	r3, #3
 8000ccc:	f8c7 30b0 	str.w	r3, [r7, #176]	; 0xb0
    GPIO_InitStruct.Alternate = GPIO_AF7_USART3;
 8000cd0:	2307      	movs	r3, #7
 8000cd2:	f8c7 30b4 	str.w	r3, [r7, #180]	; 0xb4
    HAL_GPIO_Init(GPIOD, &GPIO_InitStruct);
 8000cd6:	f107 03a4 	add.w	r3, r7, #164	; 0xa4
 8000cda:	4619      	mov	r1, r3
 8000cdc:	4805      	ldr	r0, [pc, #20]	; (8000cf4 <HAL_UART_MspInit+0xbc>)
 8000cde:	f000 fa43 	bl	8001168 <HAL_GPIO_Init>
  /* USER CODE BEGIN USART3_MspInit 1 */

  /* USER CODE END USART3_MspInit 1 */
  }

}
 8000ce2:	bf00      	nop
 8000ce4:	37b8      	adds	r7, #184	; 0xb8
 8000ce6:	46bd      	mov	sp, r7
 8000ce8:	bd80      	pop	{r7, pc}
 8000cea:	bf00      	nop
 8000cec:	40004800 	.word	0x40004800
 8000cf0:	40023800 	.word	0x40023800
 8000cf4:	40020c00 	.word	0x40020c00

08000cf8 <NMI_Handler>:
/******************************************************************************/
/**
  * @brief This function handles Non maskable interrupt.
  */
void NMI_Handler(void)
{
 8000cf8:	b480      	push	{r7}
 8000cfa:	af00      	add	r7, sp, #0
  /* USER CODE BEGIN NonMaskableInt_IRQn 0 */

  /* USER CODE END NonMaskableInt_IRQn 0 */
  /* USER CODE BEGIN NonMaskableInt_IRQn 1 */
  while (1)
 8000cfc:	e7fe      	b.n	8000cfc <NMI_Handler+0x4>

08000cfe <HardFault_Handler>:

/**
  * @brief This function handles Hard fault interrupt.
  */
void HardFault_Handler(void)
{
 8000cfe:	b480      	push	{r7}
 8000d00:	af00      	add	r7, sp, #0
  /* USER CODE BEGIN HardFault_IRQn 0 */

  /* USER CODE END HardFault_IRQn 0 */
  while (1)
 8000d02:	e7fe      	b.n	8000d02 <HardFault_Handler+0x4>

08000d04 <MemManage_Handler>:

/**
  * @brief This function handles Memory management fault.
  */
void MemManage_Handler(void)
{
 8000d04:	b480      	push	{r7}
 8000d06:	af00      	add	r7, sp, #0
  /* USER CODE BEGIN MemoryManagement_IRQn 0 */

  /* USER CODE END MemoryManagement_IRQn 0 */
  while (1)
 8000d08:	e7fe      	b.n	8000d08 <MemManage_Handler+0x4>

08000d0a <BusFault_Handler>:

/**
  * @brief This function handles Pre-fetch fault, memory access fault.
  */
void BusFault_Handler(void)
{
 8000d0a:	b480      	push	{r7}
 8000d0c:	af00      	add	r7, sp, #0
  /* USER CODE BEGIN BusFault_IRQn 0 */

  /* USER CODE END BusFault_IRQn 0 */
  while (1)
 8000d0e:	e7fe      	b.n	8000d0e <BusFault_Handler+0x4>

08000d10 <UsageFault_Handler>:

/**
  * @brief This function handles Undefined instruction or illegal state.
  */
void UsageFault_Handler(void)
{
 8000d10:	b480      	push	{r7}
 8000d12:	af00      	add	r7, sp, #0
  /* USER CODE BEGIN UsageFault_IRQn 0 */

  /* USER CODE END UsageFault_IRQn 0 */
  while (1)
 8000d14:	e7fe      	b.n	8000d14 <UsageFault_Handler+0x4>

08000d16 <SVC_Handler>:

/**
  * @brief This function handles System service call via SWI instruction.
  */
void SVC_Handler(void)
{
 8000d16:	b480      	push	{r7}
 8000d18:	af00      	add	r7, sp, #0

  /* USER CODE END SVCall_IRQn 0 */
  /* USER CODE BEGIN SVCall_IRQn 1 */

  /* USER CODE END SVCall_IRQn 1 */
}
 8000d1a:	bf00      	nop
 8000d1c:	46bd      	mov	sp, r7
 8000d1e:	f85d 7b04 	ldr.w	r7, [sp], #4
 8000d22:	4770      	bx	lr

08000d24 <DebugMon_Handler>:

/**
  * @brief This function handles Debug monitor.
  */
void DebugMon_Handler(void)
{
 8000d24:	b480      	push	{r7}
 8000d26:	af00      	add	r7, sp, #0

  /* USER CODE END DebugMonitor_IRQn 0 */
  /* USER CODE BEGIN DebugMonitor_IRQn 1 */

  /* USER CODE END DebugMonitor_IRQn 1 */
}
 8000d28:	bf00      	nop
 8000d2a:	46bd      	mov	sp, r7
 8000d2c:	f85d 7b04 	ldr.w	r7, [sp], #4
 8000d30:	4770      	bx	lr

08000d32 <PendSV_Handler>:

/**
  * @brief This function handles Pendable request for system service.
  */
void PendSV_Handler(void)
{
 8000d32:	b480      	push	{r7}
 8000d34:	af00      	add	r7, sp, #0

  /* USER CODE END PendSV_IRQn 0 */
  /* USER CODE BEGIN PendSV_IRQn 1 */

  /* USER CODE END PendSV_IRQn 1 */
}
 8000d36:	bf00      	nop
 8000d38:	46bd      	mov	sp, r7
 8000d3a:	f85d 7b04 	ldr.w	r7, [sp], #4
 8000d3e:	4770      	bx	lr

08000d40 <SysTick_Handler>:

/**
  * @brief This function handles System tick timer.
  */
void SysTick_Handler(void)
{
 8000d40:	b580      	push	{r7, lr}
 8000d42:	af00      	add	r7, sp, #0
  /* USER CODE BEGIN SysTick_IRQn 0 */

  /* USER CODE END SysTick_IRQn 0 */
  HAL_IncTick();
 8000d44:	f000 f8ba 	bl	8000ebc <HAL_IncTick>
  /* USER CODE BEGIN SysTick_IRQn 1 */

  /* USER CODE END SysTick_IRQn 1 */
}
 8000d48:	bf00      	nop
 8000d4a:	bd80      	pop	{r7, pc}

08000d4c <OTG_FS_IRQHandler>:

/**
  * @brief This function handles USB On The Go FS global interrupt.
  */
void OTG_FS_IRQHandler(void)
{
 8000d4c:	b580      	push	{r7, lr}
 8000d4e:	af00      	add	r7, sp, #0
  /* USER CODE BEGIN OTG_FS_IRQn 0 */

  /* USER CODE END OTG_FS_IRQn 0 */
  HAL_PCD_IRQHandler(&hpcd_USB_OTG_FS);
 8000d50:	4802      	ldr	r0, [pc, #8]	; (8000d5c <OTG_FS_IRQHandler+0x10>)
 8000d52:	f000 fd2c 	bl	80017ae <HAL_PCD_IRQHandler>
  /* USER CODE BEGIN OTG_FS_IRQn 1 */

  /* USER CODE END OTG_FS_IRQn 1 */
}
 8000d56:	bf00      	nop
 8000d58:	bd80      	pop	{r7, pc}
 8000d5a:	bf00      	nop
 8000d5c:	20000770 	.word	0x20000770

08000d60 <_sbrk>:
 *
 * @param incr Memory size
 * @return Pointer to allocated memory
 */
void *_sbrk(ptrdiff_t incr)
{
 8000d60:	b580      	push	{r7, lr}
 8000d62:	b086      	sub	sp, #24
 8000d64:	af00      	add	r7, sp, #0
 8000d66:	6078      	str	r0, [r7, #4]
  extern uint8_t _end; /* Symbol defined in the linker script */
  extern uint8_t _estack; /* Symbol defined in the linker script */
  extern uint32_t _Min_Stack_Size; /* Symbol defined in the linker script */
  const uint32_t stack_limit = (uint32_t)&_estack - (uint32_t)&_Min_Stack_Size;
 8000d68:	4a14      	ldr	r2, [pc, #80]	; (8000dbc <_sbrk+0x5c>)
 8000d6a:	4b15      	ldr	r3, [pc, #84]	; (8000dc0 <_sbrk+0x60>)
 8000d6c:	1ad3      	subs	r3, r2, r3
 8000d6e:	617b      	str	r3, [r7, #20]
  const uint8_t *max_heap = (uint8_t *)stack_limit;
 8000d70:	697b      	ldr	r3, [r7, #20]
 8000d72:	613b      	str	r3, [r7, #16]
  uint8_t *prev_heap_end;

  /* Initialize heap end at first call */
  if (NULL == __sbrk_heap_end)
 8000d74:	4b13      	ldr	r3, [pc, #76]	; (8000dc4 <_sbrk+0x64>)
 8000d76:	681b      	ldr	r3, [r3, #0]
 8000d78:	2b00      	cmp	r3, #0
 8000d7a:	d102      	bne.n	8000d82 <_sbrk+0x22>
  {
    __sbrk_heap_end = &_end;
 8000d7c:	4b11      	ldr	r3, [pc, #68]	; (8000dc4 <_sbrk+0x64>)
 8000d7e:	4a12      	ldr	r2, [pc, #72]	; (8000dc8 <_sbrk+0x68>)
 8000d80:	601a      	str	r2, [r3, #0]
  }

  /* Protect heap from growing into the reserved MSP stack */
  if (__sbrk_heap_end + incr > max_heap)
 8000d82:	4b10      	ldr	r3, [pc, #64]	; (8000dc4 <_sbrk+0x64>)
 8000d84:	681a      	ldr	r2, [r3, #0]
 8000d86:	687b      	ldr	r3, [r7, #4]
 8000d88:	4413      	add	r3, r2
 8000d8a:	693a      	ldr	r2, [r7, #16]
 8000d8c:	429a      	cmp	r2, r3
 8000d8e:	d207      	bcs.n	8000da0 <_sbrk+0x40>
  {
    errno = ENOMEM;
 8000d90:	f007 fd10 	bl	80087b4 <__errno>
 8000d94:	4603      	mov	r3, r0
 8000d96:	220c      	movs	r2, #12
 8000d98:	601a      	str	r2, [r3, #0]
    return (void *)-1;
 8000d9a:	f04f 33ff 	mov.w	r3, #4294967295
 8000d9e:	e009      	b.n	8000db4 <_sbrk+0x54>
  }

  prev_heap_end = __sbrk_heap_end;
 8000da0:	4b08      	ldr	r3, [pc, #32]	; (8000dc4 <_sbrk+0x64>)
 8000da2:	681b      	ldr	r3, [r3, #0]
 8000da4:	60fb      	str	r3, [r7, #12]
  __sbrk_heap_end += incr;
 8000da6:	4b07      	ldr	r3, [pc, #28]	; (8000dc4 <_sbrk+0x64>)
 8000da8:	681a      	ldr	r2, [r3, #0]
 8000daa:	687b      	ldr	r3, [r7, #4]
 8000dac:	4413      	add	r3, r2
 8000dae:	4a05      	ldr	r2, [pc, #20]	; (8000dc4 <_sbrk+0x64>)
 8000db0:	6013      	str	r3, [r2, #0]

  return (void *)prev_heap_end;
 8000db2:	68fb      	ldr	r3, [r7, #12]
}
 8000db4:	4618      	mov	r0, r3
 8000db6:	3718      	adds	r7, #24
 8000db8:	46bd      	mov	sp, r7
 8000dba:	bd80      	pop	{r7, pc}
 8000dbc:	20080000 	.word	0x20080000
 8000dc0:	00000400 	.word	0x00000400
 8000dc4:	20000288 	.word	0x20000288
 8000dc8:	20000c88 	.word	0x20000c88

08000dcc <SystemInit>:
  *         SystemFrequency variable.
  * @param  None
  * @retval None
  */
void SystemInit(void)
{
 8000dcc:	b480      	push	{r7}
 8000dce:	af00      	add	r7, sp, #0
  /* FPU settings ------------------------------------------------------------*/
#if (__FPU_PRESENT == 1) && (__FPU_USED == 1)
  SCB->CPACR |= ((3UL << 10*2)|(3UL << 11*2));  /* set CP10 and CP11 Full Access */
 8000dd0:	4b06      	ldr	r3, [pc, #24]	; (8000dec <SystemInit+0x20>)
 8000dd2:	f8d3 3088 	ldr.w	r3, [r3, #136]	; 0x88
 8000dd6:	4a05      	ldr	r2, [pc, #20]	; (8000dec <SystemInit+0x20>)
 8000dd8:	f443 0370 	orr.w	r3, r3, #15728640	; 0xf00000
 8000ddc:	f8c2 3088 	str.w	r3, [r2, #136]	; 0x88

  /* Configure the Vector Table location -------------------------------------*/
#if defined(USER_VECT_TAB_ADDRESS)
  SCB->VTOR = VECT_TAB_BASE_ADDRESS | VECT_TAB_OFFSET; /* Vector Table Relocation in Internal SRAM */
#endif /* USER_VECT_TAB_ADDRESS */
}
 8000de0:	bf00      	nop
 8000de2:	46bd      	mov	sp, r7
 8000de4:	f85d 7b04 	ldr.w	r7, [sp], #4
 8000de8:	4770      	bx	lr
 8000dea:	bf00      	nop
 8000dec:	e000ed00 	.word	0xe000ed00

08000df0 <Reset_Handler>:

    .section  .text.Reset_Handler
  .weak  Reset_Handler
  .type  Reset_Handler, %function
Reset_Handler:  
  ldr   sp, =_estack      /* set stack pointer */
 8000df0:	f8df d034 	ldr.w	sp, [pc, #52]	; 8000e28 <LoopFillZerobss+0x12>

/* Copy the data segment initializers from flash to SRAM */  
  ldr r0, =_sdata
 8000df4:	480d      	ldr	r0, [pc, #52]	; (8000e2c <LoopFillZerobss+0x16>)
  ldr r1, =_edata
 8000df6:	490e      	ldr	r1, [pc, #56]	; (8000e30 <LoopFillZerobss+0x1a>)
  ldr r2, =_sidata
 8000df8:	4a0e      	ldr	r2, [pc, #56]	; (8000e34 <LoopFillZerobss+0x1e>)
  movs r3, #0
 8000dfa:	2300      	movs	r3, #0
  b LoopCopyDataInit
 8000dfc:	e002      	b.n	8000e04 <LoopCopyDataInit>

08000dfe <CopyDataInit>:

CopyDataInit:
  ldr r4, [r2, r3]
 8000dfe:	58d4      	ldr	r4, [r2, r3]
  str r4, [r0, r3]
 8000e00:	50c4      	str	r4, [r0, r3]
  adds r3, r3, #4
 8000e02:	3304      	adds	r3, #4

08000e04 <LoopCopyDataInit>:

LoopCopyDataInit:
  adds r4, r0, r3
 8000e04:	18c4      	adds	r4, r0, r3
  cmp r4, r1
 8000e06:	428c      	cmp	r4, r1
  bcc CopyDataInit
 8000e08:	d3f9      	bcc.n	8000dfe <CopyDataInit>
  
/* Zero fill the bss segment. */
  ldr r2, =_sbss
 8000e0a:	4a0b      	ldr	r2, [pc, #44]	; (8000e38 <LoopFillZerobss+0x22>)
  ldr r4, =_ebss
 8000e0c:	4c0b      	ldr	r4, [pc, #44]	; (8000e3c <LoopFillZerobss+0x26>)
  movs r3, #0
 8000e0e:	2300      	movs	r3, #0
  b LoopFillZerobss
 8000e10:	e001      	b.n	8000e16 <LoopFillZerobss>

08000e12 <FillZerobss>:

FillZerobss:
  str  r3, [r2]
 8000e12:	6013      	str	r3, [r2, #0]
  adds r2, r2, #4
 8000e14:	3204      	adds	r2, #4

08000e16 <LoopFillZerobss>:

LoopFillZerobss:
  cmp r2, r4
 8000e16:	42a2      	cmp	r2, r4
  bcc FillZerobss
 8000e18:	d3fb      	bcc.n	8000e12 <FillZerobss>

/* Call the clock system initialization function.*/
  bl  SystemInit   
 8000e1a:	f7ff ffd7 	bl	8000dcc <SystemInit>
/* Call static constructors */
    bl __libc_init_array
 8000e1e:	f007 fccf 	bl	80087c0 <__libc_init_array>
/* Call the application's entry point.*/
  bl  main
 8000e22:	f7ff fc57 	bl	80006d4 <main>
  bx  lr    
 8000e26:	4770      	bx	lr
  ldr   sp, =_estack      /* set stack pointer */
 8000e28:	20080000 	.word	0x20080000
  ldr r0, =_sdata
 8000e2c:	20000000 	.word	0x20000000
  ldr r1, =_edata
 8000e30:	20000184 	.word	0x20000184
  ldr r2, =_sidata
 8000e34:	08008abc 	.word	0x08008abc
  ldr r2, =_sbss
 8000e38:	20000184 	.word	0x20000184
  ldr r4, =_ebss
 8000e3c:	20000c88 	.word	0x20000c88

08000e40 <ADC_IRQHandler>:
 * @retval None       
*/
    .section  .text.Default_Handler,"ax",%progbits
Default_Handler:
Infinite_Loop:
  b  Infinite_Loop
 8000e40:	e7fe      	b.n	8000e40 <ADC_IRQHandler>

08000e42 <HAL_Init>:
  *         need to ensure that the SysTick time base is always set to 1 millisecond
  *         to have correct HAL operation.
  * @retval HAL status
  */
HAL_StatusTypeDef HAL_Init(void)
{
 8000e42:	b580      	push	{r7, lr}
 8000e44:	af00      	add	r7, sp, #0
#if (PREFETCH_ENABLE != 0U)
  __HAL_FLASH_PREFETCH_BUFFER_ENABLE();
#endif /* PREFETCH_ENABLE */

  /* Set Interrupt Group Priority */
  HAL_NVIC_SetPriorityGrouping(NVIC_PRIORITYGROUP_4);
 8000e46:	2003      	movs	r0, #3
 8000e48:	f000 f94c 	bl	80010e4 <HAL_NVIC_SetPriorityGrouping>

  /* Use systick as time base source and configure 1ms tick (default clock after Reset is HSI) */
  HAL_InitTick(TICK_INT_PRIORITY);
 8000e4c:	2000      	movs	r0, #0
 8000e4e:	f000 f805 	bl	8000e5c <HAL_InitTick>

  /* Init the low level hardware */
  HAL_MspInit();
 8000e52:	f7ff fe89 	bl	8000b68 <HAL_MspInit>

  /* Return function status */
  return HAL_OK;
 8000e56:	2300      	movs	r3, #0
}
 8000e58:	4618      	mov	r0, r3
 8000e5a:	bd80      	pop	{r7, pc}

08000e5c <HAL_InitTick>:
  *       implementation  in user file.
  * @param TickPriority Tick interrupt priority.
  * @retval HAL status
  */
__weak HAL_StatusTypeDef HAL_InitTick(uint32_t TickPriority)
{
 8000e5c:	b580      	push	{r7, lr}
 8000e5e:	b082      	sub	sp, #8
 8000e60:	af00      	add	r7, sp, #0
 8000e62:	6078      	str	r0, [r7, #4]
  /* Configure the SysTick to have interrupt in 1ms time basis*/
  if (HAL_SYSTICK_Config(SystemCoreClock / (1000U / uwTickFreq)) > 0U)
 8000e64:	4b12      	ldr	r3, [pc, #72]	; (8000eb0 <HAL_InitTick+0x54>)
 8000e66:	681a      	ldr	r2, [r3, #0]
 8000e68:	4b12      	ldr	r3, [pc, #72]	; (8000eb4 <HAL_InitTick+0x58>)
 8000e6a:	781b      	ldrb	r3, [r3, #0]
 8000e6c:	4619      	mov	r1, r3
 8000e6e:	f44f 737a 	mov.w	r3, #1000	; 0x3e8
 8000e72:	fbb3 f3f1 	udiv	r3, r3, r1
 8000e76:	fbb2 f3f3 	udiv	r3, r2, r3
 8000e7a:	4618      	mov	r0, r3
 8000e7c:	f000 f967 	bl	800114e <HAL_SYSTICK_Config>
 8000e80:	4603      	mov	r3, r0
 8000e82:	2b00      	cmp	r3, #0
 8000e84:	d001      	beq.n	8000e8a <HAL_InitTick+0x2e>
  {
    return HAL_ERROR;
 8000e86:	2301      	movs	r3, #1
 8000e88:	e00e      	b.n	8000ea8 <HAL_InitTick+0x4c>
  }

  /* Configure the SysTick IRQ priority */
  if (TickPriority < (1UL << __NVIC_PRIO_BITS))
 8000e8a:	687b      	ldr	r3, [r7, #4]
 8000e8c:	2b0f      	cmp	r3, #15
 8000e8e:	d80a      	bhi.n	8000ea6 <HAL_InitTick+0x4a>
  {
    HAL_NVIC_SetPriority(SysTick_IRQn, TickPriority, 0U);
 8000e90:	2200      	movs	r2, #0
 8000e92:	6879      	ldr	r1, [r7, #4]
 8000e94:	f04f 30ff 	mov.w	r0, #4294967295
 8000e98:	f000 f92f 	bl	80010fa <HAL_NVIC_SetPriority>
    uwTickPrio = TickPriority;
 8000e9c:	4a06      	ldr	r2, [pc, #24]	; (8000eb8 <HAL_InitTick+0x5c>)
 8000e9e:	687b      	ldr	r3, [r7, #4]
 8000ea0:	6013      	str	r3, [r2, #0]
  {
    return HAL_ERROR;
  }

  /* Return function status */
  return HAL_OK;
 8000ea2:	2300      	movs	r3, #0
 8000ea4:	e000      	b.n	8000ea8 <HAL_InitTick+0x4c>
    return HAL_ERROR;
 8000ea6:	2301      	movs	r3, #1
}
 8000ea8:	4618      	mov	r0, r3
 8000eaa:	3708      	adds	r7, #8
 8000eac:	46bd      	mov	sp, r7
 8000eae:	bd80      	pop	{r7, pc}
 8000eb0:	20000000 	.word	0x20000000
 8000eb4:	20000008 	.word	0x20000008
 8000eb8:	20000004 	.word	0x20000004

08000ebc <HAL_IncTick>:
 * @note This function is declared as __weak to be overwritten in case of other 
  *      implementations in user file.
  * @retval None
  */
__weak void HAL_IncTick(void)
{
 8000ebc:	b480      	push	{r7}
 8000ebe:	af00      	add	r7, sp, #0
  uwTick += uwTickFreq;
 8000ec0:	4b06      	ldr	r3, [pc, #24]	; (8000edc <HAL_IncTick+0x20>)
 8000ec2:	781b      	ldrb	r3, [r3, #0]
 8000ec4:	461a      	mov	r2, r3
 8000ec6:	4b06      	ldr	r3, [pc, #24]	; (8000ee0 <HAL_IncTick+0x24>)
 8000ec8:	681b      	ldr	r3, [r3, #0]
 8000eca:	4413      	add	r3, r2
 8000ecc:	4a04      	ldr	r2, [pc, #16]	; (8000ee0 <HAL_IncTick+0x24>)
 8000ece:	6013      	str	r3, [r2, #0]
}
 8000ed0:	bf00      	nop
 8000ed2:	46bd      	mov	sp, r7
 8000ed4:	f85d 7b04 	ldr.w	r7, [sp], #4
 8000ed8:	4770      	bx	lr
 8000eda:	bf00      	nop
 8000edc:	20000008 	.word	0x20000008
 8000ee0:	2000028c 	.word	0x2000028c

08000ee4 <HAL_GetTick>:
  * @note This function is declared as __weak to be overwritten in case of other 
  *       implementations in user file.
  * @retval tick value
  */
__weak uint32_t HAL_GetTick(void)
{
 8000ee4:	b480      	push	{r7}
 8000ee6:	af00      	add	r7, sp, #0
  return uwTick;
 8000ee8:	4b03      	ldr	r3, [pc, #12]	; (8000ef8 <HAL_GetTick+0x14>)
 8000eea:	681b      	ldr	r3, [r3, #0]
}
 8000eec:	4618      	mov	r0, r3
 8000eee:	46bd      	mov	sp, r7
 8000ef0:	f85d 7b04 	ldr.w	r7, [sp], #4
 8000ef4:	4770      	bx	lr
 8000ef6:	bf00      	nop
 8000ef8:	2000028c 	.word	0x2000028c

08000efc <HAL_Delay>:
  *       implementations in user file.
  * @param Delay  specifies the delay time length, in milliseconds.
  * @retval None
  */
__weak void HAL_Delay(uint32_t Delay)
{
 8000efc:	b580      	push	{r7, lr}
 8000efe:	b084      	sub	sp, #16
 8000f00:	af00      	add	r7, sp, #0
 8000f02:	6078      	str	r0, [r7, #4]
  uint32_t tickstart = HAL_GetTick();
 8000f04:	f7ff ffee 	bl	8000ee4 <HAL_GetTick>
 8000f08:	60b8      	str	r0, [r7, #8]
  uint32_t wait = Delay;
 8000f0a:	687b      	ldr	r3, [r7, #4]
 8000f0c:	60fb      	str	r3, [r7, #12]

  /* Add a freq to guarantee minimum wait */
  if (wait < HAL_MAX_DELAY)
 8000f0e:	68fb      	ldr	r3, [r7, #12]
 8000f10:	f1b3 3fff 	cmp.w	r3, #4294967295
 8000f14:	d005      	beq.n	8000f22 <HAL_Delay+0x26>
  {
    wait += (uint32_t)(uwTickFreq);
 8000f16:	4b0a      	ldr	r3, [pc, #40]	; (8000f40 <HAL_Delay+0x44>)
 8000f18:	781b      	ldrb	r3, [r3, #0]
 8000f1a:	461a      	mov	r2, r3
 8000f1c:	68fb      	ldr	r3, [r7, #12]
 8000f1e:	4413      	add	r3, r2
 8000f20:	60fb      	str	r3, [r7, #12]
  }

  while ((HAL_GetTick() - tickstart) < wait)
 8000f22:	bf00      	nop
 8000f24:	f7ff ffde 	bl	8000ee4 <HAL_GetTick>
 8000f28:	4602      	mov	r2, r0
 8000f2a:	68bb      	ldr	r3, [r7, #8]
 8000f2c:	1ad3      	subs	r3, r2, r3
 8000f2e:	68fa      	ldr	r2, [r7, #12]
 8000f30:	429a      	cmp	r2, r3
 8000f32:	d8f7      	bhi.n	8000f24 <HAL_Delay+0x28>
  {
  }
}
 8000f34:	bf00      	nop
 8000f36:	bf00      	nop
 8000f38:	3710      	adds	r7, #16
 8000f3a:	46bd      	mov	sp, r7
 8000f3c:	bd80      	pop	{r7, pc}
 8000f3e:	bf00      	nop
 8000f40:	20000008 	.word	0x20000008

08000f44 <__NVIC_SetPriorityGrouping>:
           In case of a conflict between priority grouping and available
           priority bits (__NVIC_PRIO_BITS), the smallest possible priority group is set.
  \param [in]      PriorityGroup  Priority grouping field.
 */
__STATIC_INLINE void __NVIC_SetPriorityGrouping(uint32_t PriorityGroup)
{
 8000f44:	b480      	push	{r7}
 8000f46:	b085      	sub	sp, #20
 8000f48:	af00      	add	r7, sp, #0
 8000f4a:	6078      	str	r0, [r7, #4]
  uint32_t reg_value;
  uint32_t PriorityGroupTmp = (PriorityGroup & (uint32_t)0x07UL);             /* only values 0..7 are used          */
 8000f4c:	687b      	ldr	r3, [r7, #4]
 8000f4e:	f003 0307 	and.w	r3, r3, #7
 8000f52:	60fb      	str	r3, [r7, #12]

  reg_value  =  SCB->AIRCR;                                                   /* read old register configuration    */
 8000f54:	4b0b      	ldr	r3, [pc, #44]	; (8000f84 <__NVIC_SetPriorityGrouping+0x40>)
 8000f56:	68db      	ldr	r3, [r3, #12]
 8000f58:	60bb      	str	r3, [r7, #8]
  reg_value &= ~((uint32_t)(SCB_AIRCR_VECTKEY_Msk | SCB_AIRCR_PRIGROUP_Msk)); /* clear bits to change               */
 8000f5a:	68ba      	ldr	r2, [r7, #8]
 8000f5c:	f64f 03ff 	movw	r3, #63743	; 0xf8ff
 8000f60:	4013      	ands	r3, r2
 8000f62:	60bb      	str	r3, [r7, #8]
  reg_value  =  (reg_value                                   |
                ((uint32_t)0x5FAUL << SCB_AIRCR_VECTKEY_Pos) |
                (PriorityGroupTmp << SCB_AIRCR_PRIGROUP_Pos)  );              /* Insert write key and priority group */
 8000f64:	68fb      	ldr	r3, [r7, #12]
 8000f66:	021a      	lsls	r2, r3, #8
                ((uint32_t)0x5FAUL << SCB_AIRCR_VECTKEY_Pos) |
 8000f68:	68bb      	ldr	r3, [r7, #8]
 8000f6a:	431a      	orrs	r2, r3
  reg_value  =  (reg_value                                   |
 8000f6c:	4b06      	ldr	r3, [pc, #24]	; (8000f88 <__NVIC_SetPriorityGrouping+0x44>)
 8000f6e:	4313      	orrs	r3, r2
 8000f70:	60bb      	str	r3, [r7, #8]
  SCB->AIRCR =  reg_value;
 8000f72:	4a04      	ldr	r2, [pc, #16]	; (8000f84 <__NVIC_SetPriorityGrouping+0x40>)
 8000f74:	68bb      	ldr	r3, [r7, #8]
 8000f76:	60d3      	str	r3, [r2, #12]
}
 8000f78:	bf00      	nop
 8000f7a:	3714      	adds	r7, #20
 8000f7c:	46bd      	mov	sp, r7
 8000f7e:	f85d 7b04 	ldr.w	r7, [sp], #4
 8000f82:	4770      	bx	lr
 8000f84:	e000ed00 	.word	0xe000ed00
 8000f88:	05fa0000 	.word	0x05fa0000

08000f8c <__NVIC_GetPriorityGrouping>:
  \brief   Get Priority Grouping
  \details Reads the priority grouping field from the NVIC Interrupt Controller.
  \return                Priority grouping field (SCB->AIRCR [10:8] PRIGROUP field).
 */
__STATIC_INLINE uint32_t __NVIC_GetPriorityGrouping(void)
{
 8000f8c:	b480      	push	{r7}
 8000f8e:	af00      	add	r7, sp, #0
  return ((uint32_t)((SCB->AIRCR & SCB_AIRCR_PRIGROUP_Msk) >> SCB_AIRCR_PRIGROUP_Pos));
 8000f90:	4b04      	ldr	r3, [pc, #16]	; (8000fa4 <__NVIC_GetPriorityGrouping+0x18>)
 8000f92:	68db      	ldr	r3, [r3, #12]
 8000f94:	0a1b      	lsrs	r3, r3, #8
 8000f96:	f003 0307 	and.w	r3, r3, #7
}
 8000f9a:	4618      	mov	r0, r3
 8000f9c:	46bd      	mov	sp, r7
 8000f9e:	f85d 7b04 	ldr.w	r7, [sp], #4
 8000fa2:	4770      	bx	lr
 8000fa4:	e000ed00 	.word	0xe000ed00

08000fa8 <__NVIC_EnableIRQ>:
  \details Enables a device specific interrupt in the NVIC interrupt controller.
  \param [in]      IRQn  Device specific interrupt number.
  \note    IRQn must not be negative.
 */
__STATIC_INLINE void __NVIC_EnableIRQ(IRQn_Type IRQn)
{
 8000fa8:	b480      	push	{r7}
 8000faa:	b083      	sub	sp, #12
 8000fac:	af00      	add	r7, sp, #0
 8000fae:	4603      	mov	r3, r0
 8000fb0:	71fb      	strb	r3, [r7, #7]
  if ((int32_t)(IRQn) >= 0)
 8000fb2:	f997 3007 	ldrsb.w	r3, [r7, #7]
 8000fb6:	2b00      	cmp	r3, #0
 8000fb8:	db0b      	blt.n	8000fd2 <__NVIC_EnableIRQ+0x2a>
  {
    NVIC->ISER[(((uint32_t)IRQn) >> 5UL)] = (uint32_t)(1UL << (((uint32_t)IRQn) & 0x1FUL));
 8000fba:	79fb      	ldrb	r3, [r7, #7]
 8000fbc:	f003 021f 	and.w	r2, r3, #31
 8000fc0:	4907      	ldr	r1, [pc, #28]	; (8000fe0 <__NVIC_EnableIRQ+0x38>)
 8000fc2:	f997 3007 	ldrsb.w	r3, [r7, #7]
 8000fc6:	095b      	lsrs	r3, r3, #5
 8000fc8:	2001      	movs	r0, #1
 8000fca:	fa00 f202 	lsl.w	r2, r0, r2
 8000fce:	f841 2023 	str.w	r2, [r1, r3, lsl #2]
  }
}
 8000fd2:	bf00      	nop
 8000fd4:	370c      	adds	r7, #12
 8000fd6:	46bd      	mov	sp, r7
 8000fd8:	f85d 7b04 	ldr.w	r7, [sp], #4
 8000fdc:	4770      	bx	lr
 8000fde:	bf00      	nop
 8000fe0:	e000e100 	.word	0xe000e100

08000fe4 <__NVIC_SetPriority>:
  \param [in]      IRQn  Interrupt number.
  \param [in]  priority  Priority to set.
  \note    The priority cannot be set for every processor exception.
 */
__STATIC_INLINE void __NVIC_SetPriority(IRQn_Type IRQn, uint32_t priority)
{
 8000fe4:	b480      	push	{r7}
 8000fe6:	b083      	sub	sp, #12
 8000fe8:	af00      	add	r7, sp, #0
 8000fea:	4603      	mov	r3, r0
 8000fec:	6039      	str	r1, [r7, #0]
 8000fee:	71fb      	strb	r3, [r7, #7]
  if ((int32_t)(IRQn) >= 0)
 8000ff0:	f997 3007 	ldrsb.w	r3, [r7, #7]
 8000ff4:	2b00      	cmp	r3, #0
 8000ff6:	db0a      	blt.n	800100e <__NVIC_SetPriority+0x2a>
  {
    NVIC->IP[((uint32_t)IRQn)]                = (uint8_t)((priority << (8U - __NVIC_PRIO_BITS)) & (uint32_t)0xFFUL);
 8000ff8:	683b      	ldr	r3, [r7, #0]
 8000ffa:	b2da      	uxtb	r2, r3
 8000ffc:	490c      	ldr	r1, [pc, #48]	; (8001030 <__NVIC_SetPriority+0x4c>)
 8000ffe:	f997 3007 	ldrsb.w	r3, [r7, #7]
 8001002:	0112      	lsls	r2, r2, #4
 8001004:	b2d2      	uxtb	r2, r2
 8001006:	440b      	add	r3, r1
 8001008:	f883 2300 	strb.w	r2, [r3, #768]	; 0x300
  }
  else
  {
    SCB->SHPR[(((uint32_t)IRQn) & 0xFUL)-4UL] = (uint8_t)((priority << (8U - __NVIC_PRIO_BITS)) & (uint32_t)0xFFUL);
  }
}
 800100c:	e00a      	b.n	8001024 <__NVIC_SetPriority+0x40>
    SCB->SHPR[(((uint32_t)IRQn) & 0xFUL)-4UL] = (uint8_t)((priority << (8U - __NVIC_PRIO_BITS)) & (uint32_t)0xFFUL);
 800100e:	683b      	ldr	r3, [r7, #0]
 8001010:	b2da      	uxtb	r2, r3
 8001012:	4908      	ldr	r1, [pc, #32]	; (8001034 <__NVIC_SetPriority+0x50>)
 8001014:	79fb      	ldrb	r3, [r7, #7]
 8001016:	f003 030f 	and.w	r3, r3, #15
 800101a:	3b04      	subs	r3, #4
 800101c:	0112      	lsls	r2, r2, #4
 800101e:	b2d2      	uxtb	r2, r2
 8001020:	440b      	add	r3, r1
 8001022:	761a      	strb	r2, [r3, #24]
}
 8001024:	bf00      	nop
 8001026:	370c      	adds	r7, #12
 8001028:	46bd      	mov	sp, r7
 800102a:	f85d 7b04 	ldr.w	r7, [sp], #4
 800102e:	4770      	bx	lr
 8001030:	e000e100 	.word	0xe000e100
 8001034:	e000ed00 	.word	0xe000ed00

08001038 <NVIC_EncodePriority>:
  \param [in]   PreemptPriority  Preemptive priority value (starting from 0).
  \param [in]       SubPriority  Subpriority value (starting from 0).
  \return                        Encoded priority. Value can be used in the function \ref NVIC_SetPriority().
 */
__STATIC_INLINE uint32_t NVIC_EncodePriority (uint32_t PriorityGroup, uint32_t PreemptPriority, uint32_t SubPriority)
{
 8001038:	b480      	push	{r7}
 800103a:	b089      	sub	sp, #36	; 0x24
 800103c:	af00      	add	r7, sp, #0
 800103e:	60f8      	str	r0, [r7, #12]
 8001040:	60b9      	str	r1, [r7, #8]
 8001042:	607a      	str	r2, [r7, #4]
  uint32_t PriorityGroupTmp = (PriorityGroup & (uint32_t)0x07UL);   /* only values 0..7 are used          */
 8001044:	68fb      	ldr	r3, [r7, #12]
 8001046:	f003 0307 	and.w	r3, r3, #7
 800104a:	61fb      	str	r3, [r7, #28]
  uint32_t PreemptPriorityBits;
  uint32_t SubPriorityBits;

  PreemptPriorityBits = ((7UL - PriorityGroupTmp) > (uint32_t)(__NVIC_PRIO_BITS)) ? (uint32_t)(__NVIC_PRIO_BITS) : (uint32_t)(7UL - PriorityGroupTmp);
 800104c:	69fb      	ldr	r3, [r7, #28]
 800104e:	f1c3 0307 	rsb	r3, r3, #7
 8001052:	2b04      	cmp	r3, #4
 8001054:	bf28      	it	cs
 8001056:	2304      	movcs	r3, #4
 8001058:	61bb      	str	r3, [r7, #24]
  SubPriorityBits     = ((PriorityGroupTmp + (uint32_t)(__NVIC_PRIO_BITS)) < (uint32_t)7UL) ? (uint32_t)0UL : (uint32_t)((PriorityGroupTmp - 7UL) + (uint32_t)(__NVIC_PRIO_BITS));
 800105a:	69fb      	ldr	r3, [r7, #28]
 800105c:	3304      	adds	r3, #4
 800105e:	2b06      	cmp	r3, #6
 8001060:	d902      	bls.n	8001068 <NVIC_EncodePriority+0x30>
 8001062:	69fb      	ldr	r3, [r7, #28]
 8001064:	3b03      	subs	r3, #3
 8001066:	e000      	b.n	800106a <NVIC_EncodePriority+0x32>
 8001068:	2300      	movs	r3, #0
 800106a:	617b      	str	r3, [r7, #20]

  return (
           ((PreemptPriority & (uint32_t)((1UL << (PreemptPriorityBits)) - 1UL)) << SubPriorityBits) |
 800106c:	f04f 32ff 	mov.w	r2, #4294967295
 8001070:	69bb      	ldr	r3, [r7, #24]
 8001072:	fa02 f303 	lsl.w	r3, r2, r3
 8001076:	43da      	mvns	r2, r3
 8001078:	68bb      	ldr	r3, [r7, #8]
 800107a:	401a      	ands	r2, r3
 800107c:	697b      	ldr	r3, [r7, #20]
 800107e:	409a      	lsls	r2, r3
           ((SubPriority     & (uint32_t)((1UL << (SubPriorityBits    )) - 1UL)))
 8001080:	f04f 31ff 	mov.w	r1, #4294967295
 8001084:	697b      	ldr	r3, [r7, #20]
 8001086:	fa01 f303 	lsl.w	r3, r1, r3
 800108a:	43d9      	mvns	r1, r3
 800108c:	687b      	ldr	r3, [r7, #4]
 800108e:	400b      	ands	r3, r1
           ((PreemptPriority & (uint32_t)((1UL << (PreemptPriorityBits)) - 1UL)) << SubPriorityBits) |
 8001090:	4313      	orrs	r3, r2
         );
}
 8001092:	4618      	mov	r0, r3
 8001094:	3724      	adds	r7, #36	; 0x24
 8001096:	46bd      	mov	sp, r7
 8001098:	f85d 7b04 	ldr.w	r7, [sp], #4
 800109c:	4770      	bx	lr
	...

080010a0 <SysTick_Config>:
  \note    When the variable <b>__Vendor_SysTickConfig</b> is set to 1, then the
           function <b>SysTick_Config</b> is not included. In this case, the file <b><i>device</i>.h</b>
           must contain a vendor-specific implementation of this function.
 */
__STATIC_INLINE uint32_t SysTick_Config(uint32_t ticks)
{
 80010a0:	b580      	push	{r7, lr}
 80010a2:	b082      	sub	sp, #8
 80010a4:	af00      	add	r7, sp, #0
 80010a6:	6078      	str	r0, [r7, #4]
  if ((ticks - 1UL) > SysTick_LOAD_RELOAD_Msk)
 80010a8:	687b      	ldr	r3, [r7, #4]
 80010aa:	3b01      	subs	r3, #1
 80010ac:	f1b3 7f80 	cmp.w	r3, #16777216	; 0x1000000
 80010b0:	d301      	bcc.n	80010b6 <SysTick_Config+0x16>
  {
    return (1UL);                                                   /* Reload value impossible */
 80010b2:	2301      	movs	r3, #1
 80010b4:	e00f      	b.n	80010d6 <SysTick_Config+0x36>
  }

  SysTick->LOAD  = (uint32_t)(ticks - 1UL);                         /* set reload register */
 80010b6:	4a0a      	ldr	r2, [pc, #40]	; (80010e0 <SysTick_Config+0x40>)
 80010b8:	687b      	ldr	r3, [r7, #4]
 80010ba:	3b01      	subs	r3, #1
 80010bc:	6053      	str	r3, [r2, #4]
  NVIC_SetPriority (SysTick_IRQn, (1UL << __NVIC_PRIO_BITS) - 1UL); /* set Priority for Systick Interrupt */
 80010be:	210f      	movs	r1, #15
 80010c0:	f04f 30ff 	mov.w	r0, #4294967295
 80010c4:	f7ff ff8e 	bl	8000fe4 <__NVIC_SetPriority>
  SysTick->VAL   = 0UL;                                             /* Load the SysTick Counter Value */
 80010c8:	4b05      	ldr	r3, [pc, #20]	; (80010e0 <SysTick_Config+0x40>)
 80010ca:	2200      	movs	r2, #0
 80010cc:	609a      	str	r2, [r3, #8]
  SysTick->CTRL  = SysTick_CTRL_CLKSOURCE_Msk |
 80010ce:	4b04      	ldr	r3, [pc, #16]	; (80010e0 <SysTick_Config+0x40>)
 80010d0:	2207      	movs	r2, #7
 80010d2:	601a      	str	r2, [r3, #0]
                   SysTick_CTRL_TICKINT_Msk   |
                   SysTick_CTRL_ENABLE_Msk;                         /* Enable SysTick IRQ and SysTick Timer */
  return (0UL);                                                     /* Function successful */
 80010d4:	2300      	movs	r3, #0
}
 80010d6:	4618      	mov	r0, r3
 80010d8:	3708      	adds	r7, #8
 80010da:	46bd      	mov	sp, r7
 80010dc:	bd80      	pop	{r7, pc}
 80010de:	bf00      	nop
 80010e0:	e000e010 	.word	0xe000e010

080010e4 <HAL_NVIC_SetPriorityGrouping>:
  * @note   When the NVIC_PriorityGroup_0 is selected, IRQ preemption is no more possible. 
  *         The pending IRQ priority will be managed only by the subpriority. 
  * @retval None
  */
void HAL_NVIC_SetPriorityGrouping(uint32_t PriorityGroup)
{
 80010e4:	b580      	push	{r7, lr}
 80010e6:	b082      	sub	sp, #8
 80010e8:	af00      	add	r7, sp, #0
 80010ea:	6078      	str	r0, [r7, #4]
  /* Check the parameters */
  assert_param(IS_NVIC_PRIORITY_GROUP(PriorityGroup));
  
  /* Set the PRIGROUP[10:8] bits according to the PriorityGroup parameter value */
  NVIC_SetPriorityGrouping(PriorityGroup);
 80010ec:	6878      	ldr	r0, [r7, #4]
 80010ee:	f7ff ff29 	bl	8000f44 <__NVIC_SetPriorityGrouping>
}
 80010f2:	bf00      	nop
 80010f4:	3708      	adds	r7, #8
 80010f6:	46bd      	mov	sp, r7
 80010f8:	bd80      	pop	{r7, pc}

080010fa <HAL_NVIC_SetPriority>:
  *         This parameter can be a value between 0 and 15
  *         A lower priority value indicates a higher priority.          
  * @retval None
  */
void HAL_NVIC_SetPriority(IRQn_Type IRQn, uint32_t PreemptPriority, uint32_t SubPriority)
{ 
 80010fa:	b580      	push	{r7, lr}
 80010fc:	b086      	sub	sp, #24
 80010fe:	af00      	add	r7, sp, #0
 8001100:	4603      	mov	r3, r0
 8001102:	60b9      	str	r1, [r7, #8]
 8001104:	607a      	str	r2, [r7, #4]
 8001106:	73fb      	strb	r3, [r7, #15]
  uint32_t prioritygroup = 0x00;
 8001108:	2300      	movs	r3, #0
 800110a:	617b      	str	r3, [r7, #20]
  
  /* Check the parameters */
  assert_param(IS_NVIC_SUB_PRIORITY(SubPriority));
  assert_param(IS_NVIC_PREEMPTION_PRIORITY(PreemptPriority));
  
  prioritygroup = NVIC_GetPriorityGrouping();
 800110c:	f7ff ff3e 	bl	8000f8c <__NVIC_GetPriorityGrouping>
 8001110:	6178      	str	r0, [r7, #20]
  
  NVIC_SetPriority(IRQn, NVIC_EncodePriority(prioritygroup, PreemptPriority, SubPriority));
 8001112:	687a      	ldr	r2, [r7, #4]
 8001114:	68b9      	ldr	r1, [r7, #8]
 8001116:	6978      	ldr	r0, [r7, #20]
 8001118:	f7ff ff8e 	bl	8001038 <NVIC_EncodePriority>
 800111c:	4602      	mov	r2, r0
 800111e:	f997 300f 	ldrsb.w	r3, [r7, #15]
 8001122:	4611      	mov	r1, r2
 8001124:	4618      	mov	r0, r3
 8001126:	f7ff ff5d 	bl	8000fe4 <__NVIC_SetPriority>
}
 800112a:	bf00      	nop
 800112c:	3718      	adds	r7, #24
 800112e:	46bd      	mov	sp, r7
 8001130:	bd80      	pop	{r7, pc}

08001132 <HAL_NVIC_EnableIRQ>:
  *         This parameter can be an enumerator of IRQn_Type enumeration
  *         (For the complete STM32 Devices IRQ Channels list, please refer to the appropriate CMSIS device file (stm32f7xxxx.h))
  * @retval None
  */
void HAL_NVIC_EnableIRQ(IRQn_Type IRQn)
{
 8001132:	b580      	push	{r7, lr}
 8001134:	b082      	sub	sp, #8
 8001136:	af00      	add	r7, sp, #0
 8001138:	4603      	mov	r3, r0
 800113a:	71fb      	strb	r3, [r7, #7]
  /* Check the parameters */
  assert_param(IS_NVIC_DEVICE_IRQ(IRQn));
  
  /* Enable interrupt */
  NVIC_EnableIRQ(IRQn);
 800113c:	f997 3007 	ldrsb.w	r3, [r7, #7]
 8001140:	4618      	mov	r0, r3
 8001142:	f7ff ff31 	bl	8000fa8 <__NVIC_EnableIRQ>
}
 8001146:	bf00      	nop
 8001148:	3708      	adds	r7, #8
 800114a:	46bd      	mov	sp, r7
 800114c:	bd80      	pop	{r7, pc}

0800114e <HAL_SYSTICK_Config>:
  * @param  TicksNumb Specifies the ticks Number of ticks between two interrupts.
  * @retval status:  - 0  Function succeeded.
  *                  - 1  Function failed.
  */
uint32_t HAL_SYSTICK_Config(uint32_t TicksNumb)
{
 800114e:	b580      	push	{r7, lr}
 8001150:	b082      	sub	sp, #8
 8001152:	af00      	add	r7, sp, #0
 8001154:	6078      	str	r0, [r7, #4]
   return SysTick_Config(TicksNumb);
 8001156:	6878      	ldr	r0, [r7, #4]
 8001158:	f7ff ffa2 	bl	80010a0 <SysTick_Config>
 800115c:	4603      	mov	r3, r0
}
 800115e:	4618      	mov	r0, r3
 8001160:	3708      	adds	r7, #8
 8001162:	46bd      	mov	sp, r7
 8001164:	bd80      	pop	{r7, pc}
	...

08001168 <HAL_GPIO_Init>:
  * @param  GPIO_Init pointer to a GPIO_InitTypeDef structure that contains
  *         the configuration information for the specified GPIO peripheral.
  * @retval None
  */
void HAL_GPIO_Init(GPIO_TypeDef  *GPIOx, GPIO_InitTypeDef *GPIO_Init)
{
 8001168:	b480      	push	{r7}
 800116a:	b089      	sub	sp, #36	; 0x24
 800116c:	af00      	add	r7, sp, #0
 800116e:	6078      	str	r0, [r7, #4]
 8001170:	6039      	str	r1, [r7, #0]
  uint32_t position = 0x00;
 8001172:	2300      	movs	r3, #0
 8001174:	61fb      	str	r3, [r7, #28]
  uint32_t ioposition = 0x00;
 8001176:	2300      	movs	r3, #0
 8001178:	617b      	str	r3, [r7, #20]
  uint32_t iocurrent = 0x00;
 800117a:	2300      	movs	r3, #0
 800117c:	613b      	str	r3, [r7, #16]
  uint32_t temp = 0x00;
 800117e:	2300      	movs	r3, #0
 8001180:	61bb      	str	r3, [r7, #24]
  assert_param(IS_GPIO_ALL_INSTANCE(GPIOx));
  assert_param(IS_GPIO_PIN(GPIO_Init->Pin));
  assert_param(IS_GPIO_MODE(GPIO_Init->Mode));

  /* Configure the port pins */
  for(position = 0; position < GPIO_NUMBER; position++)
 8001182:	2300      	movs	r3, #0
 8001184:	61fb      	str	r3, [r7, #28]
 8001186:	e175      	b.n	8001474 <HAL_GPIO_Init+0x30c>
  {
    /* Get the IO position */
    ioposition = ((uint32_t)0x01) << position;
 8001188:	2201      	movs	r2, #1
 800118a:	69fb      	ldr	r3, [r7, #28]
 800118c:	fa02 f303 	lsl.w	r3, r2, r3
 8001190:	617b      	str	r3, [r7, #20]
    /* Get the current IO position */
    iocurrent = (uint32_t)(GPIO_Init->Pin) & ioposition;
 8001192:	683b      	ldr	r3, [r7, #0]
 8001194:	681b      	ldr	r3, [r3, #0]
 8001196:	697a      	ldr	r2, [r7, #20]
 8001198:	4013      	ands	r3, r2
 800119a:	613b      	str	r3, [r7, #16]

    if(iocurrent == ioposition)
 800119c:	693a      	ldr	r2, [r7, #16]
 800119e:	697b      	ldr	r3, [r7, #20]
 80011a0:	429a      	cmp	r2, r3
 80011a2:	f040 8164 	bne.w	800146e <HAL_GPIO_Init+0x306>
    {
      /*--------------------- GPIO Mode Configuration ------------------------*/
      /* In case of Output or Alternate function mode selection */
      if(((GPIO_Init->Mode & GPIO_MODE) == MODE_OUTPUT) || ((GPIO_Init->Mode & GPIO_MODE) == MODE_AF))
 80011a6:	683b      	ldr	r3, [r7, #0]
 80011a8:	685b      	ldr	r3, [r3, #4]
 80011aa:	f003 0303 	and.w	r3, r3, #3
 80011ae:	2b01      	cmp	r3, #1
 80011b0:	d005      	beq.n	80011be <HAL_GPIO_Init+0x56>
 80011b2:	683b      	ldr	r3, [r7, #0]
 80011b4:	685b      	ldr	r3, [r3, #4]
 80011b6:	f003 0303 	and.w	r3, r3, #3
 80011ba:	2b02      	cmp	r3, #2
 80011bc:	d130      	bne.n	8001220 <HAL_GPIO_Init+0xb8>
      {
        /* Check the Speed parameter */
        assert_param(IS_GPIO_SPEED(GPIO_Init->Speed));
        /* Configure the IO Speed */
        temp = GPIOx->OSPEEDR; 
 80011be:	687b      	ldr	r3, [r7, #4]
 80011c0:	689b      	ldr	r3, [r3, #8]
 80011c2:	61bb      	str	r3, [r7, #24]
        temp &= ~(GPIO_OSPEEDER_OSPEEDR0 << (position * 2));
 80011c4:	69fb      	ldr	r3, [r7, #28]
 80011c6:	005b      	lsls	r3, r3, #1
 80011c8:	2203      	movs	r2, #3
 80011ca:	fa02 f303 	lsl.w	r3, r2, r3
 80011ce:	43db      	mvns	r3, r3
 80011d0:	69ba      	ldr	r2, [r7, #24]
 80011d2:	4013      	ands	r3, r2
 80011d4:	61bb      	str	r3, [r7, #24]
        temp |= (GPIO_Init->Speed << (position * 2));
 80011d6:	683b      	ldr	r3, [r7, #0]
 80011d8:	68da      	ldr	r2, [r3, #12]
 80011da:	69fb      	ldr	r3, [r7, #28]
 80011dc:	005b      	lsls	r3, r3, #1
 80011de:	fa02 f303 	lsl.w	r3, r2, r3
 80011e2:	69ba      	ldr	r2, [r7, #24]
 80011e4:	4313      	orrs	r3, r2
 80011e6:	61bb      	str	r3, [r7, #24]
        GPIOx->OSPEEDR = temp;
 80011e8:	687b      	ldr	r3, [r7, #4]
 80011ea:	69ba      	ldr	r2, [r7, #24]
 80011ec:	609a      	str	r2, [r3, #8]

        /* Configure the IO Output Type */
        temp = GPIOx->OTYPER;
 80011ee:	687b      	ldr	r3, [r7, #4]
 80011f0:	685b      	ldr	r3, [r3, #4]
 80011f2:	61bb      	str	r3, [r7, #24]
        temp &= ~(GPIO_OTYPER_OT_0 << position) ;
 80011f4:	2201      	movs	r2, #1
 80011f6:	69fb      	ldr	r3, [r7, #28]
 80011f8:	fa02 f303 	lsl.w	r3, r2, r3
 80011fc:	43db      	mvns	r3, r3
 80011fe:	69ba      	ldr	r2, [r7, #24]
 8001200:	4013      	ands	r3, r2
 8001202:	61bb      	str	r3, [r7, #24]
        temp |= (((GPIO_Init->Mode & OUTPUT_TYPE) >> OUTPUT_TYPE_Pos) << position);
 8001204:	683b      	ldr	r3, [r7, #0]
 8001206:	685b      	ldr	r3, [r3, #4]
 8001208:	091b      	lsrs	r3, r3, #4
 800120a:	f003 0201 	and.w	r2, r3, #1
 800120e:	69fb      	ldr	r3, [r7, #28]
 8001210:	fa02 f303 	lsl.w	r3, r2, r3
 8001214:	69ba      	ldr	r2, [r7, #24]
 8001216:	4313      	orrs	r3, r2
 8001218:	61bb      	str	r3, [r7, #24]
        GPIOx->OTYPER = temp;
 800121a:	687b      	ldr	r3, [r7, #4]
 800121c:	69ba      	ldr	r2, [r7, #24]
 800121e:	605a      	str	r2, [r3, #4]
      }
      
      if((GPIO_Init->Mode & GPIO_MODE) != MODE_ANALOG)
 8001220:	683b      	ldr	r3, [r7, #0]
 8001222:	685b      	ldr	r3, [r3, #4]
 8001224:	f003 0303 	and.w	r3, r3, #3
 8001228:	2b03      	cmp	r3, #3
 800122a:	d017      	beq.n	800125c <HAL_GPIO_Init+0xf4>
      {
        /* Check the Pull parameter */
        assert_param(IS_GPIO_PULL(GPIO_Init->Pull));

        /* Activate the Pull-up or Pull down resistor for the current IO */
        temp = GPIOx->PUPDR;
 800122c:	687b      	ldr	r3, [r7, #4]
 800122e:	68db      	ldr	r3, [r3, #12]
 8001230:	61bb      	str	r3, [r7, #24]
        temp &= ~(GPIO_PUPDR_PUPDR0 << (position * 2));
 8001232:	69fb      	ldr	r3, [r7, #28]
 8001234:	005b      	lsls	r3, r3, #1
 8001236:	2203      	movs	r2, #3
 8001238:	fa02 f303 	lsl.w	r3, r2, r3
 800123c:	43db      	mvns	r3, r3
 800123e:	69ba      	ldr	r2, [r7, #24]
 8001240:	4013      	ands	r3, r2
 8001242:	61bb      	str	r3, [r7, #24]
        temp |= ((GPIO_Init->Pull) << (position * 2));
 8001244:	683b      	ldr	r3, [r7, #0]
 8001246:	689a      	ldr	r2, [r3, #8]
 8001248:	69fb      	ldr	r3, [r7, #28]
 800124a:	005b      	lsls	r3, r3, #1
 800124c:	fa02 f303 	lsl.w	r3, r2, r3
 8001250:	69ba      	ldr	r2, [r7, #24]
 8001252:	4313      	orrs	r3, r2
 8001254:	61bb      	str	r3, [r7, #24]
        GPIOx->PUPDR = temp;
 8001256:	687b      	ldr	r3, [r7, #4]
 8001258:	69ba      	ldr	r2, [r7, #24]
 800125a:	60da      	str	r2, [r3, #12]
      }

      /* In case of Alternate function mode selection */
      if((GPIO_Init->Mode & GPIO_MODE) == MODE_AF)
 800125c:	683b      	ldr	r3, [r7, #0]
 800125e:	685b      	ldr	r3, [r3, #4]
 8001260:	f003 0303 	and.w	r3, r3, #3
 8001264:	2b02      	cmp	r3, #2
 8001266:	d123      	bne.n	80012b0 <HAL_GPIO_Init+0x148>
      {
        /* Check the Alternate function parameter */
        assert_param(IS_GPIO_AF(GPIO_Init->Alternate));

        /* Configure Alternate function mapped with the current IO */
        temp = GPIOx->AFR[position >> 3];
 8001268:	69fb      	ldr	r3, [r7, #28]
 800126a:	08da      	lsrs	r2, r3, #3
 800126c:	687b      	ldr	r3, [r7, #4]
 800126e:	3208      	adds	r2, #8
 8001270:	f853 3022 	ldr.w	r3, [r3, r2, lsl #2]
 8001274:	61bb      	str	r3, [r7, #24]
        temp &= ~((uint32_t)0xF << ((uint32_t)(position & (uint32_t)0x07) * 4)) ;
 8001276:	69fb      	ldr	r3, [r7, #28]
 8001278:	f003 0307 	and.w	r3, r3, #7
 800127c:	009b      	lsls	r3, r3, #2
 800127e:	220f      	movs	r2, #15
 8001280:	fa02 f303 	lsl.w	r3, r2, r3
 8001284:	43db      	mvns	r3, r3
 8001286:	69ba      	ldr	r2, [r7, #24]
 8001288:	4013      	ands	r3, r2
 800128a:	61bb      	str	r3, [r7, #24]
        temp |= ((uint32_t)(GPIO_Init->Alternate) << (((uint32_t)position & (uint32_t)0x07) * 4));
 800128c:	683b      	ldr	r3, [r7, #0]
 800128e:	691a      	ldr	r2, [r3, #16]
 8001290:	69fb      	ldr	r3, [r7, #28]
 8001292:	f003 0307 	and.w	r3, r3, #7
 8001296:	009b      	lsls	r3, r3, #2
 8001298:	fa02 f303 	lsl.w	r3, r2, r3
 800129c:	69ba      	ldr	r2, [r7, #24]
 800129e:	4313      	orrs	r3, r2
 80012a0:	61bb      	str	r3, [r7, #24]
        GPIOx->AFR[position >> 3] = temp;
 80012a2:	69fb      	ldr	r3, [r7, #28]
 80012a4:	08da      	lsrs	r2, r3, #3
 80012a6:	687b      	ldr	r3, [r7, #4]
 80012a8:	3208      	adds	r2, #8
 80012aa:	69b9      	ldr	r1, [r7, #24]
 80012ac:	f843 1022 	str.w	r1, [r3, r2, lsl #2]
      }
      
      /* Configure IO Direction mode (Input, Output, Alternate or Analog) */
      temp = GPIOx->MODER;
 80012b0:	687b      	ldr	r3, [r7, #4]
 80012b2:	681b      	ldr	r3, [r3, #0]
 80012b4:	61bb      	str	r3, [r7, #24]
      temp &= ~(GPIO_MODER_MODER0 << (position * 2));
 80012b6:	69fb      	ldr	r3, [r7, #28]
 80012b8:	005b      	lsls	r3, r3, #1
 80012ba:	2203      	movs	r2, #3
 80012bc:	fa02 f303 	lsl.w	r3, r2, r3
 80012c0:	43db      	mvns	r3, r3
 80012c2:	69ba      	ldr	r2, [r7, #24]
 80012c4:	4013      	ands	r3, r2
 80012c6:	61bb      	str	r3, [r7, #24]
      temp |= ((GPIO_Init->Mode & GPIO_MODE) << (position * 2));
 80012c8:	683b      	ldr	r3, [r7, #0]
 80012ca:	685b      	ldr	r3, [r3, #4]
 80012cc:	f003 0203 	and.w	r2, r3, #3
 80012d0:	69fb      	ldr	r3, [r7, #28]
 80012d2:	005b      	lsls	r3, r3, #1
 80012d4:	fa02 f303 	lsl.w	r3, r2, r3
 80012d8:	69ba      	ldr	r2, [r7, #24]
 80012da:	4313      	orrs	r3, r2
 80012dc:	61bb      	str	r3, [r7, #24]
      GPIOx->MODER = temp;
 80012de:	687b      	ldr	r3, [r7, #4]
 80012e0:	69ba      	ldr	r2, [r7, #24]
 80012e2:	601a      	str	r2, [r3, #0]

      /*--------------------- EXTI Mode Configuration ------------------------*/
      /* Configure the External Interrupt or event for the current IO */
      if((GPIO_Init->Mode & EXTI_MODE) != 0x00u)
 80012e4:	683b      	ldr	r3, [r7, #0]
 80012e6:	685b      	ldr	r3, [r3, #4]
 80012e8:	f403 3340 	and.w	r3, r3, #196608	; 0x30000
 80012ec:	2b00      	cmp	r3, #0
 80012ee:	f000 80be 	beq.w	800146e <HAL_GPIO_Init+0x306>
      {
        /* Enable SYSCFG Clock */
        __HAL_RCC_SYSCFG_CLK_ENABLE();
 80012f2:	4b66      	ldr	r3, [pc, #408]	; (800148c <HAL_GPIO_Init+0x324>)
 80012f4:	6c5b      	ldr	r3, [r3, #68]	; 0x44
 80012f6:	4a65      	ldr	r2, [pc, #404]	; (800148c <HAL_GPIO_Init+0x324>)
 80012f8:	f443 4380 	orr.w	r3, r3, #16384	; 0x4000
 80012fc:	6453      	str	r3, [r2, #68]	; 0x44
 80012fe:	4b63      	ldr	r3, [pc, #396]	; (800148c <HAL_GPIO_Init+0x324>)
 8001300:	6c5b      	ldr	r3, [r3, #68]	; 0x44
 8001302:	f403 4380 	and.w	r3, r3, #16384	; 0x4000
 8001306:	60fb      	str	r3, [r7, #12]
 8001308:	68fb      	ldr	r3, [r7, #12]

        temp = SYSCFG->EXTICR[position >> 2];
 800130a:	4a61      	ldr	r2, [pc, #388]	; (8001490 <HAL_GPIO_Init+0x328>)
 800130c:	69fb      	ldr	r3, [r7, #28]
 800130e:	089b      	lsrs	r3, r3, #2
 8001310:	3302      	adds	r3, #2
 8001312:	f852 3023 	ldr.w	r3, [r2, r3, lsl #2]
 8001316:	61bb      	str	r3, [r7, #24]
        temp &= ~(((uint32_t)0x0F) << (4 * (position & 0x03)));
 8001318:	69fb      	ldr	r3, [r7, #28]
 800131a:	f003 0303 	and.w	r3, r3, #3
 800131e:	009b      	lsls	r3, r3, #2
 8001320:	220f      	movs	r2, #15
 8001322:	fa02 f303 	lsl.w	r3, r2, r3
 8001326:	43db      	mvns	r3, r3
 8001328:	69ba      	ldr	r2, [r7, #24]
 800132a:	4013      	ands	r3, r2
 800132c:	61bb      	str	r3, [r7, #24]
        temp |= ((uint32_t)(GPIO_GET_INDEX(GPIOx)) << (4 * (position & 0x03)));
 800132e:	687b      	ldr	r3, [r7, #4]
 8001330:	4a58      	ldr	r2, [pc, #352]	; (8001494 <HAL_GPIO_Init+0x32c>)
 8001332:	4293      	cmp	r3, r2
 8001334:	d037      	beq.n	80013a6 <HAL_GPIO_Init+0x23e>
 8001336:	687b      	ldr	r3, [r7, #4]
 8001338:	4a57      	ldr	r2, [pc, #348]	; (8001498 <HAL_GPIO_Init+0x330>)
 800133a:	4293      	cmp	r3, r2
 800133c:	d031      	beq.n	80013a2 <HAL_GPIO_Init+0x23a>
 800133e:	687b      	ldr	r3, [r7, #4]
 8001340:	4a56      	ldr	r2, [pc, #344]	; (800149c <HAL_GPIO_Init+0x334>)
 8001342:	4293      	cmp	r3, r2
 8001344:	d02b      	beq.n	800139e <HAL_GPIO_Init+0x236>
 8001346:	687b      	ldr	r3, [r7, #4]
 8001348:	4a55      	ldr	r2, [pc, #340]	; (80014a0 <HAL_GPIO_Init+0x338>)
 800134a:	4293      	cmp	r3, r2
 800134c:	d025      	beq.n	800139a <HAL_GPIO_Init+0x232>
 800134e:	687b      	ldr	r3, [r7, #4]
 8001350:	4a54      	ldr	r2, [pc, #336]	; (80014a4 <HAL_GPIO_Init+0x33c>)
 8001352:	4293      	cmp	r3, r2
 8001354:	d01f      	beq.n	8001396 <HAL_GPIO_Init+0x22e>
 8001356:	687b      	ldr	r3, [r7, #4]
 8001358:	4a53      	ldr	r2, [pc, #332]	; (80014a8 <HAL_GPIO_Init+0x340>)
 800135a:	4293      	cmp	r3, r2
 800135c:	d019      	beq.n	8001392 <HAL_GPIO_Init+0x22a>
 800135e:	687b      	ldr	r3, [r7, #4]
 8001360:	4a52      	ldr	r2, [pc, #328]	; (80014ac <HAL_GPIO_Init+0x344>)
 8001362:	4293      	cmp	r3, r2
 8001364:	d013      	beq.n	800138e <HAL_GPIO_Init+0x226>
 8001366:	687b      	ldr	r3, [r7, #4]
 8001368:	4a51      	ldr	r2, [pc, #324]	; (80014b0 <HAL_GPIO_Init+0x348>)
 800136a:	4293      	cmp	r3, r2
 800136c:	d00d      	beq.n	800138a <HAL_GPIO_Init+0x222>
 800136e:	687b      	ldr	r3, [r7, #4]
 8001370:	4a50      	ldr	r2, [pc, #320]	; (80014b4 <HAL_GPIO_Init+0x34c>)
 8001372:	4293      	cmp	r3, r2
 8001374:	d007      	beq.n	8001386 <HAL_GPIO_Init+0x21e>
 8001376:	687b      	ldr	r3, [r7, #4]
 8001378:	4a4f      	ldr	r2, [pc, #316]	; (80014b8 <HAL_GPIO_Init+0x350>)
 800137a:	4293      	cmp	r3, r2
 800137c:	d101      	bne.n	8001382 <HAL_GPIO_Init+0x21a>
 800137e:	2309      	movs	r3, #9
 8001380:	e012      	b.n	80013a8 <HAL_GPIO_Init+0x240>
 8001382:	230a      	movs	r3, #10
 8001384:	e010      	b.n	80013a8 <HAL_GPIO_Init+0x240>
 8001386:	2308      	movs	r3, #8
 8001388:	e00e      	b.n	80013a8 <HAL_GPIO_Init+0x240>
 800138a:	2307      	movs	r3, #7
 800138c:	e00c      	b.n	80013a8 <HAL_GPIO_Init+0x240>
 800138e:	2306      	movs	r3, #6
 8001390:	e00a      	b.n	80013a8 <HAL_GPIO_Init+0x240>
 8001392:	2305      	movs	r3, #5
 8001394:	e008      	b.n	80013a8 <HAL_GPIO_Init+0x240>
 8001396:	2304      	movs	r3, #4
 8001398:	e006      	b.n	80013a8 <HAL_GPIO_Init+0x240>
 800139a:	2303      	movs	r3, #3
 800139c:	e004      	b.n	80013a8 <HAL_GPIO_Init+0x240>
 800139e:	2302      	movs	r3, #2
 80013a0:	e002      	b.n	80013a8 <HAL_GPIO_Init+0x240>
 80013a2:	2301      	movs	r3, #1
 80013a4:	e000      	b.n	80013a8 <HAL_GPIO_Init+0x240>
 80013a6:	2300      	movs	r3, #0
 80013a8:	69fa      	ldr	r2, [r7, #28]
 80013aa:	f002 0203 	and.w	r2, r2, #3
 80013ae:	0092      	lsls	r2, r2, #2
 80013b0:	4093      	lsls	r3, r2
 80013b2:	69ba      	ldr	r2, [r7, #24]
 80013b4:	4313      	orrs	r3, r2
 80013b6:	61bb      	str	r3, [r7, #24]
        SYSCFG->EXTICR[position >> 2] = temp;
 80013b8:	4935      	ldr	r1, [pc, #212]	; (8001490 <HAL_GPIO_Init+0x328>)
 80013ba:	69fb      	ldr	r3, [r7, #28]
 80013bc:	089b      	lsrs	r3, r3, #2
 80013be:	3302      	adds	r3, #2
 80013c0:	69ba      	ldr	r2, [r7, #24]
 80013c2:	f841 2023 	str.w	r2, [r1, r3, lsl #2]

        /* Clear Rising Falling edge configuration */
        temp = EXTI->RTSR;
 80013c6:	4b3d      	ldr	r3, [pc, #244]	; (80014bc <HAL_GPIO_Init+0x354>)
 80013c8:	689b      	ldr	r3, [r3, #8]
 80013ca:	61bb      	str	r3, [r7, #24]
        temp &= ~((uint32_t)iocurrent);
 80013cc:	693b      	ldr	r3, [r7, #16]
 80013ce:	43db      	mvns	r3, r3
 80013d0:	69ba      	ldr	r2, [r7, #24]
 80013d2:	4013      	ands	r3, r2
 80013d4:	61bb      	str	r3, [r7, #24]
        if((GPIO_Init->Mode & TRIGGER_RISING) != 0x00u)
 80013d6:	683b      	ldr	r3, [r7, #0]
 80013d8:	685b      	ldr	r3, [r3, #4]
 80013da:	f403 1380 	and.w	r3, r3, #1048576	; 0x100000
 80013de:	2b00      	cmp	r3, #0
 80013e0:	d003      	beq.n	80013ea <HAL_GPIO_Init+0x282>
        {
          temp |= iocurrent;
 80013e2:	69ba      	ldr	r2, [r7, #24]
 80013e4:	693b      	ldr	r3, [r7, #16]
 80013e6:	4313      	orrs	r3, r2
 80013e8:	61bb      	str	r3, [r7, #24]
        }
        EXTI->RTSR = temp;
 80013ea:	4a34      	ldr	r2, [pc, #208]	; (80014bc <HAL_GPIO_Init+0x354>)
 80013ec:	69bb      	ldr	r3, [r7, #24]
 80013ee:	6093      	str	r3, [r2, #8]

        temp = EXTI->FTSR;
 80013f0:	4b32      	ldr	r3, [pc, #200]	; (80014bc <HAL_GPIO_Init+0x354>)
 80013f2:	68db      	ldr	r3, [r3, #12]
 80013f4:	61bb      	str	r3, [r7, #24]
        temp &= ~((uint32_t)iocurrent);
 80013f6:	693b      	ldr	r3, [r7, #16]
 80013f8:	43db      	mvns	r3, r3
 80013fa:	69ba      	ldr	r2, [r7, #24]
 80013fc:	4013      	ands	r3, r2
 80013fe:	61bb      	str	r3, [r7, #24]
        if((GPIO_Init->Mode & TRIGGER_FALLING) != 0x00u)
 8001400:	683b      	ldr	r3, [r7, #0]
 8001402:	685b      	ldr	r3, [r3, #4]
 8001404:	f403 1300 	and.w	r3, r3, #2097152	; 0x200000
 8001408:	2b00      	cmp	r3, #0
 800140a:	d003      	beq.n	8001414 <HAL_GPIO_Init+0x2ac>
        {
          temp |= iocurrent;
 800140c:	69ba      	ldr	r2, [r7, #24]
 800140e:	693b      	ldr	r3, [r7, #16]
 8001410:	4313      	orrs	r3, r2
 8001412:	61bb      	str	r3, [r7, #24]
        }
        EXTI->FTSR = temp;
 8001414:	4a29      	ldr	r2, [pc, #164]	; (80014bc <HAL_GPIO_Init+0x354>)
 8001416:	69bb      	ldr	r3, [r7, #24]
 8001418:	60d3      	str	r3, [r2, #12]

        temp = EXTI->EMR;
 800141a:	4b28      	ldr	r3, [pc, #160]	; (80014bc <HAL_GPIO_Init+0x354>)
 800141c:	685b      	ldr	r3, [r3, #4]
 800141e:	61bb      	str	r3, [r7, #24]
        temp &= ~((uint32_t)iocurrent);
 8001420:	693b      	ldr	r3, [r7, #16]
 8001422:	43db      	mvns	r3, r3
 8001424:	69ba      	ldr	r2, [r7, #24]
 8001426:	4013      	ands	r3, r2
 8001428:	61bb      	str	r3, [r7, #24]
        if((GPIO_Init->Mode & EXTI_EVT) != 0x00u)
 800142a:	683b      	ldr	r3, [r7, #0]
 800142c:	685b      	ldr	r3, [r3, #4]
 800142e:	f403 3300 	and.w	r3, r3, #131072	; 0x20000
 8001432:	2b00      	cmp	r3, #0
 8001434:	d003      	beq.n	800143e <HAL_GPIO_Init+0x2d6>
        {
          temp |= iocurrent;
 8001436:	69ba      	ldr	r2, [r7, #24]
 8001438:	693b      	ldr	r3, [r7, #16]
 800143a:	4313      	orrs	r3, r2
 800143c:	61bb      	str	r3, [r7, #24]
        }
        EXTI->EMR = temp;
 800143e:	4a1f      	ldr	r2, [pc, #124]	; (80014bc <HAL_GPIO_Init+0x354>)
 8001440:	69bb      	ldr	r3, [r7, #24]
 8001442:	6053      	str	r3, [r2, #4]

        /* Clear EXTI line configuration */
        temp = EXTI->IMR;
 8001444:	4b1d      	ldr	r3, [pc, #116]	; (80014bc <HAL_GPIO_Init+0x354>)
 8001446:	681b      	ldr	r3, [r3, #0]
 8001448:	61bb      	str	r3, [r7, #24]
        temp &= ~((uint32_t)iocurrent);
 800144a:	693b      	ldr	r3, [r7, #16]
 800144c:	43db      	mvns	r3, r3
 800144e:	69ba      	ldr	r2, [r7, #24]
 8001450:	4013      	ands	r3, r2
 8001452:	61bb      	str	r3, [r7, #24]
        if((GPIO_Init->Mode & EXTI_IT) != 0x00u)
 8001454:	683b      	ldr	r3, [r7, #0]
 8001456:	685b      	ldr	r3, [r3, #4]
 8001458:	f403 3380 	and.w	r3, r3, #65536	; 0x10000
 800145c:	2b00      	cmp	r3, #0
 800145e:	d003      	beq.n	8001468 <HAL_GPIO_Init+0x300>
        {
          temp |= iocurrent;
 8001460:	69ba      	ldr	r2, [r7, #24]
 8001462:	693b      	ldr	r3, [r7, #16]
 8001464:	4313      	orrs	r3, r2
 8001466:	61bb      	str	r3, [r7, #24]
        }
        EXTI->IMR = temp;
 8001468:	4a14      	ldr	r2, [pc, #80]	; (80014bc <HAL_GPIO_Init+0x354>)
 800146a:	69bb      	ldr	r3, [r7, #24]
 800146c:	6013      	str	r3, [r2, #0]
  for(position = 0; position < GPIO_NUMBER; position++)
 800146e:	69fb      	ldr	r3, [r7, #28]
 8001470:	3301      	adds	r3, #1
 8001472:	61fb      	str	r3, [r7, #28]
 8001474:	69fb      	ldr	r3, [r7, #28]
 8001476:	2b0f      	cmp	r3, #15
 8001478:	f67f ae86 	bls.w	8001188 <HAL_GPIO_Init+0x20>
      }
    }
  }
}
 800147c:	bf00      	nop
 800147e:	bf00      	nop
 8001480:	3724      	adds	r7, #36	; 0x24
 8001482:	46bd      	mov	sp, r7
 8001484:	f85d 7b04 	ldr.w	r7, [sp], #4
 8001488:	4770      	bx	lr
 800148a:	bf00      	nop
 800148c:	40023800 	.word	0x40023800
 8001490:	40013800 	.word	0x40013800
 8001494:	40020000 	.word	0x40020000
 8001498:	40020400 	.word	0x40020400
 800149c:	40020800 	.word	0x40020800
 80014a0:	40020c00 	.word	0x40020c00
 80014a4:	40021000 	.word	0x40021000
 80014a8:	40021400 	.word	0x40021400
 80014ac:	40021800 	.word	0x40021800
 80014b0:	40021c00 	.word	0x40021c00
 80014b4:	40022000 	.word	0x40022000
 80014b8:	40022400 	.word	0x40022400
 80014bc:	40013c00 	.word	0x40013c00

080014c0 <HAL_GPIO_ReadPin>:
  * @param  GPIO_Pin specifies the port bit to read.
  *         This parameter can be GPIO_PIN_x where x can be (0..15).
  * @retval The input port pin value.
  */
GPIO_PinState HAL_GPIO_ReadPin(GPIO_TypeDef* GPIOx, uint16_t GPIO_Pin)
{
 80014c0:	b480      	push	{r7}
 80014c2:	b085      	sub	sp, #20
 80014c4:	af00      	add	r7, sp, #0
 80014c6:	6078      	str	r0, [r7, #4]
 80014c8:	460b      	mov	r3, r1
 80014ca:	807b      	strh	r3, [r7, #2]
  GPIO_PinState bitstatus;

  /* Check the parameters */
  assert_param(IS_GPIO_PIN(GPIO_Pin));

  if((GPIOx->IDR & GPIO_Pin) != (uint32_t)GPIO_PIN_RESET)
 80014cc:	687b      	ldr	r3, [r7, #4]
 80014ce:	691a      	ldr	r2, [r3, #16]
 80014d0:	887b      	ldrh	r3, [r7, #2]
 80014d2:	4013      	ands	r3, r2
 80014d4:	2b00      	cmp	r3, #0
 80014d6:	d002      	beq.n	80014de <HAL_GPIO_ReadPin+0x1e>
  {
    bitstatus = GPIO_PIN_SET;
 80014d8:	2301      	movs	r3, #1
 80014da:	73fb      	strb	r3, [r7, #15]
 80014dc:	e001      	b.n	80014e2 <HAL_GPIO_ReadPin+0x22>
  }
  else
  {
    bitstatus = GPIO_PIN_RESET;
 80014de:	2300      	movs	r3, #0
 80014e0:	73fb      	strb	r3, [r7, #15]
  }
  return bitstatus;
 80014e2:	7bfb      	ldrb	r3, [r7, #15]
}
 80014e4:	4618      	mov	r0, r3
 80014e6:	3714      	adds	r7, #20
 80014e8:	46bd      	mov	sp, r7
 80014ea:	f85d 7b04 	ldr.w	r7, [sp], #4
 80014ee:	4770      	bx	lr

080014f0 <HAL_GPIO_WritePin>:
  *            @arg GPIO_PIN_RESET: to clear the port pin
  *            @arg GPIO_PIN_SET: to set the port pin
  * @retval None
  */
void HAL_GPIO_WritePin(GPIO_TypeDef* GPIOx, uint16_t GPIO_Pin, GPIO_PinState PinState)
{
 80014f0:	b480      	push	{r7}
 80014f2:	b083      	sub	sp, #12
 80014f4:	af00      	add	r7, sp, #0
 80014f6:	6078      	str	r0, [r7, #4]
 80014f8:	460b      	mov	r3, r1
 80014fa:	807b      	strh	r3, [r7, #2]
 80014fc:	4613      	mov	r3, r2
 80014fe:	707b      	strb	r3, [r7, #1]
  /* Check the parameters */
  assert_param(IS_GPIO_PIN(GPIO_Pin));
  assert_param(IS_GPIO_PIN_ACTION(PinState));

  if(PinState != GPIO_PIN_RESET)
 8001500:	787b      	ldrb	r3, [r7, #1]
 8001502:	2b00      	cmp	r3, #0
 8001504:	d003      	beq.n	800150e <HAL_GPIO_WritePin+0x1e>
  {
    GPIOx->BSRR = GPIO_Pin;
 8001506:	887a      	ldrh	r2, [r7, #2]
 8001508:	687b      	ldr	r3, [r7, #4]
 800150a:	619a      	str	r2, [r3, #24]
  }
  else
  {
    GPIOx->BSRR = (uint32_t)GPIO_Pin << 16;
  }
}
 800150c:	e003      	b.n	8001516 <HAL_GPIO_WritePin+0x26>
    GPIOx->BSRR = (uint32_t)GPIO_Pin << 16;
 800150e:	887b      	ldrh	r3, [r7, #2]
 8001510:	041a      	lsls	r2, r3, #16
 8001512:	687b      	ldr	r3, [r7, #4]
 8001514:	619a      	str	r2, [r3, #24]
}
 8001516:	bf00      	nop
 8001518:	370c      	adds	r7, #12
 800151a:	46bd      	mov	sp, r7
 800151c:	f85d 7b04 	ldr.w	r7, [sp], #4
 8001520:	4770      	bx	lr

08001522 <HAL_PCD_Init>:
  *         parameters in the PCD_InitTypeDef and initialize the associated handle.
  * @param  hpcd PCD handle
  * @retval HAL status
  */
HAL_StatusTypeDef HAL_PCD_Init(PCD_HandleTypeDef *hpcd)
{
 8001522:	b5f0      	push	{r4, r5, r6, r7, lr}
 8001524:	b08f      	sub	sp, #60	; 0x3c
 8001526:	af0a      	add	r7, sp, #40	; 0x28
 8001528:	6078      	str	r0, [r7, #4]
  USB_OTG_GlobalTypeDef *USBx;
  uint8_t i;

  /* Check the PCD handle allocation */
  if (hpcd == NULL)
 800152a:	687b      	ldr	r3, [r7, #4]
 800152c:	2b00      	cmp	r3, #0
 800152e:	d101      	bne.n	8001534 <HAL_PCD_Init+0x12>
  {
    return HAL_ERROR;
 8001530:	2301      	movs	r3, #1
 8001532:	e116      	b.n	8001762 <HAL_PCD_Init+0x240>
  }

  /* Check the parameters */
  assert_param(IS_PCD_ALL_INSTANCE(hpcd->Instance));

  USBx = hpcd->Instance;
 8001534:	687b      	ldr	r3, [r7, #4]
 8001536:	681b      	ldr	r3, [r3, #0]
 8001538:	60bb      	str	r3, [r7, #8]

  if (hpcd->State == HAL_PCD_STATE_RESET)
 800153a:	687b      	ldr	r3, [r7, #4]
 800153c:	f893 34bd 	ldrb.w	r3, [r3, #1213]	; 0x4bd
 8001540:	b2db      	uxtb	r3, r3
 8001542:	2b00      	cmp	r3, #0
 8001544:	d106      	bne.n	8001554 <HAL_PCD_Init+0x32>
  {
    /* Allocate lock resource and initialize it */
    hpcd->Lock = HAL_UNLOCKED;
 8001546:	687b      	ldr	r3, [r7, #4]
 8001548:	2200      	movs	r2, #0
 800154a:	f883 24bc 	strb.w	r2, [r3, #1212]	; 0x4bc

    /* Init the low level hardware */
    hpcd->MspInitCallback(hpcd);
#else
    /* Init the low level hardware : GPIO, CLOCK, NVIC... */
    HAL_PCD_MspInit(hpcd);
 800154e:	6878      	ldr	r0, [r7, #4]
 8001550:	f006 fdc4 	bl	80080dc <HAL_PCD_MspInit>
#endif /* (USE_HAL_PCD_REGISTER_CALLBACKS) */
  }

  hpcd->State = HAL_PCD_STATE_BUSY;
 8001554:	687b      	ldr	r3, [r7, #4]
 8001556:	2203      	movs	r2, #3
 8001558:	f883 24bd 	strb.w	r2, [r3, #1213]	; 0x4bd

  /* Disable DMA mode for FS instance */
  if ((USBx->CID & (0x1U << 8)) == 0U)
 800155c:	68bb      	ldr	r3, [r7, #8]
 800155e:	6bdb      	ldr	r3, [r3, #60]	; 0x3c
 8001560:	f403 7380 	and.w	r3, r3, #256	; 0x100
 8001564:	2b00      	cmp	r3, #0
 8001566:	d102      	bne.n	800156e <HAL_PCD_Init+0x4c>
  {
    hpcd->Init.dma_enable = 0U;
 8001568:	687b      	ldr	r3, [r7, #4]
 800156a:	2200      	movs	r2, #0
 800156c:	611a      	str	r2, [r3, #16]
  }

  /* Disable the Interrupts */
  __HAL_PCD_DISABLE(hpcd);
 800156e:	687b      	ldr	r3, [r7, #4]
 8001570:	681b      	ldr	r3, [r3, #0]
 8001572:	4618      	mov	r0, r3
 8001574:	f003 fbcd 	bl	8004d12 <USB_DisableGlobalInt>

  /*Init the Core (common init.) */
  if (USB_CoreInit(hpcd->Instance, hpcd->Init) != HAL_OK)
 8001578:	687b      	ldr	r3, [r7, #4]
 800157a:	681b      	ldr	r3, [r3, #0]
 800157c:	603b      	str	r3, [r7, #0]
 800157e:	687e      	ldr	r6, [r7, #4]
 8001580:	466d      	mov	r5, sp
 8001582:	f106 0410 	add.w	r4, r6, #16
 8001586:	cc0f      	ldmia	r4!, {r0, r1, r2, r3}
 8001588:	c50f      	stmia	r5!, {r0, r1, r2, r3}
 800158a:	cc0f      	ldmia	r4!, {r0, r1, r2, r3}
 800158c:	c50f      	stmia	r5!, {r0, r1, r2, r3}
 800158e:	e894 0003 	ldmia.w	r4, {r0, r1}
 8001592:	e885 0003 	stmia.w	r5, {r0, r1}
 8001596:	1d33      	adds	r3, r6, #4
 8001598:	cb0e      	ldmia	r3, {r1, r2, r3}
 800159a:	6838      	ldr	r0, [r7, #0]
 800159c:	f003 faae 	bl	8004afc <USB_CoreInit>
 80015a0:	4603      	mov	r3, r0
 80015a2:	2b00      	cmp	r3, #0
 80015a4:	d005      	beq.n	80015b2 <HAL_PCD_Init+0x90>
  {
    hpcd->State = HAL_PCD_STATE_ERROR;
 80015a6:	687b      	ldr	r3, [r7, #4]
 80015a8:	2202      	movs	r2, #2
 80015aa:	f883 24bd 	strb.w	r2, [r3, #1213]	; 0x4bd
    return HAL_ERROR;
 80015ae:	2301      	movs	r3, #1
 80015b0:	e0d7      	b.n	8001762 <HAL_PCD_Init+0x240>
  }

  /* Force Device Mode*/
  (void)USB_SetCurrentMode(hpcd->Instance, USB_DEVICE_MODE);
 80015b2:	687b      	ldr	r3, [r7, #4]
 80015b4:	681b      	ldr	r3, [r3, #0]
 80015b6:	2100      	movs	r1, #0
 80015b8:	4618      	mov	r0, r3
 80015ba:	f003 fbbb 	bl	8004d34 <USB_SetCurrentMode>

  /* Init endpoints structures */
  for (i = 0U; i < hpcd->Init.dev_endpoints; i++)
 80015be:	2300      	movs	r3, #0
 80015c0:	73fb      	strb	r3, [r7, #15]
 80015c2:	e04a      	b.n	800165a <HAL_PCD_Init+0x138>
  {
    /* Init ep structure */
    hpcd->IN_ep[i].is_in = 1U;
 80015c4:	7bfa      	ldrb	r2, [r7, #15]
 80015c6:	6879      	ldr	r1, [r7, #4]
 80015c8:	4613      	mov	r3, r2
 80015ca:	00db      	lsls	r3, r3, #3
 80015cc:	4413      	add	r3, r2
 80015ce:	009b      	lsls	r3, r3, #2
 80015d0:	440b      	add	r3, r1
 80015d2:	333d      	adds	r3, #61	; 0x3d
 80015d4:	2201      	movs	r2, #1
 80015d6:	701a      	strb	r2, [r3, #0]
    hpcd->IN_ep[i].num = i;
 80015d8:	7bfa      	ldrb	r2, [r7, #15]
 80015da:	6879      	ldr	r1, [r7, #4]
 80015dc:	4613      	mov	r3, r2
 80015de:	00db      	lsls	r3, r3, #3
 80015e0:	4413      	add	r3, r2
 80015e2:	009b      	lsls	r3, r3, #2
 80015e4:	440b      	add	r3, r1
 80015e6:	333c      	adds	r3, #60	; 0x3c
 80015e8:	7bfa      	ldrb	r2, [r7, #15]
 80015ea:	701a      	strb	r2, [r3, #0]
    hpcd->IN_ep[i].tx_fifo_num = i;
 80015ec:	7bfa      	ldrb	r2, [r7, #15]
 80015ee:	7bfb      	ldrb	r3, [r7, #15]
 80015f0:	b298      	uxth	r0, r3
 80015f2:	6879      	ldr	r1, [r7, #4]
 80015f4:	4613      	mov	r3, r2
 80015f6:	00db      	lsls	r3, r3, #3
 80015f8:	4413      	add	r3, r2
 80015fa:	009b      	lsls	r3, r3, #2
 80015fc:	440b      	add	r3, r1
 80015fe:	3344      	adds	r3, #68	; 0x44
 8001600:	4602      	mov	r2, r0
 8001602:	801a      	strh	r2, [r3, #0]
    /* Control until ep is activated */
    hpcd->IN_ep[i].type = EP_TYPE_CTRL;
 8001604:	7bfa      	ldrb	r2, [r7, #15]
 8001606:	6879      	ldr	r1, [r7, #4]
 8001608:	4613      	mov	r3, r2
 800160a:	00db      	lsls	r3, r3, #3
 800160c:	4413      	add	r3, r2
 800160e:	009b      	lsls	r3, r3, #2
 8001610:	440b      	add	r3, r1
 8001612:	3340      	adds	r3, #64	; 0x40
 8001614:	2200      	movs	r2, #0
 8001616:	701a      	strb	r2, [r3, #0]
    hpcd->IN_ep[i].maxpacket = 0U;
 8001618:	7bfa      	ldrb	r2, [r7, #15]
 800161a:	6879      	ldr	r1, [r7, #4]
 800161c:	4613      	mov	r3, r2
 800161e:	00db      	lsls	r3, r3, #3
 8001620:	4413      	add	r3, r2
 8001622:	009b      	lsls	r3, r3, #2
 8001624:	440b      	add	r3, r1
 8001626:	3348      	adds	r3, #72	; 0x48
 8001628:	2200      	movs	r2, #0
 800162a:	601a      	str	r2, [r3, #0]
    hpcd->IN_ep[i].xfer_buff = 0U;
 800162c:	7bfa      	ldrb	r2, [r7, #15]
 800162e:	6879      	ldr	r1, [r7, #4]
 8001630:	4613      	mov	r3, r2
 8001632:	00db      	lsls	r3, r3, #3
 8001634:	4413      	add	r3, r2
 8001636:	009b      	lsls	r3, r3, #2
 8001638:	440b      	add	r3, r1
 800163a:	334c      	adds	r3, #76	; 0x4c
 800163c:	2200      	movs	r2, #0
 800163e:	601a      	str	r2, [r3, #0]
    hpcd->IN_ep[i].xfer_len = 0U;
 8001640:	7bfa      	ldrb	r2, [r7, #15]
 8001642:	6879      	ldr	r1, [r7, #4]
 8001644:	4613      	mov	r3, r2
 8001646:	00db      	lsls	r3, r3, #3
 8001648:	4413      	add	r3, r2
 800164a:	009b      	lsls	r3, r3, #2
 800164c:	440b      	add	r3, r1
 800164e:	3354      	adds	r3, #84	; 0x54
 8001650:	2200      	movs	r2, #0
 8001652:	601a      	str	r2, [r3, #0]
  for (i = 0U; i < hpcd->Init.dev_endpoints; i++)
 8001654:	7bfb      	ldrb	r3, [r7, #15]
 8001656:	3301      	adds	r3, #1
 8001658:	73fb      	strb	r3, [r7, #15]
 800165a:	7bfa      	ldrb	r2, [r7, #15]
 800165c:	687b      	ldr	r3, [r7, #4]
 800165e:	685b      	ldr	r3, [r3, #4]
 8001660:	429a      	cmp	r2, r3
 8001662:	d3af      	bcc.n	80015c4 <HAL_PCD_Init+0xa2>
  }

  for (i = 0U; i < hpcd->Init.dev_endpoints; i++)
 8001664:	2300      	movs	r3, #0
 8001666:	73fb      	strb	r3, [r7, #15]
 8001668:	e044      	b.n	80016f4 <HAL_PCD_Init+0x1d2>
  {
    hpcd->OUT_ep[i].is_in = 0U;
 800166a:	7bfa      	ldrb	r2, [r7, #15]
 800166c:	6879      	ldr	r1, [r7, #4]
 800166e:	4613      	mov	r3, r2
 8001670:	00db      	lsls	r3, r3, #3
 8001672:	4413      	add	r3, r2
 8001674:	009b      	lsls	r3, r3, #2
 8001676:	440b      	add	r3, r1
 8001678:	f203 237d 	addw	r3, r3, #637	; 0x27d
 800167c:	2200      	movs	r2, #0
 800167e:	701a      	strb	r2, [r3, #0]
    hpcd->OUT_ep[i].num = i;
 8001680:	7bfa      	ldrb	r2, [r7, #15]
 8001682:	6879      	ldr	r1, [r7, #4]
 8001684:	4613      	mov	r3, r2
 8001686:	00db      	lsls	r3, r3, #3
 8001688:	4413      	add	r3, r2
 800168a:	009b      	lsls	r3, r3, #2
 800168c:	440b      	add	r3, r1
 800168e:	f503 731f 	add.w	r3, r3, #636	; 0x27c
 8001692:	7bfa      	ldrb	r2, [r7, #15]
 8001694:	701a      	strb	r2, [r3, #0]
    /* Control until ep is activated */
    hpcd->OUT_ep[i].type = EP_TYPE_CTRL;
 8001696:	7bfa      	ldrb	r2, [r7, #15]
 8001698:	6879      	ldr	r1, [r7, #4]
 800169a:	4613      	mov	r3, r2
 800169c:	00db      	lsls	r3, r3, #3
 800169e:	4413      	add	r3, r2
 80016a0:	009b      	lsls	r3, r3, #2
 80016a2:	440b      	add	r3, r1
 80016a4:	f503 7320 	add.w	r3, r3, #640	; 0x280
 80016a8:	2200      	movs	r2, #0
 80016aa:	701a      	strb	r2, [r3, #0]
    hpcd->OUT_ep[i].maxpacket = 0U;
 80016ac:	7bfa      	ldrb	r2, [r7, #15]
 80016ae:	6879      	ldr	r1, [r7, #4]
 80016b0:	4613      	mov	r3, r2
 80016b2:	00db      	lsls	r3, r3, #3
 80016b4:	4413      	add	r3, r2
 80016b6:	009b      	lsls	r3, r3, #2
 80016b8:	440b      	add	r3, r1
 80016ba:	f503 7322 	add.w	r3, r3, #648	; 0x288
 80016be:	2200      	movs	r2, #0
 80016c0:	601a      	str	r2, [r3, #0]
    hpcd->OUT_ep[i].xfer_buff = 0U;
 80016c2:	7bfa      	ldrb	r2, [r7, #15]
 80016c4:	6879      	ldr	r1, [r7, #4]
 80016c6:	4613      	mov	r3, r2
 80016c8:	00db      	lsls	r3, r3, #3
 80016ca:	4413      	add	r3, r2
 80016cc:	009b      	lsls	r3, r3, #2
 80016ce:	440b      	add	r3, r1
 80016d0:	f503 7323 	add.w	r3, r3, #652	; 0x28c
 80016d4:	2200      	movs	r2, #0
 80016d6:	601a      	str	r2, [r3, #0]
    hpcd->OUT_ep[i].xfer_len = 0U;
 80016d8:	7bfa      	ldrb	r2, [r7, #15]
 80016da:	6879      	ldr	r1, [r7, #4]
 80016dc:	4613      	mov	r3, r2
 80016de:	00db      	lsls	r3, r3, #3
 80016e0:	4413      	add	r3, r2
 80016e2:	009b      	lsls	r3, r3, #2
 80016e4:	440b      	add	r3, r1
 80016e6:	f503 7325 	add.w	r3, r3, #660	; 0x294
 80016ea:	2200      	movs	r2, #0
 80016ec:	601a      	str	r2, [r3, #0]
  for (i = 0U; i < hpcd->Init.dev_endpoints; i++)
 80016ee:	7bfb      	ldrb	r3, [r7, #15]
 80016f0:	3301      	adds	r3, #1
 80016f2:	73fb      	strb	r3, [r7, #15]
 80016f4:	7bfa      	ldrb	r2, [r7, #15]
 80016f6:	687b      	ldr	r3, [r7, #4]
 80016f8:	685b      	ldr	r3, [r3, #4]
 80016fa:	429a      	cmp	r2, r3
 80016fc:	d3b5      	bcc.n	800166a <HAL_PCD_Init+0x148>
  }

  /* Init Device */
  if (USB_DevInit(hpcd->Instance, hpcd->Init) != HAL_OK)
 80016fe:	687b      	ldr	r3, [r7, #4]
 8001700:	681b      	ldr	r3, [r3, #0]
 8001702:	603b      	str	r3, [r7, #0]
 8001704:	687e      	ldr	r6, [r7, #4]
 8001706:	466d      	mov	r5, sp
 8001708:	f106 0410 	add.w	r4, r6, #16
 800170c:	cc0f      	ldmia	r4!, {r0, r1, r2, r3}
 800170e:	c50f      	stmia	r5!, {r0, r1, r2, r3}
 8001710:	cc0f      	ldmia	r4!, {r0, r1, r2, r3}
 8001712:	c50f      	stmia	r5!, {r0, r1, r2, r3}
 8001714:	e894 0003 	ldmia.w	r4, {r0, r1}
 8001718:	e885 0003 	stmia.w	r5, {r0, r1}
 800171c:	1d33      	adds	r3, r6, #4
 800171e:	cb0e      	ldmia	r3, {r1, r2, r3}
 8001720:	6838      	ldr	r0, [r7, #0]
 8001722:	f003 fb53 	bl	8004dcc <USB_DevInit>
 8001726:	4603      	mov	r3, r0
 8001728:	2b00      	cmp	r3, #0
 800172a:	d005      	beq.n	8001738 <HAL_PCD_Init+0x216>
  {
    hpcd->State = HAL_PCD_STATE_ERROR;
 800172c:	687b      	ldr	r3, [r7, #4]
 800172e:	2202      	movs	r2, #2
 8001730:	f883 24bd 	strb.w	r2, [r3, #1213]	; 0x4bd
    return HAL_ERROR;
 8001734:	2301      	movs	r3, #1
 8001736:	e014      	b.n	8001762 <HAL_PCD_Init+0x240>
  }

  hpcd->USB_Address = 0U;
 8001738:	687b      	ldr	r3, [r7, #4]
 800173a:	2200      	movs	r2, #0
 800173c:	f883 2038 	strb.w	r2, [r3, #56]	; 0x38
  hpcd->State = HAL_PCD_STATE_READY;
 8001740:	687b      	ldr	r3, [r7, #4]
 8001742:	2201      	movs	r2, #1
 8001744:	f883 24bd 	strb.w	r2, [r3, #1213]	; 0x4bd

  /* Activate LPM */
  if (hpcd->Init.lpm_enable == 1U)
 8001748:	687b      	ldr	r3, [r7, #4]
 800174a:	6a5b      	ldr	r3, [r3, #36]	; 0x24
 800174c:	2b01      	cmp	r3, #1
 800174e:	d102      	bne.n	8001756 <HAL_PCD_Init+0x234>
  {
    (void)HAL_PCDEx_ActivateLPM(hpcd);
 8001750:	6878      	ldr	r0, [r7, #4]
 8001752:	f001 f963 	bl	8002a1c <HAL_PCDEx_ActivateLPM>
  }

  (void)USB_DevDisconnect(hpcd->Instance);
 8001756:	687b      	ldr	r3, [r7, #4]
 8001758:	681b      	ldr	r3, [r3, #0]
 800175a:	4618      	mov	r0, r3
 800175c:	f004 fca1 	bl	80060a2 <USB_DevDisconnect>

  return HAL_OK;
 8001760:	2300      	movs	r3, #0
}
 8001762:	4618      	mov	r0, r3
 8001764:	3714      	adds	r7, #20
 8001766:	46bd      	mov	sp, r7
 8001768:	bdf0      	pop	{r4, r5, r6, r7, pc}

0800176a <HAL_PCD_Start>:
  * @brief  Start the USB device
  * @param  hpcd PCD handle
  * @retval HAL status
  */
HAL_StatusTypeDef HAL_PCD_Start(PCD_HandleTypeDef *hpcd)
{
 800176a:	b580      	push	{r7, lr}
 800176c:	b082      	sub	sp, #8
 800176e:	af00      	add	r7, sp, #0
 8001770:	6078      	str	r0, [r7, #4]
  __HAL_LOCK(hpcd);
 8001772:	687b      	ldr	r3, [r7, #4]
 8001774:	f893 34bc 	ldrb.w	r3, [r3, #1212]	; 0x4bc
 8001778:	2b01      	cmp	r3, #1
 800177a:	d101      	bne.n	8001780 <HAL_PCD_Start+0x16>
 800177c:	2302      	movs	r3, #2
 800177e:	e012      	b.n	80017a6 <HAL_PCD_Start+0x3c>
 8001780:	687b      	ldr	r3, [r7, #4]
 8001782:	2201      	movs	r2, #1
 8001784:	f883 24bc 	strb.w	r2, [r3, #1212]	; 0x4bc
  __HAL_PCD_ENABLE(hpcd);
 8001788:	687b      	ldr	r3, [r7, #4]
 800178a:	681b      	ldr	r3, [r3, #0]
 800178c:	4618      	mov	r0, r3
 800178e:	f003 faaf 	bl	8004cf0 <USB_EnableGlobalInt>
  (void)USB_DevConnect(hpcd->Instance);
 8001792:	687b      	ldr	r3, [r7, #4]
 8001794:	681b      	ldr	r3, [r3, #0]
 8001796:	4618      	mov	r0, r3
 8001798:	f004 fc62 	bl	8006060 <USB_DevConnect>
  __HAL_UNLOCK(hpcd);
 800179c:	687b      	ldr	r3, [r7, #4]
 800179e:	2200      	movs	r2, #0
 80017a0:	f883 24bc 	strb.w	r2, [r3, #1212]	; 0x4bc

  return HAL_OK;
 80017a4:	2300      	movs	r3, #0
}
 80017a6:	4618      	mov	r0, r3
 80017a8:	3708      	adds	r7, #8
 80017aa:	46bd      	mov	sp, r7
 80017ac:	bd80      	pop	{r7, pc}

080017ae <HAL_PCD_IRQHandler>:
  * @brief  Handles PCD interrupt request.
  * @param  hpcd PCD handle
  * @retval HAL status
  */
void HAL_PCD_IRQHandler(PCD_HandleTypeDef *hpcd)
{
 80017ae:	b590      	push	{r4, r7, lr}
 80017b0:	b08d      	sub	sp, #52	; 0x34
 80017b2:	af00      	add	r7, sp, #0
 80017b4:	6078      	str	r0, [r7, #4]
  USB_OTG_GlobalTypeDef *USBx = hpcd->Instance;
 80017b6:	687b      	ldr	r3, [r7, #4]
 80017b8:	681b      	ldr	r3, [r3, #0]
 80017ba:	623b      	str	r3, [r7, #32]
  uint32_t USBx_BASE = (uint32_t)USBx;
 80017bc:	6a3b      	ldr	r3, [r7, #32]
 80017be:	61fb      	str	r3, [r7, #28]
  uint32_t epnum;
  uint32_t fifoemptymsk;
  uint32_t RegVal;

  /* ensure that we are in device mode */
  if (USB_GetMode(hpcd->Instance) == USB_OTG_MODE_DEVICE)
 80017c0:	687b      	ldr	r3, [r7, #4]
 80017c2:	681b      	ldr	r3, [r3, #0]
 80017c4:	4618      	mov	r0, r3
 80017c6:	f004 fd20 	bl	800620a <USB_GetMode>
 80017ca:	4603      	mov	r3, r0
 80017cc:	2b00      	cmp	r3, #0
 80017ce:	f040 84b7 	bne.w	8002140 <HAL_PCD_IRQHandler+0x992>
  {
    /* avoid spurious interrupt */
    if (__HAL_PCD_IS_INVALID_INTERRUPT(hpcd))
 80017d2:	687b      	ldr	r3, [r7, #4]
 80017d4:	681b      	ldr	r3, [r3, #0]
 80017d6:	4618      	mov	r0, r3
 80017d8:	f004 fc84 	bl	80060e4 <USB_ReadInterrupts>
 80017dc:	4603      	mov	r3, r0
 80017de:	2b00      	cmp	r3, #0
 80017e0:	f000 84ad 	beq.w	800213e <HAL_PCD_IRQHandler+0x990>
    {
      return;
    }

    /* store current frame number */
    hpcd->FrameNumber = (USBx_DEVICE->DSTS & USB_OTG_DSTS_FNSOF_Msk) >> USB_OTG_DSTS_FNSOF_Pos;
 80017e4:	69fb      	ldr	r3, [r7, #28]
 80017e6:	f503 6300 	add.w	r3, r3, #2048	; 0x800
 80017ea:	689b      	ldr	r3, [r3, #8]
 80017ec:	0a1b      	lsrs	r3, r3, #8
 80017ee:	f3c3 020d 	ubfx	r2, r3, #0, #14
 80017f2:	687b      	ldr	r3, [r7, #4]
 80017f4:	f8c3 24fc 	str.w	r2, [r3, #1276]	; 0x4fc

    if (__HAL_PCD_GET_FLAG(hpcd, USB_OTG_GINTSTS_MMIS))
 80017f8:	687b      	ldr	r3, [r7, #4]
 80017fa:	681b      	ldr	r3, [r3, #0]
 80017fc:	4618      	mov	r0, r3
 80017fe:	f004 fc71 	bl	80060e4 <USB_ReadInterrupts>
 8001802:	4603      	mov	r3, r0
 8001804:	f003 0302 	and.w	r3, r3, #2
 8001808:	2b02      	cmp	r3, #2
 800180a:	d107      	bne.n	800181c <HAL_PCD_IRQHandler+0x6e>
    {
      /* incorrect mode, acknowledge the interrupt */
      __HAL_PCD_CLEAR_FLAG(hpcd, USB_OTG_GINTSTS_MMIS);
 800180c:	687b      	ldr	r3, [r7, #4]
 800180e:	681b      	ldr	r3, [r3, #0]
 8001810:	695a      	ldr	r2, [r3, #20]
 8001812:	687b      	ldr	r3, [r7, #4]
 8001814:	681b      	ldr	r3, [r3, #0]
 8001816:	f002 0202 	and.w	r2, r2, #2
 800181a:	615a      	str	r2, [r3, #20]
    }

    /* Handle RxQLevel Interrupt */
    if (__HAL_PCD_GET_FLAG(hpcd, USB_OTG_GINTSTS_RXFLVL))
 800181c:	687b      	ldr	r3, [r7, #4]
 800181e:	681b      	ldr	r3, [r3, #0]
 8001820:	4618      	mov	r0, r3
 8001822:	f004 fc5f 	bl	80060e4 <USB_ReadInterrupts>
 8001826:	4603      	mov	r3, r0
 8001828:	f003 0310 	and.w	r3, r3, #16
 800182c:	2b10      	cmp	r3, #16
 800182e:	d161      	bne.n	80018f4 <HAL_PCD_IRQHandler+0x146>
    {
      USB_MASK_INTERRUPT(hpcd->Instance, USB_OTG_GINTSTS_RXFLVL);
 8001830:	687b      	ldr	r3, [r7, #4]
 8001832:	681b      	ldr	r3, [r3, #0]
 8001834:	699a      	ldr	r2, [r3, #24]
 8001836:	687b      	ldr	r3, [r7, #4]
 8001838:	681b      	ldr	r3, [r3, #0]
 800183a:	f022 0210 	bic.w	r2, r2, #16
 800183e:	619a      	str	r2, [r3, #24]

      RegVal = USBx->GRXSTSP;
 8001840:	6a3b      	ldr	r3, [r7, #32]
 8001842:	6a1b      	ldr	r3, [r3, #32]
 8001844:	61bb      	str	r3, [r7, #24]

      ep = &hpcd->OUT_ep[RegVal & USB_OTG_GRXSTSP_EPNUM];
 8001846:	69bb      	ldr	r3, [r7, #24]
 8001848:	f003 020f 	and.w	r2, r3, #15
 800184c:	4613      	mov	r3, r2
 800184e:	00db      	lsls	r3, r3, #3
 8001850:	4413      	add	r3, r2
 8001852:	009b      	lsls	r3, r3, #2
 8001854:	f503 731e 	add.w	r3, r3, #632	; 0x278
 8001858:	687a      	ldr	r2, [r7, #4]
 800185a:	4413      	add	r3, r2
 800185c:	3304      	adds	r3, #4
 800185e:	617b      	str	r3, [r7, #20]

      if (((RegVal & USB_OTG_GRXSTSP_PKTSTS) >> 17) ==  STS_DATA_UPDT)
 8001860:	69bb      	ldr	r3, [r7, #24]
 8001862:	0c5b      	lsrs	r3, r3, #17
 8001864:	f003 030f 	and.w	r3, r3, #15
 8001868:	2b02      	cmp	r3, #2
 800186a:	d124      	bne.n	80018b6 <HAL_PCD_IRQHandler+0x108>
      {
        if ((RegVal & USB_OTG_GRXSTSP_BCNT) != 0U)
 800186c:	69ba      	ldr	r2, [r7, #24]
 800186e:	f647 73f0 	movw	r3, #32752	; 0x7ff0
 8001872:	4013      	ands	r3, r2
 8001874:	2b00      	cmp	r3, #0
 8001876:	d035      	beq.n	80018e4 <HAL_PCD_IRQHandler+0x136>
        {
          (void)USB_ReadPacket(USBx, ep->xfer_buff,
 8001878:	697b      	ldr	r3, [r7, #20]
 800187a:	6919      	ldr	r1, [r3, #16]
                               (uint16_t)((RegVal & USB_OTG_GRXSTSP_BCNT) >> 4));
 800187c:	69bb      	ldr	r3, [r7, #24]
 800187e:	091b      	lsrs	r3, r3, #4
 8001880:	b29b      	uxth	r3, r3
          (void)USB_ReadPacket(USBx, ep->xfer_buff,
 8001882:	f3c3 030a 	ubfx	r3, r3, #0, #11
 8001886:	b29b      	uxth	r3, r3
 8001888:	461a      	mov	r2, r3
 800188a:	6a38      	ldr	r0, [r7, #32]
 800188c:	f004 fa96 	bl	8005dbc <USB_ReadPacket>

          ep->xfer_buff += (RegVal & USB_OTG_GRXSTSP_BCNT) >> 4;
 8001890:	697b      	ldr	r3, [r7, #20]
 8001892:	691a      	ldr	r2, [r3, #16]
 8001894:	69bb      	ldr	r3, [r7, #24]
 8001896:	091b      	lsrs	r3, r3, #4
 8001898:	f3c3 030a 	ubfx	r3, r3, #0, #11
 800189c:	441a      	add	r2, r3
 800189e:	697b      	ldr	r3, [r7, #20]
 80018a0:	611a      	str	r2, [r3, #16]
          ep->xfer_count += (RegVal & USB_OTG_GRXSTSP_BCNT) >> 4;
 80018a2:	697b      	ldr	r3, [r7, #20]
 80018a4:	6a1a      	ldr	r2, [r3, #32]
 80018a6:	69bb      	ldr	r3, [r7, #24]
 80018a8:	091b      	lsrs	r3, r3, #4
 80018aa:	f3c3 030a 	ubfx	r3, r3, #0, #11
 80018ae:	441a      	add	r2, r3
 80018b0:	697b      	ldr	r3, [r7, #20]
 80018b2:	621a      	str	r2, [r3, #32]
 80018b4:	e016      	b.n	80018e4 <HAL_PCD_IRQHandler+0x136>
        }
      }
      else if (((RegVal & USB_OTG_GRXSTSP_PKTSTS) >> 17) == STS_SETUP_UPDT)
 80018b6:	69bb      	ldr	r3, [r7, #24]
 80018b8:	0c5b      	lsrs	r3, r3, #17
 80018ba:	f003 030f 	and.w	r3, r3, #15
 80018be:	2b06      	cmp	r3, #6
 80018c0:	d110      	bne.n	80018e4 <HAL_PCD_IRQHandler+0x136>
      {
        (void)USB_ReadPacket(USBx, (uint8_t *)hpcd->Setup, 8U);
 80018c2:	687b      	ldr	r3, [r7, #4]
 80018c4:	f203 43c4 	addw	r3, r3, #1220	; 0x4c4
 80018c8:	2208      	movs	r2, #8
 80018ca:	4619      	mov	r1, r3
 80018cc:	6a38      	ldr	r0, [r7, #32]
 80018ce:	f004 fa75 	bl	8005dbc <USB_ReadPacket>
        ep->xfer_count += (RegVal & USB_OTG_GRXSTSP_BCNT) >> 4;
 80018d2:	697b      	ldr	r3, [r7, #20]
 80018d4:	6a1a      	ldr	r2, [r3, #32]
 80018d6:	69bb      	ldr	r3, [r7, #24]
 80018d8:	091b      	lsrs	r3, r3, #4
 80018da:	f3c3 030a 	ubfx	r3, r3, #0, #11
 80018de:	441a      	add	r2, r3
 80018e0:	697b      	ldr	r3, [r7, #20]
 80018e2:	621a      	str	r2, [r3, #32]
      else
      {
        /* ... */
      }

      USB_UNMASK_INTERRUPT(hpcd->Instance, USB_OTG_GINTSTS_RXFLVL);
 80018e4:	687b      	ldr	r3, [r7, #4]
 80018e6:	681b      	ldr	r3, [r3, #0]
 80018e8:	699a      	ldr	r2, [r3, #24]
 80018ea:	687b      	ldr	r3, [r7, #4]
 80018ec:	681b      	ldr	r3, [r3, #0]
 80018ee:	f042 0210 	orr.w	r2, r2, #16
 80018f2:	619a      	str	r2, [r3, #24]
    }

    if (__HAL_PCD_GET_FLAG(hpcd, USB_OTG_GINTSTS_OEPINT))
 80018f4:	687b      	ldr	r3, [r7, #4]
 80018f6:	681b      	ldr	r3, [r3, #0]
 80018f8:	4618      	mov	r0, r3
 80018fa:	f004 fbf3 	bl	80060e4 <USB_ReadInterrupts>
 80018fe:	4603      	mov	r3, r0
 8001900:	f403 2300 	and.w	r3, r3, #524288	; 0x80000
 8001904:	f5b3 2f00 	cmp.w	r3, #524288	; 0x80000
 8001908:	f040 80a7 	bne.w	8001a5a <HAL_PCD_IRQHandler+0x2ac>
    {
      epnum = 0U;
 800190c:	2300      	movs	r3, #0
 800190e:	627b      	str	r3, [r7, #36]	; 0x24

      /* Read in the device interrupt bits */
      ep_intr = USB_ReadDevAllOutEpInterrupt(hpcd->Instance);
 8001910:	687b      	ldr	r3, [r7, #4]
 8001912:	681b      	ldr	r3, [r3, #0]
 8001914:	4618      	mov	r0, r3
 8001916:	f004 fbf8 	bl	800610a <USB_ReadDevAllOutEpInterrupt>
 800191a:	62b8      	str	r0, [r7, #40]	; 0x28

      while (ep_intr != 0U)
 800191c:	e099      	b.n	8001a52 <HAL_PCD_IRQHandler+0x2a4>
      {
        if ((ep_intr & 0x1U) != 0U)
 800191e:	6abb      	ldr	r3, [r7, #40]	; 0x28
 8001920:	f003 0301 	and.w	r3, r3, #1
 8001924:	2b00      	cmp	r3, #0
 8001926:	f000 808e 	beq.w	8001a46 <HAL_PCD_IRQHandler+0x298>
        {
          epint = USB_ReadDevOutEPInterrupt(hpcd->Instance, (uint8_t)epnum);
 800192a:	687b      	ldr	r3, [r7, #4]
 800192c:	681b      	ldr	r3, [r3, #0]
 800192e:	6a7a      	ldr	r2, [r7, #36]	; 0x24
 8001930:	b2d2      	uxtb	r2, r2
 8001932:	4611      	mov	r1, r2
 8001934:	4618      	mov	r0, r3
 8001936:	f004 fc1c 	bl	8006172 <USB_ReadDevOutEPInterrupt>
 800193a:	6138      	str	r0, [r7, #16]

          if ((epint & USB_OTG_DOEPINT_XFRC) == USB_OTG_DOEPINT_XFRC)
 800193c:	693b      	ldr	r3, [r7, #16]
 800193e:	f003 0301 	and.w	r3, r3, #1
 8001942:	2b00      	cmp	r3, #0
 8001944:	d00c      	beq.n	8001960 <HAL_PCD_IRQHandler+0x1b2>
          {
            CLEAR_OUT_EP_INTR(epnum, USB_OTG_DOEPINT_XFRC);
 8001946:	6a7b      	ldr	r3, [r7, #36]	; 0x24
 8001948:	015a      	lsls	r2, r3, #5
 800194a:	69fb      	ldr	r3, [r7, #28]
 800194c:	4413      	add	r3, r2
 800194e:	f503 6330 	add.w	r3, r3, #2816	; 0xb00
 8001952:	461a      	mov	r2, r3
 8001954:	2301      	movs	r3, #1
 8001956:	6093      	str	r3, [r2, #8]
            (void)PCD_EP_OutXfrComplete_int(hpcd, epnum);
 8001958:	6a79      	ldr	r1, [r7, #36]	; 0x24
 800195a:	6878      	ldr	r0, [r7, #4]
 800195c:	f000 fed8 	bl	8002710 <PCD_EP_OutXfrComplete_int>
          }

          if ((epint & USB_OTG_DOEPINT_STUP) == USB_OTG_DOEPINT_STUP)
 8001960:	693b      	ldr	r3, [r7, #16]
 8001962:	f003 0308 	and.w	r3, r3, #8
 8001966:	2b00      	cmp	r3, #0
 8001968:	d00c      	beq.n	8001984 <HAL_PCD_IRQHandler+0x1d6>
          {
            CLEAR_OUT_EP_INTR(epnum, USB_OTG_DOEPINT_STUP);
 800196a:	6a7b      	ldr	r3, [r7, #36]	; 0x24
 800196c:	015a      	lsls	r2, r3, #5
 800196e:	69fb      	ldr	r3, [r7, #28]
 8001970:	4413      	add	r3, r2
 8001972:	f503 6330 	add.w	r3, r3, #2816	; 0xb00
 8001976:	461a      	mov	r2, r3
 8001978:	2308      	movs	r3, #8
 800197a:	6093      	str	r3, [r2, #8]
            /* Class B setup phase done for previous decoded setup */
            (void)PCD_EP_OutSetupPacket_int(hpcd, epnum);
 800197c:	6a79      	ldr	r1, [r7, #36]	; 0x24
 800197e:	6878      	ldr	r0, [r7, #4]
 8001980:	f000 ffae 	bl	80028e0 <PCD_EP_OutSetupPacket_int>
          }

          if ((epint & USB_OTG_DOEPINT_OTEPDIS) == USB_OTG_DOEPINT_OTEPDIS)
 8001984:	693b      	ldr	r3, [r7, #16]
 8001986:	f003 0310 	and.w	r3, r3, #16
 800198a:	2b00      	cmp	r3, #0
 800198c:	d008      	beq.n	80019a0 <HAL_PCD_IRQHandler+0x1f2>
          {
            CLEAR_OUT_EP_INTR(epnum, USB_OTG_DOEPINT_OTEPDIS);
 800198e:	6a7b      	ldr	r3, [r7, #36]	; 0x24
 8001990:	015a      	lsls	r2, r3, #5
 8001992:	69fb      	ldr	r3, [r7, #28]
 8001994:	4413      	add	r3, r2
 8001996:	f503 6330 	add.w	r3, r3, #2816	; 0xb00
 800199a:	461a      	mov	r2, r3
 800199c:	2310      	movs	r3, #16
 800199e:	6093      	str	r3, [r2, #8]
          }

          /* Clear OUT Endpoint disable interrupt */
          if ((epint & USB_OTG_DOEPINT_EPDISD) == USB_OTG_DOEPINT_EPDISD)
 80019a0:	693b      	ldr	r3, [r7, #16]
 80019a2:	f003 0302 	and.w	r3, r3, #2
 80019a6:	2b00      	cmp	r3, #0
 80019a8:	d030      	beq.n	8001a0c <HAL_PCD_IRQHandler+0x25e>
          {
            if ((USBx->GINTSTS & USB_OTG_GINTSTS_BOUTNAKEFF) == USB_OTG_GINTSTS_BOUTNAKEFF)
 80019aa:	6a3b      	ldr	r3, [r7, #32]
 80019ac:	695b      	ldr	r3, [r3, #20]
 80019ae:	f003 0380 	and.w	r3, r3, #128	; 0x80
 80019b2:	2b80      	cmp	r3, #128	; 0x80
 80019b4:	d109      	bne.n	80019ca <HAL_PCD_IRQHandler+0x21c>
            {
              USBx_DEVICE->DCTL |= USB_OTG_DCTL_CGONAK;
 80019b6:	69fb      	ldr	r3, [r7, #28]
 80019b8:	f503 6300 	add.w	r3, r3, #2048	; 0x800
 80019bc:	685b      	ldr	r3, [r3, #4]
 80019be:	69fa      	ldr	r2, [r7, #28]
 80019c0:	f502 6200 	add.w	r2, r2, #2048	; 0x800
 80019c4:	f443 6380 	orr.w	r3, r3, #1024	; 0x400
 80019c8:	6053      	str	r3, [r2, #4]
            }

            ep = &hpcd->OUT_ep[epnum];
 80019ca:	6a7a      	ldr	r2, [r7, #36]	; 0x24
 80019cc:	4613      	mov	r3, r2
 80019ce:	00db      	lsls	r3, r3, #3
 80019d0:	4413      	add	r3, r2
 80019d2:	009b      	lsls	r3, r3, #2
 80019d4:	f503 731e 	add.w	r3, r3, #632	; 0x278
 80019d8:	687a      	ldr	r2, [r7, #4]
 80019da:	4413      	add	r3, r2
 80019dc:	3304      	adds	r3, #4
 80019de:	617b      	str	r3, [r7, #20]

            if (ep->is_iso_incomplete == 1U)
 80019e0:	697b      	ldr	r3, [r7, #20]
 80019e2:	78db      	ldrb	r3, [r3, #3]
 80019e4:	2b01      	cmp	r3, #1
 80019e6:	d108      	bne.n	80019fa <HAL_PCD_IRQHandler+0x24c>
            {
              ep->is_iso_incomplete = 0U;
 80019e8:	697b      	ldr	r3, [r7, #20]
 80019ea:	2200      	movs	r2, #0
 80019ec:	70da      	strb	r2, [r3, #3]

#if (USE_HAL_PCD_REGISTER_CALLBACKS == 1U)
              hpcd->ISOOUTIncompleteCallback(hpcd, (uint8_t)epnum);
#else
              HAL_PCD_ISOOUTIncompleteCallback(hpcd, (uint8_t)epnum);
 80019ee:	6a7b      	ldr	r3, [r7, #36]	; 0x24
 80019f0:	b2db      	uxtb	r3, r3
 80019f2:	4619      	mov	r1, r3
 80019f4:	6878      	ldr	r0, [r7, #4]
 80019f6:	f006 fca5 	bl	8008344 <HAL_PCD_ISOOUTIncompleteCallback>
#endif /* USE_HAL_PCD_REGISTER_CALLBACKS */
            }

            CLEAR_OUT_EP_INTR(epnum, USB_OTG_DOEPINT_EPDISD);
 80019fa:	6a7b      	ldr	r3, [r7, #36]	; 0x24
 80019fc:	015a      	lsls	r2, r3, #5
 80019fe:	69fb      	ldr	r3, [r7, #28]
 8001a00:	4413      	add	r3, r2
 8001a02:	f503 6330 	add.w	r3, r3, #2816	; 0xb00
 8001a06:	461a      	mov	r2, r3
 8001a08:	2302      	movs	r3, #2
 8001a0a:	6093      	str	r3, [r2, #8]
          }

          /* Clear Status Phase Received interrupt */
          if ((epint & USB_OTG_DOEPINT_OTEPSPR) == USB_OTG_DOEPINT_OTEPSPR)
 8001a0c:	693b      	ldr	r3, [r7, #16]
 8001a0e:	f003 0320 	and.w	r3, r3, #32
 8001a12:	2b00      	cmp	r3, #0
 8001a14:	d008      	beq.n	8001a28 <HAL_PCD_IRQHandler+0x27a>
          {
            CLEAR_OUT_EP_INTR(epnum, USB_OTG_DOEPINT_OTEPSPR);
 8001a16:	6a7b      	ldr	r3, [r7, #36]	; 0x24
 8001a18:	015a      	lsls	r2, r3, #5
 8001a1a:	69fb      	ldr	r3, [r7, #28]
 8001a1c:	4413      	add	r3, r2
 8001a1e:	f503 6330 	add.w	r3, r3, #2816	; 0xb00
 8001a22:	461a      	mov	r2, r3
 8001a24:	2320      	movs	r3, #32
 8001a26:	6093      	str	r3, [r2, #8]
          }

          /* Clear OUT NAK interrupt */
          if ((epint & USB_OTG_DOEPINT_NAK) == USB_OTG_DOEPINT_NAK)
 8001a28:	693b      	ldr	r3, [r7, #16]
 8001a2a:	f403 5300 	and.w	r3, r3, #8192	; 0x2000
 8001a2e:	2b00      	cmp	r3, #0
 8001a30:	d009      	beq.n	8001a46 <HAL_PCD_IRQHandler+0x298>
          {
            CLEAR_OUT_EP_INTR(epnum, USB_OTG_DOEPINT_NAK);
 8001a32:	6a7b      	ldr	r3, [r7, #36]	; 0x24
 8001a34:	015a      	lsls	r2, r3, #5
 8001a36:	69fb      	ldr	r3, [r7, #28]
 8001a38:	4413      	add	r3, r2
 8001a3a:	f503 6330 	add.w	r3, r3, #2816	; 0xb00
 8001a3e:	461a      	mov	r2, r3
 8001a40:	f44f 5300 	mov.w	r3, #8192	; 0x2000
 8001a44:	6093      	str	r3, [r2, #8]
          }
        }
        epnum++;
 8001a46:	6a7b      	ldr	r3, [r7, #36]	; 0x24
 8001a48:	3301      	adds	r3, #1
 8001a4a:	627b      	str	r3, [r7, #36]	; 0x24
        ep_intr >>= 1U;
 8001a4c:	6abb      	ldr	r3, [r7, #40]	; 0x28
 8001a4e:	085b      	lsrs	r3, r3, #1
 8001a50:	62bb      	str	r3, [r7, #40]	; 0x28
      while (ep_intr != 0U)
 8001a52:	6abb      	ldr	r3, [r7, #40]	; 0x28
 8001a54:	2b00      	cmp	r3, #0
 8001a56:	f47f af62 	bne.w	800191e <HAL_PCD_IRQHandler+0x170>
      }
    }

    if (__HAL_PCD_GET_FLAG(hpcd, USB_OTG_GINTSTS_IEPINT))
 8001a5a:	687b      	ldr	r3, [r7, #4]
 8001a5c:	681b      	ldr	r3, [r3, #0]
 8001a5e:	4618      	mov	r0, r3
 8001a60:	f004 fb40 	bl	80060e4 <USB_ReadInterrupts>
 8001a64:	4603      	mov	r3, r0
 8001a66:	f403 2380 	and.w	r3, r3, #262144	; 0x40000
 8001a6a:	f5b3 2f80 	cmp.w	r3, #262144	; 0x40000
 8001a6e:	f040 80db 	bne.w	8001c28 <HAL_PCD_IRQHandler+0x47a>
    {
      /* Read in the device interrupt bits */
      ep_intr = USB_ReadDevAllInEpInterrupt(hpcd->Instance);
 8001a72:	687b      	ldr	r3, [r7, #4]
 8001a74:	681b      	ldr	r3, [r3, #0]
 8001a76:	4618      	mov	r0, r3
 8001a78:	f004 fb61 	bl	800613e <USB_ReadDevAllInEpInterrupt>
 8001a7c:	62b8      	str	r0, [r7, #40]	; 0x28

      epnum = 0U;
 8001a7e:	2300      	movs	r3, #0
 8001a80:	627b      	str	r3, [r7, #36]	; 0x24

      while (ep_intr != 0U)
 8001a82:	e0cd      	b.n	8001c20 <HAL_PCD_IRQHandler+0x472>
      {
        if ((ep_intr & 0x1U) != 0U) /* In ITR */
 8001a84:	6abb      	ldr	r3, [r7, #40]	; 0x28
 8001a86:	f003 0301 	and.w	r3, r3, #1
 8001a8a:	2b00      	cmp	r3, #0
 8001a8c:	f000 80c2 	beq.w	8001c14 <HAL_PCD_IRQHandler+0x466>
        {
          epint = USB_ReadDevInEPInterrupt(hpcd->Instance, (uint8_t)epnum);
 8001a90:	687b      	ldr	r3, [r7, #4]
 8001a92:	681b      	ldr	r3, [r3, #0]
 8001a94:	6a7a      	ldr	r2, [r7, #36]	; 0x24
 8001a96:	b2d2      	uxtb	r2, r2
 8001a98:	4611      	mov	r1, r2
 8001a9a:	4618      	mov	r0, r3
 8001a9c:	f004 fb87 	bl	80061ae <USB_ReadDevInEPInterrupt>
 8001aa0:	6138      	str	r0, [r7, #16]

          if ((epint & USB_OTG_DIEPINT_XFRC) == USB_OTG_DIEPINT_XFRC)
 8001aa2:	693b      	ldr	r3, [r7, #16]
 8001aa4:	f003 0301 	and.w	r3, r3, #1
 8001aa8:	2b00      	cmp	r3, #0
 8001aaa:	d057      	beq.n	8001b5c <HAL_PCD_IRQHandler+0x3ae>
          {
            fifoemptymsk = (uint32_t)(0x1UL << (epnum & EP_ADDR_MSK));
 8001aac:	6a7b      	ldr	r3, [r7, #36]	; 0x24
 8001aae:	f003 030f 	and.w	r3, r3, #15
 8001ab2:	2201      	movs	r2, #1
 8001ab4:	fa02 f303 	lsl.w	r3, r2, r3
 8001ab8:	60fb      	str	r3, [r7, #12]
            USBx_DEVICE->DIEPEMPMSK &= ~fifoemptymsk;
 8001aba:	69fb      	ldr	r3, [r7, #28]
 8001abc:	f503 6300 	add.w	r3, r3, #2048	; 0x800
 8001ac0:	6b5a      	ldr	r2, [r3, #52]	; 0x34
 8001ac2:	68fb      	ldr	r3, [r7, #12]
 8001ac4:	43db      	mvns	r3, r3
 8001ac6:	69f9      	ldr	r1, [r7, #28]
 8001ac8:	f501 6100 	add.w	r1, r1, #2048	; 0x800
 8001acc:	4013      	ands	r3, r2
 8001ace:	634b      	str	r3, [r1, #52]	; 0x34

            CLEAR_IN_EP_INTR(epnum, USB_OTG_DIEPINT_XFRC);
 8001ad0:	6a7b      	ldr	r3, [r7, #36]	; 0x24
 8001ad2:	015a      	lsls	r2, r3, #5
 8001ad4:	69fb      	ldr	r3, [r7, #28]
 8001ad6:	4413      	add	r3, r2
 8001ad8:	f503 6310 	add.w	r3, r3, #2304	; 0x900
 8001adc:	461a      	mov	r2, r3
 8001ade:	2301      	movs	r3, #1
 8001ae0:	6093      	str	r3, [r2, #8]

            if (hpcd->Init.dma_enable == 1U)
 8001ae2:	687b      	ldr	r3, [r7, #4]
 8001ae4:	691b      	ldr	r3, [r3, #16]
 8001ae6:	2b01      	cmp	r3, #1
 8001ae8:	d132      	bne.n	8001b50 <HAL_PCD_IRQHandler+0x3a2>
            {
              hpcd->IN_ep[epnum].xfer_buff += hpcd->IN_ep[epnum].maxpacket;
 8001aea:	6879      	ldr	r1, [r7, #4]
 8001aec:	6a7a      	ldr	r2, [r7, #36]	; 0x24
 8001aee:	4613      	mov	r3, r2
 8001af0:	00db      	lsls	r3, r3, #3
 8001af2:	4413      	add	r3, r2
 8001af4:	009b      	lsls	r3, r3, #2
 8001af6:	440b      	add	r3, r1
 8001af8:	334c      	adds	r3, #76	; 0x4c
 8001afa:	6819      	ldr	r1, [r3, #0]
 8001afc:	6878      	ldr	r0, [r7, #4]
 8001afe:	6a7a      	ldr	r2, [r7, #36]	; 0x24
 8001b00:	4613      	mov	r3, r2
 8001b02:	00db      	lsls	r3, r3, #3
 8001b04:	4413      	add	r3, r2
 8001b06:	009b      	lsls	r3, r3, #2
 8001b08:	4403      	add	r3, r0
 8001b0a:	3348      	adds	r3, #72	; 0x48
 8001b0c:	681b      	ldr	r3, [r3, #0]
 8001b0e:	4419      	add	r1, r3
 8001b10:	6878      	ldr	r0, [r7, #4]
 8001b12:	6a7a      	ldr	r2, [r7, #36]	; 0x24
 8001b14:	4613      	mov	r3, r2
 8001b16:	00db      	lsls	r3, r3, #3
 8001b18:	4413      	add	r3, r2
 8001b1a:	009b      	lsls	r3, r3, #2
 8001b1c:	4403      	add	r3, r0
 8001b1e:	334c      	adds	r3, #76	; 0x4c
 8001b20:	6019      	str	r1, [r3, #0]

              /* this is ZLP, so prepare EP0 for next setup */
              if ((epnum == 0U) && (hpcd->IN_ep[epnum].xfer_len == 0U))
 8001b22:	6a7b      	ldr	r3, [r7, #36]	; 0x24
 8001b24:	2b00      	cmp	r3, #0
 8001b26:	d113      	bne.n	8001b50 <HAL_PCD_IRQHandler+0x3a2>
 8001b28:	6879      	ldr	r1, [r7, #4]
 8001b2a:	6a7a      	ldr	r2, [r7, #36]	; 0x24
 8001b2c:	4613      	mov	r3, r2
 8001b2e:	00db      	lsls	r3, r3, #3
 8001b30:	4413      	add	r3, r2
 8001b32:	009b      	lsls	r3, r3, #2
 8001b34:	440b      	add	r3, r1
 8001b36:	3354      	adds	r3, #84	; 0x54
 8001b38:	681b      	ldr	r3, [r3, #0]
 8001b3a:	2b00      	cmp	r3, #0
 8001b3c:	d108      	bne.n	8001b50 <HAL_PCD_IRQHandler+0x3a2>
              {
                /* prepare to rx more setup packets */
                (void)USB_EP0_OutStart(hpcd->Instance, 1U, (uint8_t *)hpcd->Setup);
 8001b3e:	687b      	ldr	r3, [r7, #4]
 8001b40:	6818      	ldr	r0, [r3, #0]
 8001b42:	687b      	ldr	r3, [r7, #4]
 8001b44:	f203 43c4 	addw	r3, r3, #1220	; 0x4c4
 8001b48:	461a      	mov	r2, r3
 8001b4a:	2101      	movs	r1, #1
 8001b4c:	f004 fb90 	bl	8006270 <USB_EP0_OutStart>
            }

#if (USE_HAL_PCD_REGISTER_CALLBACKS == 1U)
            hpcd->DataInStageCallback(hpcd, (uint8_t)epnum);
#else
            HAL_PCD_DataInStageCallback(hpcd, (uint8_t)epnum);
 8001b50:	6a7b      	ldr	r3, [r7, #36]	; 0x24
 8001b52:	b2db      	uxtb	r3, r3
 8001b54:	4619      	mov	r1, r3
 8001b56:	6878      	ldr	r0, [r7, #4]
 8001b58:	f006 fb6f 	bl	800823a <HAL_PCD_DataInStageCallback>
#endif /* USE_HAL_PCD_REGISTER_CALLBACKS */
          }
          if ((epint & USB_OTG_DIEPINT_TOC) == USB_OTG_DIEPINT_TOC)
 8001b5c:	693b      	ldr	r3, [r7, #16]
 8001b5e:	f003 0308 	and.w	r3, r3, #8
 8001b62:	2b00      	cmp	r3, #0
 8001b64:	d008      	beq.n	8001b78 <HAL_PCD_IRQHandler+0x3ca>
          {
            CLEAR_IN_EP_INTR(epnum, USB_OTG_DIEPINT_TOC);
 8001b66:	6a7b      	ldr	r3, [r7, #36]	; 0x24
 8001b68:	015a      	lsls	r2, r3, #5
 8001b6a:	69fb      	ldr	r3, [r7, #28]
 8001b6c:	4413      	add	r3, r2
 8001b6e:	f503 6310 	add.w	r3, r3, #2304	; 0x900
 8001b72:	461a      	mov	r2, r3
 8001b74:	2308      	movs	r3, #8
 8001b76:	6093      	str	r3, [r2, #8]
          }
          if ((epint & USB_OTG_DIEPINT_ITTXFE) == USB_OTG_DIEPINT_ITTXFE)
 8001b78:	693b      	ldr	r3, [r7, #16]
 8001b7a:	f003 0310 	and.w	r3, r3, #16
 8001b7e:	2b00      	cmp	r3, #0
 8001b80:	d008      	beq.n	8001b94 <HAL_PCD_IRQHandler+0x3e6>
          {
            CLEAR_IN_EP_INTR(epnum, USB_OTG_DIEPINT_ITTXFE);
 8001b82:	6a7b      	ldr	r3, [r7, #36]	; 0x24
 8001b84:	015a      	lsls	r2, r3, #5
 8001b86:	69fb      	ldr	r3, [r7, #28]
 8001b88:	4413      	add	r3, r2
 8001b8a:	f503 6310 	add.w	r3, r3, #2304	; 0x900
 8001b8e:	461a      	mov	r2, r3
 8001b90:	2310      	movs	r3, #16
 8001b92:	6093      	str	r3, [r2, #8]
          }
          if ((epint & USB_OTG_DIEPINT_INEPNE) == USB_OTG_DIEPINT_INEPNE)
 8001b94:	693b      	ldr	r3, [r7, #16]
 8001b96:	f003 0340 	and.w	r3, r3, #64	; 0x40
 8001b9a:	2b00      	cmp	r3, #0
 8001b9c:	d008      	beq.n	8001bb0 <HAL_PCD_IRQHandler+0x402>
          {
            CLEAR_IN_EP_INTR(epnum, USB_OTG_DIEPINT_INEPNE);
 8001b9e:	6a7b      	ldr	r3, [r7, #36]	; 0x24
 8001ba0:	015a      	lsls	r2, r3, #5
 8001ba2:	69fb      	ldr	r3, [r7, #28]
 8001ba4:	4413      	add	r3, r2
 8001ba6:	f503 6310 	add.w	r3, r3, #2304	; 0x900
 8001baa:	461a      	mov	r2, r3
 8001bac:	2340      	movs	r3, #64	; 0x40
 8001bae:	6093      	str	r3, [r2, #8]
          }
          if ((epint & USB_OTG_DIEPINT_EPDISD) == USB_OTG_DIEPINT_EPDISD)
 8001bb0:	693b      	ldr	r3, [r7, #16]
 8001bb2:	f003 0302 	and.w	r3, r3, #2
 8001bb6:	2b00      	cmp	r3, #0
 8001bb8:	d023      	beq.n	8001c02 <HAL_PCD_IRQHandler+0x454>
          {
            (void)USB_FlushTxFifo(USBx, epnum);
 8001bba:	6a79      	ldr	r1, [r7, #36]	; 0x24
 8001bbc:	6a38      	ldr	r0, [r7, #32]
 8001bbe:	f003 fa63 	bl	8005088 <USB_FlushTxFifo>

            ep = &hpcd->IN_ep[epnum];
 8001bc2:	6a7a      	ldr	r2, [r7, #36]	; 0x24
 8001bc4:	4613      	mov	r3, r2
 8001bc6:	00db      	lsls	r3, r3, #3
 8001bc8:	4413      	add	r3, r2
 8001bca:	009b      	lsls	r3, r3, #2
 8001bcc:	3338      	adds	r3, #56	; 0x38
 8001bce:	687a      	ldr	r2, [r7, #4]
 8001bd0:	4413      	add	r3, r2
 8001bd2:	3304      	adds	r3, #4
 8001bd4:	617b      	str	r3, [r7, #20]

            if (ep->is_iso_incomplete == 1U)
 8001bd6:	697b      	ldr	r3, [r7, #20]
 8001bd8:	78db      	ldrb	r3, [r3, #3]
 8001bda:	2b01      	cmp	r3, #1
 8001bdc:	d108      	bne.n	8001bf0 <HAL_PCD_IRQHandler+0x442>
            {
              ep->is_iso_incomplete = 0U;
 8001bde:	697b      	ldr	r3, [r7, #20]
 8001be0:	2200      	movs	r2, #0
 8001be2:	70da      	strb	r2, [r3, #3]

#if (USE_HAL_PCD_REGISTER_CALLBACKS == 1U)
              hpcd->ISOINIncompleteCallback(hpcd, (uint8_t)epnum);
#else
              HAL_PCD_ISOINIncompleteCallback(hpcd, (uint8_t)epnum);
 8001be4:	6a7b      	ldr	r3, [r7, #36]	; 0x24
 8001be6:	b2db      	uxtb	r3, r3
 8001be8:	4619      	mov	r1, r3
 8001bea:	6878      	ldr	r0, [r7, #4]
 8001bec:	f006 fbbc 	bl	8008368 <HAL_PCD_ISOINIncompleteCallback>
#endif /* USE_HAL_PCD_REGISTER_CALLBACKS */
            }

            CLEAR_IN_EP_INTR(epnum, USB_OTG_DIEPINT_EPDISD);
 8001bf0:	6a7b      	ldr	r3, [r7, #36]	; 0x24
 8001bf2:	015a      	lsls	r2, r3, #5
 8001bf4:	69fb      	ldr	r3, [r7, #28]
 8001bf6:	4413      	add	r3, r2
 8001bf8:	f503 6310 	add.w	r3, r3, #2304	; 0x900
 8001bfc:	461a      	mov	r2, r3
 8001bfe:	2302      	movs	r3, #2
 8001c00:	6093      	str	r3, [r2, #8]
          }
          if ((epint & USB_OTG_DIEPINT_TXFE) == USB_OTG_DIEPINT_TXFE)
 8001c02:	693b      	ldr	r3, [r7, #16]
 8001c04:	f003 0380 	and.w	r3, r3, #128	; 0x80
 8001c08:	2b00      	cmp	r3, #0
 8001c0a:	d003      	beq.n	8001c14 <HAL_PCD_IRQHandler+0x466>
          {
            (void)PCD_WriteEmptyTxFifo(hpcd, epnum);
 8001c0c:	6a79      	ldr	r1, [r7, #36]	; 0x24
 8001c0e:	6878      	ldr	r0, [r7, #4]
 8001c10:	f000 fcf0 	bl	80025f4 <PCD_WriteEmptyTxFifo>
          }
        }
        epnum++;
 8001c14:	6a7b      	ldr	r3, [r7, #36]	; 0x24
 8001c16:	3301      	adds	r3, #1
 8001c18:	627b      	str	r3, [r7, #36]	; 0x24
        ep_intr >>= 1U;
 8001c1a:	6abb      	ldr	r3, [r7, #40]	; 0x28
 8001c1c:	085b      	lsrs	r3, r3, #1
 8001c1e:	62bb      	str	r3, [r7, #40]	; 0x28
      while (ep_intr != 0U)
 8001c20:	6abb      	ldr	r3, [r7, #40]	; 0x28
 8001c22:	2b00      	cmp	r3, #0
 8001c24:	f47f af2e 	bne.w	8001a84 <HAL_PCD_IRQHandler+0x2d6>
      }
    }

    /* Handle Resume Interrupt */
    if (__HAL_PCD_GET_FLAG(hpcd, USB_OTG_GINTSTS_WKUINT))
 8001c28:	687b      	ldr	r3, [r7, #4]
 8001c2a:	681b      	ldr	r3, [r3, #0]
 8001c2c:	4618      	mov	r0, r3
 8001c2e:	f004 fa59 	bl	80060e4 <USB_ReadInterrupts>
 8001c32:	4603      	mov	r3, r0
 8001c34:	f003 4300 	and.w	r3, r3, #2147483648	; 0x80000000
 8001c38:	f1b3 4f00 	cmp.w	r3, #2147483648	; 0x80000000
 8001c3c:	d122      	bne.n	8001c84 <HAL_PCD_IRQHandler+0x4d6>
    {
      /* Clear the Remote Wake-up Signaling */
      USBx_DEVICE->DCTL &= ~USB_OTG_DCTL_RWUSIG;
 8001c3e:	69fb      	ldr	r3, [r7, #28]
 8001c40:	f503 6300 	add.w	r3, r3, #2048	; 0x800
 8001c44:	685b      	ldr	r3, [r3, #4]
 8001c46:	69fa      	ldr	r2, [r7, #28]
 8001c48:	f502 6200 	add.w	r2, r2, #2048	; 0x800
 8001c4c:	f023 0301 	bic.w	r3, r3, #1
 8001c50:	6053      	str	r3, [r2, #4]

      if (hpcd->LPM_State == LPM_L1)
 8001c52:	687b      	ldr	r3, [r7, #4]
 8001c54:	f893 34f4 	ldrb.w	r3, [r3, #1268]	; 0x4f4
 8001c58:	2b01      	cmp	r3, #1
 8001c5a:	d108      	bne.n	8001c6e <HAL_PCD_IRQHandler+0x4c0>
      {
        hpcd->LPM_State = LPM_L0;
 8001c5c:	687b      	ldr	r3, [r7, #4]
 8001c5e:	2200      	movs	r2, #0
 8001c60:	f883 24f4 	strb.w	r2, [r3, #1268]	; 0x4f4

#if (USE_HAL_PCD_REGISTER_CALLBACKS == 1U)
        hpcd->LPMCallback(hpcd, PCD_LPM_L0_ACTIVE);
#else
        HAL_PCDEx_LPM_Callback(hpcd, PCD_LPM_L0_ACTIVE);
 8001c64:	2100      	movs	r1, #0
 8001c66:	6878      	ldr	r0, [r7, #4]
 8001c68:	f006 fd24 	bl	80086b4 <HAL_PCDEx_LPM_Callback>
 8001c6c:	e002      	b.n	8001c74 <HAL_PCD_IRQHandler+0x4c6>
      else
      {
#if (USE_HAL_PCD_REGISTER_CALLBACKS == 1U)
        hpcd->ResumeCallback(hpcd);
#else
        HAL_PCD_ResumeCallback(hpcd);
 8001c6e:	6878      	ldr	r0, [r7, #4]
 8001c70:	f006 fb5a 	bl	8008328 <HAL_PCD_ResumeCallback>
#endif /* USE_HAL_PCD_REGISTER_CALLBACKS */
      }

      __HAL_PCD_CLEAR_FLAG(hpcd, USB_OTG_GINTSTS_WKUINT);
 8001c74:	687b      	ldr	r3, [r7, #4]
 8001c76:	681b      	ldr	r3, [r3, #0]
 8001c78:	695a      	ldr	r2, [r3, #20]
 8001c7a:	687b      	ldr	r3, [r7, #4]
 8001c7c:	681b      	ldr	r3, [r3, #0]
 8001c7e:	f002 4200 	and.w	r2, r2, #2147483648	; 0x80000000
 8001c82:	615a      	str	r2, [r3, #20]
    }

    /* Handle Suspend Interrupt */
    if (__HAL_PCD_GET_FLAG(hpcd, USB_OTG_GINTSTS_USBSUSP))
 8001c84:	687b      	ldr	r3, [r7, #4]
 8001c86:	681b      	ldr	r3, [r3, #0]
 8001c88:	4618      	mov	r0, r3
 8001c8a:	f004 fa2b 	bl	80060e4 <USB_ReadInterrupts>
 8001c8e:	4603      	mov	r3, r0
 8001c90:	f403 6300 	and.w	r3, r3, #2048	; 0x800
 8001c94:	f5b3 6f00 	cmp.w	r3, #2048	; 0x800
 8001c98:	d112      	bne.n	8001cc0 <HAL_PCD_IRQHandler+0x512>
    {
      if ((USBx_DEVICE->DSTS & USB_OTG_DSTS_SUSPSTS) == USB_OTG_DSTS_SUSPSTS)
 8001c9a:	69fb      	ldr	r3, [r7, #28]
 8001c9c:	f503 6300 	add.w	r3, r3, #2048	; 0x800
 8001ca0:	689b      	ldr	r3, [r3, #8]
 8001ca2:	f003 0301 	and.w	r3, r3, #1
 8001ca6:	2b01      	cmp	r3, #1
 8001ca8:	d102      	bne.n	8001cb0 <HAL_PCD_IRQHandler+0x502>
      {
#if (USE_HAL_PCD_REGISTER_CALLBACKS == 1U)
        hpcd->SuspendCallback(hpcd);
#else
        HAL_PCD_SuspendCallback(hpcd);
 8001caa:	6878      	ldr	r0, [r7, #4]
 8001cac:	f006 fb16 	bl	80082dc <HAL_PCD_SuspendCallback>
#endif /* USE_HAL_PCD_REGISTER_CALLBACKS */
      }
      __HAL_PCD_CLEAR_FLAG(hpcd, USB_OTG_GINTSTS_USBSUSP);
 8001cb0:	687b      	ldr	r3, [r7, #4]
 8001cb2:	681b      	ldr	r3, [r3, #0]
 8001cb4:	695a      	ldr	r2, [r3, #20]
 8001cb6:	687b      	ldr	r3, [r7, #4]
 8001cb8:	681b      	ldr	r3, [r3, #0]
 8001cba:	f402 6200 	and.w	r2, r2, #2048	; 0x800
 8001cbe:	615a      	str	r2, [r3, #20]
    }

    /* Handle LPM Interrupt */
    if (__HAL_PCD_GET_FLAG(hpcd, USB_OTG_GINTSTS_LPMINT))
 8001cc0:	687b      	ldr	r3, [r7, #4]
 8001cc2:	681b      	ldr	r3, [r3, #0]
 8001cc4:	4618      	mov	r0, r3
 8001cc6:	f004 fa0d 	bl	80060e4 <USB_ReadInterrupts>
 8001cca:	4603      	mov	r3, r0
 8001ccc:	f003 6300 	and.w	r3, r3, #134217728	; 0x8000000
 8001cd0:	f1b3 6f00 	cmp.w	r3, #134217728	; 0x8000000
 8001cd4:	d121      	bne.n	8001d1a <HAL_PCD_IRQHandler+0x56c>
    {
      __HAL_PCD_CLEAR_FLAG(hpcd, USB_OTG_GINTSTS_LPMINT);
 8001cd6:	687b      	ldr	r3, [r7, #4]
 8001cd8:	681b      	ldr	r3, [r3, #0]
 8001cda:	695a      	ldr	r2, [r3, #20]
 8001cdc:	687b      	ldr	r3, [r7, #4]
 8001cde:	681b      	ldr	r3, [r3, #0]
 8001ce0:	f002 6200 	and.w	r2, r2, #134217728	; 0x8000000
 8001ce4:	615a      	str	r2, [r3, #20]

      if (hpcd->LPM_State == LPM_L0)
 8001ce6:	687b      	ldr	r3, [r7, #4]
 8001ce8:	f893 34f4 	ldrb.w	r3, [r3, #1268]	; 0x4f4
 8001cec:	2b00      	cmp	r3, #0
 8001cee:	d111      	bne.n	8001d14 <HAL_PCD_IRQHandler+0x566>
      {
        hpcd->LPM_State = LPM_L1;
 8001cf0:	687b      	ldr	r3, [r7, #4]
 8001cf2:	2201      	movs	r2, #1
 8001cf4:	f883 24f4 	strb.w	r2, [r3, #1268]	; 0x4f4
        hpcd->BESL = (hpcd->Instance->GLPMCFG & USB_OTG_GLPMCFG_BESL) >> 2U;
 8001cf8:	687b      	ldr	r3, [r7, #4]
 8001cfa:	681b      	ldr	r3, [r3, #0]
 8001cfc:	6d5b      	ldr	r3, [r3, #84]	; 0x54
 8001cfe:	089b      	lsrs	r3, r3, #2
 8001d00:	f003 020f 	and.w	r2, r3, #15
 8001d04:	687b      	ldr	r3, [r7, #4]
 8001d06:	f8c3 24f8 	str.w	r2, [r3, #1272]	; 0x4f8

#if (USE_HAL_PCD_REGISTER_CALLBACKS == 1U)
        hpcd->LPMCallback(hpcd, PCD_LPM_L1_ACTIVE);
#else
        HAL_PCDEx_LPM_Callback(hpcd, PCD_LPM_L1_ACTIVE);
 8001d0a:	2101      	movs	r1, #1
 8001d0c:	6878      	ldr	r0, [r7, #4]
 8001d0e:	f006 fcd1 	bl	80086b4 <HAL_PCDEx_LPM_Callback>
 8001d12:	e002      	b.n	8001d1a <HAL_PCD_IRQHandler+0x56c>
      else
      {
#if (USE_HAL_PCD_REGISTER_CALLBACKS == 1U)
        hpcd->SuspendCallback(hpcd);
#else
        HAL_PCD_SuspendCallback(hpcd);
 8001d14:	6878      	ldr	r0, [r7, #4]
 8001d16:	f006 fae1 	bl	80082dc <HAL_PCD_SuspendCallback>
#endif /* USE_HAL_PCD_REGISTER_CALLBACKS */
      }
    }

    /* Handle Reset Interrupt */
    if (__HAL_PCD_GET_FLAG(hpcd, USB_OTG_GINTSTS_USBRST))
 8001d1a:	687b      	ldr	r3, [r7, #4]
 8001d1c:	681b      	ldr	r3, [r3, #0]
 8001d1e:	4618      	mov	r0, r3
 8001d20:	f004 f9e0 	bl	80060e4 <USB_ReadInterrupts>
 8001d24:	4603      	mov	r3, r0
 8001d26:	f403 5380 	and.w	r3, r3, #4096	; 0x1000
 8001d2a:	f5b3 5f80 	cmp.w	r3, #4096	; 0x1000
 8001d2e:	f040 80b7 	bne.w	8001ea0 <HAL_PCD_IRQHandler+0x6f2>
    {
      USBx_DEVICE->DCTL &= ~USB_OTG_DCTL_RWUSIG;
 8001d32:	69fb      	ldr	r3, [r7, #28]
 8001d34:	f503 6300 	add.w	r3, r3, #2048	; 0x800
 8001d38:	685b      	ldr	r3, [r3, #4]
 8001d3a:	69fa      	ldr	r2, [r7, #28]
 8001d3c:	f502 6200 	add.w	r2, r2, #2048	; 0x800
 8001d40:	f023 0301 	bic.w	r3, r3, #1
 8001d44:	6053      	str	r3, [r2, #4]
      (void)USB_FlushTxFifo(hpcd->Instance, 0x10U);
 8001d46:	687b      	ldr	r3, [r7, #4]
 8001d48:	681b      	ldr	r3, [r3, #0]
 8001d4a:	2110      	movs	r1, #16
 8001d4c:	4618      	mov	r0, r3
 8001d4e:	f003 f99b 	bl	8005088 <USB_FlushTxFifo>

      for (i = 0U; i < hpcd->Init.dev_endpoints; i++)
 8001d52:	2300      	movs	r3, #0
 8001d54:	62fb      	str	r3, [r7, #44]	; 0x2c
 8001d56:	e046      	b.n	8001de6 <HAL_PCD_IRQHandler+0x638>
      {
        USBx_INEP(i)->DIEPINT = 0xFB7FU;
 8001d58:	6afb      	ldr	r3, [r7, #44]	; 0x2c
 8001d5a:	015a      	lsls	r2, r3, #5
 8001d5c:	69fb      	ldr	r3, [r7, #28]
 8001d5e:	4413      	add	r3, r2
 8001d60:	f503 6310 	add.w	r3, r3, #2304	; 0x900
 8001d64:	461a      	mov	r2, r3
 8001d66:	f64f 337f 	movw	r3, #64383	; 0xfb7f
 8001d6a:	6093      	str	r3, [r2, #8]
        USBx_INEP(i)->DIEPCTL &= ~USB_OTG_DIEPCTL_STALL;
 8001d6c:	6afb      	ldr	r3, [r7, #44]	; 0x2c
 8001d6e:	015a      	lsls	r2, r3, #5
 8001d70:	69fb      	ldr	r3, [r7, #28]
 8001d72:	4413      	add	r3, r2
 8001d74:	f503 6310 	add.w	r3, r3, #2304	; 0x900
 8001d78:	681b      	ldr	r3, [r3, #0]
 8001d7a:	6afa      	ldr	r2, [r7, #44]	; 0x2c
 8001d7c:	0151      	lsls	r1, r2, #5
 8001d7e:	69fa      	ldr	r2, [r7, #28]
 8001d80:	440a      	add	r2, r1
 8001d82:	f502 6210 	add.w	r2, r2, #2304	; 0x900
 8001d86:	f423 1300 	bic.w	r3, r3, #2097152	; 0x200000
 8001d8a:	6013      	str	r3, [r2, #0]
        USBx_OUTEP(i)->DOEPINT = 0xFB7FU;
 8001d8c:	6afb      	ldr	r3, [r7, #44]	; 0x2c
 8001d8e:	015a      	lsls	r2, r3, #5
 8001d90:	69fb      	ldr	r3, [r7, #28]
 8001d92:	4413      	add	r3, r2
 8001d94:	f503 6330 	add.w	r3, r3, #2816	; 0xb00
 8001d98:	461a      	mov	r2, r3
 8001d9a:	f64f 337f 	movw	r3, #64383	; 0xfb7f
 8001d9e:	6093      	str	r3, [r2, #8]
        USBx_OUTEP(i)->DOEPCTL &= ~USB_OTG_DOEPCTL_STALL;
 8001da0:	6afb      	ldr	r3, [r7, #44]	; 0x2c
 8001da2:	015a      	lsls	r2, r3, #5
 8001da4:	69fb      	ldr	r3, [r7, #28]
 8001da6:	4413      	add	r3, r2
 8001da8:	f503 6330 	add.w	r3, r3, #2816	; 0xb00
 8001dac:	681b      	ldr	r3, [r3, #0]
 8001dae:	6afa      	ldr	r2, [r7, #44]	; 0x2c
 8001db0:	0151      	lsls	r1, r2, #5
 8001db2:	69fa      	ldr	r2, [r7, #28]
 8001db4:	440a      	add	r2, r1
 8001db6:	f502 6230 	add.w	r2, r2, #2816	; 0xb00
 8001dba:	f423 1300 	bic.w	r3, r3, #2097152	; 0x200000
 8001dbe:	6013      	str	r3, [r2, #0]
        USBx_OUTEP(i)->DOEPCTL |= USB_OTG_DOEPCTL_SNAK;
 8001dc0:	6afb      	ldr	r3, [r7, #44]	; 0x2c
 8001dc2:	015a      	lsls	r2, r3, #5
 8001dc4:	69fb      	ldr	r3, [r7, #28]
 8001dc6:	4413      	add	r3, r2
 8001dc8:	f503 6330 	add.w	r3, r3, #2816	; 0xb00
 8001dcc:	681b      	ldr	r3, [r3, #0]
 8001dce:	6afa      	ldr	r2, [r7, #44]	; 0x2c
 8001dd0:	0151      	lsls	r1, r2, #5
 8001dd2:	69fa      	ldr	r2, [r7, #28]
 8001dd4:	440a      	add	r2, r1
 8001dd6:	f502 6230 	add.w	r2, r2, #2816	; 0xb00
 8001dda:	f043 6300 	orr.w	r3, r3, #134217728	; 0x8000000
 8001dde:	6013      	str	r3, [r2, #0]
      for (i = 0U; i < hpcd->Init.dev_endpoints; i++)
 8001de0:	6afb      	ldr	r3, [r7, #44]	; 0x2c
 8001de2:	3301      	adds	r3, #1
 8001de4:	62fb      	str	r3, [r7, #44]	; 0x2c
 8001de6:	687b      	ldr	r3, [r7, #4]
 8001de8:	685b      	ldr	r3, [r3, #4]
 8001dea:	6afa      	ldr	r2, [r7, #44]	; 0x2c
 8001dec:	429a      	cmp	r2, r3
 8001dee:	d3b3      	bcc.n	8001d58 <HAL_PCD_IRQHandler+0x5aa>
      }
      USBx_DEVICE->DAINTMSK |= 0x10001U;
 8001df0:	69fb      	ldr	r3, [r7, #28]
 8001df2:	f503 6300 	add.w	r3, r3, #2048	; 0x800
 8001df6:	69db      	ldr	r3, [r3, #28]
 8001df8:	69fa      	ldr	r2, [r7, #28]
 8001dfa:	f502 6200 	add.w	r2, r2, #2048	; 0x800
 8001dfe:	f043 1301 	orr.w	r3, r3, #65537	; 0x10001
 8001e02:	61d3      	str	r3, [r2, #28]

      if (hpcd->Init.use_dedicated_ep1 != 0U)
 8001e04:	687b      	ldr	r3, [r7, #4]
 8001e06:	6b1b      	ldr	r3, [r3, #48]	; 0x30
 8001e08:	2b00      	cmp	r3, #0
 8001e0a:	d016      	beq.n	8001e3a <HAL_PCD_IRQHandler+0x68c>
      {
        USBx_DEVICE->DOUTEP1MSK |= USB_OTG_DOEPMSK_STUPM |
 8001e0c:	69fb      	ldr	r3, [r7, #28]
 8001e0e:	f503 6300 	add.w	r3, r3, #2048	; 0x800
 8001e12:	f8d3 3084 	ldr.w	r3, [r3, #132]	; 0x84
 8001e16:	69fa      	ldr	r2, [r7, #28]
 8001e18:	f502 6200 	add.w	r2, r2, #2048	; 0x800
 8001e1c:	f043 030b 	orr.w	r3, r3, #11
 8001e20:	f8c2 3084 	str.w	r3, [r2, #132]	; 0x84
                                   USB_OTG_DOEPMSK_XFRCM |
                                   USB_OTG_DOEPMSK_EPDM;

        USBx_DEVICE->DINEP1MSK |= USB_OTG_DIEPMSK_TOM |
 8001e24:	69fb      	ldr	r3, [r7, #28]
 8001e26:	f503 6300 	add.w	r3, r3, #2048	; 0x800
 8001e2a:	6c5b      	ldr	r3, [r3, #68]	; 0x44
 8001e2c:	69fa      	ldr	r2, [r7, #28]
 8001e2e:	f502 6200 	add.w	r2, r2, #2048	; 0x800
 8001e32:	f043 030b 	orr.w	r3, r3, #11
 8001e36:	6453      	str	r3, [r2, #68]	; 0x44
 8001e38:	e015      	b.n	8001e66 <HAL_PCD_IRQHandler+0x6b8>
                                  USB_OTG_DIEPMSK_XFRCM |
                                  USB_OTG_DIEPMSK_EPDM;
      }
      else
      {
        USBx_DEVICE->DOEPMSK |= USB_OTG_DOEPMSK_STUPM |
 8001e3a:	69fb      	ldr	r3, [r7, #28]
 8001e3c:	f503 6300 	add.w	r3, r3, #2048	; 0x800
 8001e40:	695a      	ldr	r2, [r3, #20]
 8001e42:	69fb      	ldr	r3, [r7, #28]
 8001e44:	f503 6300 	add.w	r3, r3, #2048	; 0x800
 8001e48:	4619      	mov	r1, r3
 8001e4a:	f242 032b 	movw	r3, #8235	; 0x202b
 8001e4e:	4313      	orrs	r3, r2
 8001e50:	614b      	str	r3, [r1, #20]
                                USB_OTG_DOEPMSK_XFRCM |
                                USB_OTG_DOEPMSK_EPDM |
                                USB_OTG_DOEPMSK_OTEPSPRM |
                                USB_OTG_DOEPMSK_NAKM;

        USBx_DEVICE->DIEPMSK |= USB_OTG_DIEPMSK_TOM |
 8001e52:	69fb      	ldr	r3, [r7, #28]
 8001e54:	f503 6300 	add.w	r3, r3, #2048	; 0x800
 8001e58:	691b      	ldr	r3, [r3, #16]
 8001e5a:	69fa      	ldr	r2, [r7, #28]
 8001e5c:	f502 6200 	add.w	r2, r2, #2048	; 0x800
 8001e60:	f043 030b 	orr.w	r3, r3, #11
 8001e64:	6113      	str	r3, [r2, #16]
                                USB_OTG_DIEPMSK_XFRCM |
                                USB_OTG_DIEPMSK_EPDM;
      }

      /* Set Default Address to 0 */
      USBx_DEVICE->DCFG &= ~USB_OTG_DCFG_DAD;
 8001e66:	69fb      	ldr	r3, [r7, #28]
 8001e68:	f503 6300 	add.w	r3, r3, #2048	; 0x800
 8001e6c:	681b      	ldr	r3, [r3, #0]
 8001e6e:	69fa      	ldr	r2, [r7, #28]
 8001e70:	f502 6200 	add.w	r2, r2, #2048	; 0x800
 8001e74:	f423 63fe 	bic.w	r3, r3, #2032	; 0x7f0
 8001e78:	6013      	str	r3, [r2, #0]

      /* setup EP0 to receive SETUP packets */
      (void)USB_EP0_OutStart(hpcd->Instance, (uint8_t)hpcd->Init.dma_enable,
 8001e7a:	687b      	ldr	r3, [r7, #4]
 8001e7c:	6818      	ldr	r0, [r3, #0]
 8001e7e:	687b      	ldr	r3, [r7, #4]
 8001e80:	691b      	ldr	r3, [r3, #16]
 8001e82:	b2d9      	uxtb	r1, r3
                             (uint8_t *)hpcd->Setup);
 8001e84:	687b      	ldr	r3, [r7, #4]
 8001e86:	f203 43c4 	addw	r3, r3, #1220	; 0x4c4
      (void)USB_EP0_OutStart(hpcd->Instance, (uint8_t)hpcd->Init.dma_enable,
 8001e8a:	461a      	mov	r2, r3
 8001e8c:	f004 f9f0 	bl	8006270 <USB_EP0_OutStart>

      __HAL_PCD_CLEAR_FLAG(hpcd, USB_OTG_GINTSTS_USBRST);
 8001e90:	687b      	ldr	r3, [r7, #4]
 8001e92:	681b      	ldr	r3, [r3, #0]
 8001e94:	695a      	ldr	r2, [r3, #20]
 8001e96:	687b      	ldr	r3, [r7, #4]
 8001e98:	681b      	ldr	r3, [r3, #0]
 8001e9a:	f402 5280 	and.w	r2, r2, #4096	; 0x1000
 8001e9e:	615a      	str	r2, [r3, #20]
    }

    /* Handle Enumeration done Interrupt */
    if (__HAL_PCD_GET_FLAG(hpcd, USB_OTG_GINTSTS_ENUMDNE))
 8001ea0:	687b      	ldr	r3, [r7, #4]
 8001ea2:	681b      	ldr	r3, [r3, #0]
 8001ea4:	4618      	mov	r0, r3
 8001ea6:	f004 f91d 	bl	80060e4 <USB_ReadInterrupts>
 8001eaa:	4603      	mov	r3, r0
 8001eac:	f403 5300 	and.w	r3, r3, #8192	; 0x2000
 8001eb0:	f5b3 5f00 	cmp.w	r3, #8192	; 0x2000
 8001eb4:	d124      	bne.n	8001f00 <HAL_PCD_IRQHandler+0x752>
    {
      (void)USB_ActivateSetup(hpcd->Instance);
 8001eb6:	687b      	ldr	r3, [r7, #4]
 8001eb8:	681b      	ldr	r3, [r3, #0]
 8001eba:	4618      	mov	r0, r3
 8001ebc:	f004 f9b4 	bl	8006228 <USB_ActivateSetup>
      hpcd->Init.speed = USB_GetDevSpeed(hpcd->Instance);
 8001ec0:	687b      	ldr	r3, [r7, #4]
 8001ec2:	681b      	ldr	r3, [r3, #0]
 8001ec4:	4618      	mov	r0, r3
 8001ec6:	f003 f95c 	bl	8005182 <USB_GetDevSpeed>
 8001eca:	4603      	mov	r3, r0
 8001ecc:	461a      	mov	r2, r3
 8001ece:	687b      	ldr	r3, [r7, #4]
 8001ed0:	60da      	str	r2, [r3, #12]

      /* Set USB Turnaround time */
      (void)USB_SetTurnaroundTime(hpcd->Instance,
 8001ed2:	687b      	ldr	r3, [r7, #4]
 8001ed4:	681c      	ldr	r4, [r3, #0]
 8001ed6:	f001 fac5 	bl	8003464 <HAL_RCC_GetHCLKFreq>
 8001eda:	4601      	mov	r1, r0
                                  HAL_RCC_GetHCLKFreq(),
                                  (uint8_t)hpcd->Init.speed);
 8001edc:	687b      	ldr	r3, [r7, #4]
 8001ede:	68db      	ldr	r3, [r3, #12]
      (void)USB_SetTurnaroundTime(hpcd->Instance,
 8001ee0:	b2db      	uxtb	r3, r3
 8001ee2:	461a      	mov	r2, r3
 8001ee4:	4620      	mov	r0, r4
 8001ee6:	f002 fe61 	bl	8004bac <USB_SetTurnaroundTime>

#if (USE_HAL_PCD_REGISTER_CALLBACKS == 1U)
      hpcd->ResetCallback(hpcd);
#else
      HAL_PCD_ResetCallback(hpcd);
 8001eea:	6878      	ldr	r0, [r7, #4]
 8001eec:	f006 f9cd 	bl	800828a <HAL_PCD_ResetCallback>
#endif /* USE_HAL_PCD_REGISTER_CALLBACKS */

      __HAL_PCD_CLEAR_FLAG(hpcd, USB_OTG_GINTSTS_ENUMDNE);
 8001ef0:	687b      	ldr	r3, [r7, #4]
 8001ef2:	681b      	ldr	r3, [r3, #0]
 8001ef4:	695a      	ldr	r2, [r3, #20]
 8001ef6:	687b      	ldr	r3, [r7, #4]
 8001ef8:	681b      	ldr	r3, [r3, #0]
 8001efa:	f402 5200 	and.w	r2, r2, #8192	; 0x2000
 8001efe:	615a      	str	r2, [r3, #20]
    }

    /* Handle SOF Interrupt */
    if (__HAL_PCD_GET_FLAG(hpcd, USB_OTG_GINTSTS_SOF))
 8001f00:	687b      	ldr	r3, [r7, #4]
 8001f02:	681b      	ldr	r3, [r3, #0]
 8001f04:	4618      	mov	r0, r3
 8001f06:	f004 f8ed 	bl	80060e4 <USB_ReadInterrupts>
 8001f0a:	4603      	mov	r3, r0
 8001f0c:	f003 0308 	and.w	r3, r3, #8
 8001f10:	2b08      	cmp	r3, #8
 8001f12:	d10a      	bne.n	8001f2a <HAL_PCD_IRQHandler+0x77c>
    {
#if (USE_HAL_PCD_REGISTER_CALLBACKS == 1U)
      hpcd->SOFCallback(hpcd);
#else
      HAL_PCD_SOFCallback(hpcd);
 8001f14:	6878      	ldr	r0, [r7, #4]
 8001f16:	f006 f9aa 	bl	800826e <HAL_PCD_SOFCallback>
#endif /* USE_HAL_PCD_REGISTER_CALLBACKS */

      __HAL_PCD_CLEAR_FLAG(hpcd, USB_OTG_GINTSTS_SOF);
 8001f1a:	687b      	ldr	r3, [r7, #4]
 8001f1c:	681b      	ldr	r3, [r3, #0]
 8001f1e:	695a      	ldr	r2, [r3, #20]
 8001f20:	687b      	ldr	r3, [r7, #4]
 8001f22:	681b      	ldr	r3, [r3, #0]
 8001f24:	f002 0208 	and.w	r2, r2, #8
 8001f28:	615a      	str	r2, [r3, #20]
    }

    /* Handle Global OUT NAK effective Interrupt */
    if (__HAL_PCD_GET_FLAG(hpcd, USB_OTG_GINTSTS_BOUTNAKEFF))
 8001f2a:	687b      	ldr	r3, [r7, #4]
 8001f2c:	681b      	ldr	r3, [r3, #0]
 8001f2e:	4618      	mov	r0, r3
 8001f30:	f004 f8d8 	bl	80060e4 <USB_ReadInterrupts>
 8001f34:	4603      	mov	r3, r0
 8001f36:	f003 0380 	and.w	r3, r3, #128	; 0x80
 8001f3a:	2b80      	cmp	r3, #128	; 0x80
 8001f3c:	d122      	bne.n	8001f84 <HAL_PCD_IRQHandler+0x7d6>
    {
      USBx->GINTMSK &= ~USB_OTG_GINTMSK_GONAKEFFM;
 8001f3e:	6a3b      	ldr	r3, [r7, #32]
 8001f40:	699b      	ldr	r3, [r3, #24]
 8001f42:	f023 0280 	bic.w	r2, r3, #128	; 0x80
 8001f46:	6a3b      	ldr	r3, [r7, #32]
 8001f48:	619a      	str	r2, [r3, #24]

      for (epnum = 1U; epnum < hpcd->Init.dev_endpoints; epnum++)
 8001f4a:	2301      	movs	r3, #1
 8001f4c:	627b      	str	r3, [r7, #36]	; 0x24
 8001f4e:	e014      	b.n	8001f7a <HAL_PCD_IRQHandler+0x7cc>
      {
        if (hpcd->OUT_ep[epnum].is_iso_incomplete == 1U)
 8001f50:	6879      	ldr	r1, [r7, #4]
 8001f52:	6a7a      	ldr	r2, [r7, #36]	; 0x24
 8001f54:	4613      	mov	r3, r2
 8001f56:	00db      	lsls	r3, r3, #3
 8001f58:	4413      	add	r3, r2
 8001f5a:	009b      	lsls	r3, r3, #2
 8001f5c:	440b      	add	r3, r1
 8001f5e:	f203 237f 	addw	r3, r3, #639	; 0x27f
 8001f62:	781b      	ldrb	r3, [r3, #0]
 8001f64:	2b01      	cmp	r3, #1
 8001f66:	d105      	bne.n	8001f74 <HAL_PCD_IRQHandler+0x7c6>
        {
          /* Abort current transaction and disable the EP */
          (void)HAL_PCD_EP_Abort(hpcd, (uint8_t)epnum);
 8001f68:	6a7b      	ldr	r3, [r7, #36]	; 0x24
 8001f6a:	b2db      	uxtb	r3, r3
 8001f6c:	4619      	mov	r1, r3
 8001f6e:	6878      	ldr	r0, [r7, #4]
 8001f70:	f000 fb0f 	bl	8002592 <HAL_PCD_EP_Abort>
      for (epnum = 1U; epnum < hpcd->Init.dev_endpoints; epnum++)
 8001f74:	6a7b      	ldr	r3, [r7, #36]	; 0x24
 8001f76:	3301      	adds	r3, #1
 8001f78:	627b      	str	r3, [r7, #36]	; 0x24
 8001f7a:	687b      	ldr	r3, [r7, #4]
 8001f7c:	685b      	ldr	r3, [r3, #4]
 8001f7e:	6a7a      	ldr	r2, [r7, #36]	; 0x24
 8001f80:	429a      	cmp	r2, r3
 8001f82:	d3e5      	bcc.n	8001f50 <HAL_PCD_IRQHandler+0x7a2>
        }
      }
    }

    /* Handle Incomplete ISO IN Interrupt */
    if (__HAL_PCD_GET_FLAG(hpcd, USB_OTG_GINTSTS_IISOIXFR))
 8001f84:	687b      	ldr	r3, [r7, #4]
 8001f86:	681b      	ldr	r3, [r3, #0]
 8001f88:	4618      	mov	r0, r3
 8001f8a:	f004 f8ab 	bl	80060e4 <USB_ReadInterrupts>
 8001f8e:	4603      	mov	r3, r0
 8001f90:	f403 1380 	and.w	r3, r3, #1048576	; 0x100000
 8001f94:	f5b3 1f80 	cmp.w	r3, #1048576	; 0x100000
 8001f98:	d13b      	bne.n	8002012 <HAL_PCD_IRQHandler+0x864>
    {
      for (epnum = 1U; epnum < hpcd->Init.dev_endpoints; epnum++)
 8001f9a:	2301      	movs	r3, #1
 8001f9c:	627b      	str	r3, [r7, #36]	; 0x24
 8001f9e:	e02b      	b.n	8001ff8 <HAL_PCD_IRQHandler+0x84a>
      {
        RegVal = USBx_INEP(epnum)->DIEPCTL;
 8001fa0:	6a7b      	ldr	r3, [r7, #36]	; 0x24
 8001fa2:	015a      	lsls	r2, r3, #5
 8001fa4:	69fb      	ldr	r3, [r7, #28]
 8001fa6:	4413      	add	r3, r2
 8001fa8:	f503 6310 	add.w	r3, r3, #2304	; 0x900
 8001fac:	681b      	ldr	r3, [r3, #0]
 8001fae:	61bb      	str	r3, [r7, #24]

        if ((hpcd->IN_ep[epnum].type == EP_TYPE_ISOC) &&
 8001fb0:	6879      	ldr	r1, [r7, #4]
 8001fb2:	6a7a      	ldr	r2, [r7, #36]	; 0x24
 8001fb4:	4613      	mov	r3, r2
 8001fb6:	00db      	lsls	r3, r3, #3
 8001fb8:	4413      	add	r3, r2
 8001fba:	009b      	lsls	r3, r3, #2
 8001fbc:	440b      	add	r3, r1
 8001fbe:	3340      	adds	r3, #64	; 0x40
 8001fc0:	781b      	ldrb	r3, [r3, #0]
 8001fc2:	2b01      	cmp	r3, #1
 8001fc4:	d115      	bne.n	8001ff2 <HAL_PCD_IRQHandler+0x844>
            ((RegVal & USB_OTG_DIEPCTL_EPENA) == USB_OTG_DIEPCTL_EPENA))
 8001fc6:	69bb      	ldr	r3, [r7, #24]
        if ((hpcd->IN_ep[epnum].type == EP_TYPE_ISOC) &&
 8001fc8:	2b00      	cmp	r3, #0
 8001fca:	da12      	bge.n	8001ff2 <HAL_PCD_IRQHandler+0x844>
        {
          hpcd->IN_ep[epnum].is_iso_incomplete = 1U;
 8001fcc:	6879      	ldr	r1, [r7, #4]
 8001fce:	6a7a      	ldr	r2, [r7, #36]	; 0x24
 8001fd0:	4613      	mov	r3, r2
 8001fd2:	00db      	lsls	r3, r3, #3
 8001fd4:	4413      	add	r3, r2
 8001fd6:	009b      	lsls	r3, r3, #2
 8001fd8:	440b      	add	r3, r1
 8001fda:	333f      	adds	r3, #63	; 0x3f
 8001fdc:	2201      	movs	r2, #1
 8001fde:	701a      	strb	r2, [r3, #0]

          /* Abort current transaction and disable the EP */
          (void)HAL_PCD_EP_Abort(hpcd, (uint8_t)(epnum | 0x80U));
 8001fe0:	6a7b      	ldr	r3, [r7, #36]	; 0x24
 8001fe2:	b2db      	uxtb	r3, r3
 8001fe4:	f063 037f 	orn	r3, r3, #127	; 0x7f
 8001fe8:	b2db      	uxtb	r3, r3
 8001fea:	4619      	mov	r1, r3
 8001fec:	6878      	ldr	r0, [r7, #4]
 8001fee:	f000 fad0 	bl	8002592 <HAL_PCD_EP_Abort>
      for (epnum = 1U; epnum < hpcd->Init.dev_endpoints; epnum++)
 8001ff2:	6a7b      	ldr	r3, [r7, #36]	; 0x24
 8001ff4:	3301      	adds	r3, #1
 8001ff6:	627b      	str	r3, [r7, #36]	; 0x24
 8001ff8:	687b      	ldr	r3, [r7, #4]
 8001ffa:	685b      	ldr	r3, [r3, #4]
 8001ffc:	6a7a      	ldr	r2, [r7, #36]	; 0x24
 8001ffe:	429a      	cmp	r2, r3
 8002000:	d3ce      	bcc.n	8001fa0 <HAL_PCD_IRQHandler+0x7f2>
        }
      }

      __HAL_PCD_CLEAR_FLAG(hpcd, USB_OTG_GINTSTS_IISOIXFR);
 8002002:	687b      	ldr	r3, [r7, #4]
 8002004:	681b      	ldr	r3, [r3, #0]
 8002006:	695a      	ldr	r2, [r3, #20]
 8002008:	687b      	ldr	r3, [r7, #4]
 800200a:	681b      	ldr	r3, [r3, #0]
 800200c:	f402 1280 	and.w	r2, r2, #1048576	; 0x100000
 8002010:	615a      	str	r2, [r3, #20]
    }

    /* Handle Incomplete ISO OUT Interrupt */
    if (__HAL_PCD_GET_FLAG(hpcd, USB_OTG_GINTSTS_PXFR_INCOMPISOOUT))
 8002012:	687b      	ldr	r3, [r7, #4]
 8002014:	681b      	ldr	r3, [r3, #0]
 8002016:	4618      	mov	r0, r3
 8002018:	f004 f864 	bl	80060e4 <USB_ReadInterrupts>
 800201c:	4603      	mov	r3, r0
 800201e:	f403 1300 	and.w	r3, r3, #2097152	; 0x200000
 8002022:	f5b3 1f00 	cmp.w	r3, #2097152	; 0x200000
 8002026:	d155      	bne.n	80020d4 <HAL_PCD_IRQHandler+0x926>
    {
      for (epnum = 1U; epnum < hpcd->Init.dev_endpoints; epnum++)
 8002028:	2301      	movs	r3, #1
 800202a:	627b      	str	r3, [r7, #36]	; 0x24
 800202c:	e045      	b.n	80020ba <HAL_PCD_IRQHandler+0x90c>
      {
        RegVal = USBx_OUTEP(epnum)->DOEPCTL;
 800202e:	6a7b      	ldr	r3, [r7, #36]	; 0x24
 8002030:	015a      	lsls	r2, r3, #5
 8002032:	69fb      	ldr	r3, [r7, #28]
 8002034:	4413      	add	r3, r2
 8002036:	f503 6330 	add.w	r3, r3, #2816	; 0xb00
 800203a:	681b      	ldr	r3, [r3, #0]
 800203c:	61bb      	str	r3, [r7, #24]

        if ((hpcd->OUT_ep[epnum].type == EP_TYPE_ISOC) &&
 800203e:	6879      	ldr	r1, [r7, #4]
 8002040:	6a7a      	ldr	r2, [r7, #36]	; 0x24
 8002042:	4613      	mov	r3, r2
 8002044:	00db      	lsls	r3, r3, #3
 8002046:	4413      	add	r3, r2
 8002048:	009b      	lsls	r3, r3, #2
 800204a:	440b      	add	r3, r1
 800204c:	f503 7320 	add.w	r3, r3, #640	; 0x280
 8002050:	781b      	ldrb	r3, [r3, #0]
 8002052:	2b01      	cmp	r3, #1
 8002054:	d12e      	bne.n	80020b4 <HAL_PCD_IRQHandler+0x906>
            ((RegVal & USB_OTG_DOEPCTL_EPENA) == USB_OTG_DOEPCTL_EPENA) &&
 8002056:	69bb      	ldr	r3, [r7, #24]
        if ((hpcd->OUT_ep[epnum].type == EP_TYPE_ISOC) &&
 8002058:	2b00      	cmp	r3, #0
 800205a:	da2b      	bge.n	80020b4 <HAL_PCD_IRQHandler+0x906>
            ((RegVal & (0x1U << 16)) == (hpcd->FrameNumber & 0x1U)))
 800205c:	69bb      	ldr	r3, [r7, #24]
 800205e:	f403 3280 	and.w	r2, r3, #65536	; 0x10000
 8002062:	687b      	ldr	r3, [r7, #4]
 8002064:	f8d3 34fc 	ldr.w	r3, [r3, #1276]	; 0x4fc
 8002068:	f003 0301 	and.w	r3, r3, #1
            ((RegVal & USB_OTG_DOEPCTL_EPENA) == USB_OTG_DOEPCTL_EPENA) &&
 800206c:	429a      	cmp	r2, r3
 800206e:	d121      	bne.n	80020b4 <HAL_PCD_IRQHandler+0x906>
        {
          hpcd->OUT_ep[epnum].is_iso_incomplete = 1U;
 8002070:	6879      	ldr	r1, [r7, #4]
 8002072:	6a7a      	ldr	r2, [r7, #36]	; 0x24
 8002074:	4613      	mov	r3, r2
 8002076:	00db      	lsls	r3, r3, #3
 8002078:	4413      	add	r3, r2
 800207a:	009b      	lsls	r3, r3, #2
 800207c:	440b      	add	r3, r1
 800207e:	f203 237f 	addw	r3, r3, #639	; 0x27f
 8002082:	2201      	movs	r2, #1
 8002084:	701a      	strb	r2, [r3, #0]

          USBx->GINTMSK |= USB_OTG_GINTMSK_GONAKEFFM;
 8002086:	6a3b      	ldr	r3, [r7, #32]
 8002088:	699b      	ldr	r3, [r3, #24]
 800208a:	f043 0280 	orr.w	r2, r3, #128	; 0x80
 800208e:	6a3b      	ldr	r3, [r7, #32]
 8002090:	619a      	str	r2, [r3, #24]

          if ((USBx->GINTSTS & USB_OTG_GINTSTS_BOUTNAKEFF) == 0U)
 8002092:	6a3b      	ldr	r3, [r7, #32]
 8002094:	695b      	ldr	r3, [r3, #20]
 8002096:	f003 0380 	and.w	r3, r3, #128	; 0x80
 800209a:	2b00      	cmp	r3, #0
 800209c:	d10a      	bne.n	80020b4 <HAL_PCD_IRQHandler+0x906>
          {
            USBx_DEVICE->DCTL |= USB_OTG_DCTL_SGONAK;
 800209e:	69fb      	ldr	r3, [r7, #28]
 80020a0:	f503 6300 	add.w	r3, r3, #2048	; 0x800
 80020a4:	685b      	ldr	r3, [r3, #4]
 80020a6:	69fa      	ldr	r2, [r7, #28]
 80020a8:	f502 6200 	add.w	r2, r2, #2048	; 0x800
 80020ac:	f443 7300 	orr.w	r3, r3, #512	; 0x200
 80020b0:	6053      	str	r3, [r2, #4]
            break;
 80020b2:	e007      	b.n	80020c4 <HAL_PCD_IRQHandler+0x916>
      for (epnum = 1U; epnum < hpcd->Init.dev_endpoints; epnum++)
 80020b4:	6a7b      	ldr	r3, [r7, #36]	; 0x24
 80020b6:	3301      	adds	r3, #1
 80020b8:	627b      	str	r3, [r7, #36]	; 0x24
 80020ba:	687b      	ldr	r3, [r7, #4]
 80020bc:	685b      	ldr	r3, [r3, #4]
 80020be:	6a7a      	ldr	r2, [r7, #36]	; 0x24
 80020c0:	429a      	cmp	r2, r3
 80020c2:	d3b4      	bcc.n	800202e <HAL_PCD_IRQHandler+0x880>
          }
        }
      }

      __HAL_PCD_CLEAR_FLAG(hpcd, USB_OTG_GINTSTS_PXFR_INCOMPISOOUT);
 80020c4:	687b      	ldr	r3, [r7, #4]
 80020c6:	681b      	ldr	r3, [r3, #0]
 80020c8:	695a      	ldr	r2, [r3, #20]
 80020ca:	687b      	ldr	r3, [r7, #4]
 80020cc:	681b      	ldr	r3, [r3, #0]
 80020ce:	f402 1200 	and.w	r2, r2, #2097152	; 0x200000
 80020d2:	615a      	str	r2, [r3, #20]
    }

    /* Handle Connection event Interrupt */
    if (__HAL_PCD_GET_FLAG(hpcd, USB_OTG_GINTSTS_SRQINT))
 80020d4:	687b      	ldr	r3, [r7, #4]
 80020d6:	681b      	ldr	r3, [r3, #0]
 80020d8:	4618      	mov	r0, r3
 80020da:	f004 f803 	bl	80060e4 <USB_ReadInterrupts>
 80020de:	4603      	mov	r3, r0
 80020e0:	f003 4380 	and.w	r3, r3, #1073741824	; 0x40000000
 80020e4:	f1b3 4f80 	cmp.w	r3, #1073741824	; 0x40000000
 80020e8:	d10a      	bne.n	8002100 <HAL_PCD_IRQHandler+0x952>
    {
#if (USE_HAL_PCD_REGISTER_CALLBACKS == 1U)
      hpcd->ConnectCallback(hpcd);
#else
      HAL_PCD_ConnectCallback(hpcd);
 80020ea:	6878      	ldr	r0, [r7, #4]
 80020ec:	f006 f94e 	bl	800838c <HAL_PCD_ConnectCallback>
#endif /* USE_HAL_PCD_REGISTER_CALLBACKS */

      __HAL_PCD_CLEAR_FLAG(hpcd, USB_OTG_GINTSTS_SRQINT);
 80020f0:	687b      	ldr	r3, [r7, #4]
 80020f2:	681b      	ldr	r3, [r3, #0]
 80020f4:	695a      	ldr	r2, [r3, #20]
 80020f6:	687b      	ldr	r3, [r7, #4]
 80020f8:	681b      	ldr	r3, [r3, #0]
 80020fa:	f002 4280 	and.w	r2, r2, #1073741824	; 0x40000000
 80020fe:	615a      	str	r2, [r3, #20]
    }

    /* Handle Disconnection event Interrupt */
    if (__HAL_PCD_GET_FLAG(hpcd, USB_OTG_GINTSTS_OTGINT))
 8002100:	687b      	ldr	r3, [r7, #4]
 8002102:	681b      	ldr	r3, [r3, #0]
 8002104:	4618      	mov	r0, r3
 8002106:	f003 ffed 	bl	80060e4 <USB_ReadInterrupts>
 800210a:	4603      	mov	r3, r0
 800210c:	f003 0304 	and.w	r3, r3, #4
 8002110:	2b04      	cmp	r3, #4
 8002112:	d115      	bne.n	8002140 <HAL_PCD_IRQHandler+0x992>
    {
      RegVal = hpcd->Instance->GOTGINT;
 8002114:	687b      	ldr	r3, [r7, #4]
 8002116:	681b      	ldr	r3, [r3, #0]
 8002118:	685b      	ldr	r3, [r3, #4]
 800211a:	61bb      	str	r3, [r7, #24]

      if ((RegVal & USB_OTG_GOTGINT_SEDET) == USB_OTG_GOTGINT_SEDET)
 800211c:	69bb      	ldr	r3, [r7, #24]
 800211e:	f003 0304 	and.w	r3, r3, #4
 8002122:	2b00      	cmp	r3, #0
 8002124:	d002      	beq.n	800212c <HAL_PCD_IRQHandler+0x97e>
      {
#if (USE_HAL_PCD_REGISTER_CALLBACKS == 1U)
        hpcd->DisconnectCallback(hpcd);
#else
        HAL_PCD_DisconnectCallback(hpcd);
 8002126:	6878      	ldr	r0, [r7, #4]
 8002128:	f006 f93e 	bl	80083a8 <HAL_PCD_DisconnectCallback>
#endif /* USE_HAL_PCD_REGISTER_CALLBACKS */
      }
      hpcd->Instance->GOTGINT |= RegVal;
 800212c:	687b      	ldr	r3, [r7, #4]
 800212e:	681b      	ldr	r3, [r3, #0]
 8002130:	6859      	ldr	r1, [r3, #4]
 8002132:	687b      	ldr	r3, [r7, #4]
 8002134:	681b      	ldr	r3, [r3, #0]
 8002136:	69ba      	ldr	r2, [r7, #24]
 8002138:	430a      	orrs	r2, r1
 800213a:	605a      	str	r2, [r3, #4]
 800213c:	e000      	b.n	8002140 <HAL_PCD_IRQHandler+0x992>
      return;
 800213e:	bf00      	nop
    }
  }
}
 8002140:	3734      	adds	r7, #52	; 0x34
 8002142:	46bd      	mov	sp, r7
 8002144:	bd90      	pop	{r4, r7, pc}

08002146 <HAL_PCD_SetAddress>:
  * @param  hpcd PCD handle
  * @param  address new device address
  * @retval HAL status
  */
HAL_StatusTypeDef HAL_PCD_SetAddress(PCD_HandleTypeDef *hpcd, uint8_t address)
{
 8002146:	b580      	push	{r7, lr}
 8002148:	b082      	sub	sp, #8
 800214a:	af00      	add	r7, sp, #0
 800214c:	6078      	str	r0, [r7, #4]
 800214e:	460b      	mov	r3, r1
 8002150:	70fb      	strb	r3, [r7, #3]
  __HAL_LOCK(hpcd);
 8002152:	687b      	ldr	r3, [r7, #4]
 8002154:	f893 34bc 	ldrb.w	r3, [r3, #1212]	; 0x4bc
 8002158:	2b01      	cmp	r3, #1
 800215a:	d101      	bne.n	8002160 <HAL_PCD_SetAddress+0x1a>
 800215c:	2302      	movs	r3, #2
 800215e:	e013      	b.n	8002188 <HAL_PCD_SetAddress+0x42>
 8002160:	687b      	ldr	r3, [r7, #4]
 8002162:	2201      	movs	r2, #1
 8002164:	f883 24bc 	strb.w	r2, [r3, #1212]	; 0x4bc
  hpcd->USB_Address = address;
 8002168:	687b      	ldr	r3, [r7, #4]
 800216a:	78fa      	ldrb	r2, [r7, #3]
 800216c:	f883 2038 	strb.w	r2, [r3, #56]	; 0x38
  (void)USB_SetDevAddress(hpcd->Instance, address);
 8002170:	687b      	ldr	r3, [r7, #4]
 8002172:	681b      	ldr	r3, [r3, #0]
 8002174:	78fa      	ldrb	r2, [r7, #3]
 8002176:	4611      	mov	r1, r2
 8002178:	4618      	mov	r0, r3
 800217a:	f003 ff4b 	bl	8006014 <USB_SetDevAddress>
  __HAL_UNLOCK(hpcd);
 800217e:	687b      	ldr	r3, [r7, #4]
 8002180:	2200      	movs	r2, #0
 8002182:	f883 24bc 	strb.w	r2, [r3, #1212]	; 0x4bc

  return HAL_OK;
 8002186:	2300      	movs	r3, #0
}
 8002188:	4618      	mov	r0, r3
 800218a:	3708      	adds	r7, #8
 800218c:	46bd      	mov	sp, r7
 800218e:	bd80      	pop	{r7, pc}

08002190 <HAL_PCD_EP_Open>:
  * @param  ep_type endpoint type
  * @retval HAL status
  */
HAL_StatusTypeDef HAL_PCD_EP_Open(PCD_HandleTypeDef *hpcd, uint8_t ep_addr,
                                  uint16_t ep_mps, uint8_t ep_type)
{
 8002190:	b580      	push	{r7, lr}
 8002192:	b084      	sub	sp, #16
 8002194:	af00      	add	r7, sp, #0
 8002196:	6078      	str	r0, [r7, #4]
 8002198:	4608      	mov	r0, r1
 800219a:	4611      	mov	r1, r2
 800219c:	461a      	mov	r2, r3
 800219e:	4603      	mov	r3, r0
 80021a0:	70fb      	strb	r3, [r7, #3]
 80021a2:	460b      	mov	r3, r1
 80021a4:	803b      	strh	r3, [r7, #0]
 80021a6:	4613      	mov	r3, r2
 80021a8:	70bb      	strb	r3, [r7, #2]
  HAL_StatusTypeDef  ret = HAL_OK;
 80021aa:	2300      	movs	r3, #0
 80021ac:	72fb      	strb	r3, [r7, #11]
  PCD_EPTypeDef *ep;

  if ((ep_addr & 0x80U) == 0x80U)
 80021ae:	f997 3003 	ldrsb.w	r3, [r7, #3]
 80021b2:	2b00      	cmp	r3, #0
 80021b4:	da0f      	bge.n	80021d6 <HAL_PCD_EP_Open+0x46>
  {
    ep = &hpcd->IN_ep[ep_addr & EP_ADDR_MSK];
 80021b6:	78fb      	ldrb	r3, [r7, #3]
 80021b8:	f003 020f 	and.w	r2, r3, #15
 80021bc:	4613      	mov	r3, r2
 80021be:	00db      	lsls	r3, r3, #3
 80021c0:	4413      	add	r3, r2
 80021c2:	009b      	lsls	r3, r3, #2
 80021c4:	3338      	adds	r3, #56	; 0x38
 80021c6:	687a      	ldr	r2, [r7, #4]
 80021c8:	4413      	add	r3, r2
 80021ca:	3304      	adds	r3, #4
 80021cc:	60fb      	str	r3, [r7, #12]
    ep->is_in = 1U;
 80021ce:	68fb      	ldr	r3, [r7, #12]
 80021d0:	2201      	movs	r2, #1
 80021d2:	705a      	strb	r2, [r3, #1]
 80021d4:	e00f      	b.n	80021f6 <HAL_PCD_EP_Open+0x66>
  }
  else
  {
    ep = &hpcd->OUT_ep[ep_addr & EP_ADDR_MSK];
 80021d6:	78fb      	ldrb	r3, [r7, #3]
 80021d8:	f003 020f 	and.w	r2, r3, #15
 80021dc:	4613      	mov	r3, r2
 80021de:	00db      	lsls	r3, r3, #3
 80021e0:	4413      	add	r3, r2
 80021e2:	009b      	lsls	r3, r3, #2
 80021e4:	f503 731e 	add.w	r3, r3, #632	; 0x278
 80021e8:	687a      	ldr	r2, [r7, #4]
 80021ea:	4413      	add	r3, r2
 80021ec:	3304      	adds	r3, #4
 80021ee:	60fb      	str	r3, [r7, #12]
    ep->is_in = 0U;
 80021f0:	68fb      	ldr	r3, [r7, #12]
 80021f2:	2200      	movs	r2, #0
 80021f4:	705a      	strb	r2, [r3, #1]
  }

  ep->num = ep_addr & EP_ADDR_MSK;
 80021f6:	78fb      	ldrb	r3, [r7, #3]
 80021f8:	f003 030f 	and.w	r3, r3, #15
 80021fc:	b2da      	uxtb	r2, r3
 80021fe:	68fb      	ldr	r3, [r7, #12]
 8002200:	701a      	strb	r2, [r3, #0]
  ep->maxpacket = ep_mps;
 8002202:	883a      	ldrh	r2, [r7, #0]
 8002204:	68fb      	ldr	r3, [r7, #12]
 8002206:	60da      	str	r2, [r3, #12]
  ep->type = ep_type;
 8002208:	68fb      	ldr	r3, [r7, #12]
 800220a:	78ba      	ldrb	r2, [r7, #2]
 800220c:	711a      	strb	r2, [r3, #4]

  if (ep->is_in != 0U)
 800220e:	68fb      	ldr	r3, [r7, #12]
 8002210:	785b      	ldrb	r3, [r3, #1]
 8002212:	2b00      	cmp	r3, #0
 8002214:	d004      	beq.n	8002220 <HAL_PCD_EP_Open+0x90>
  {
    /* Assign a Tx FIFO */
    ep->tx_fifo_num = ep->num;
 8002216:	68fb      	ldr	r3, [r7, #12]
 8002218:	781b      	ldrb	r3, [r3, #0]
 800221a:	b29a      	uxth	r2, r3
 800221c:	68fb      	ldr	r3, [r7, #12]
 800221e:	811a      	strh	r2, [r3, #8]
  }
  /* Set initial data PID. */
  if (ep_type == EP_TYPE_BULK)
 8002220:	78bb      	ldrb	r3, [r7, #2]
 8002222:	2b02      	cmp	r3, #2
 8002224:	d102      	bne.n	800222c <HAL_PCD_EP_Open+0x9c>
  {
    ep->data_pid_start = 0U;
 8002226:	68fb      	ldr	r3, [r7, #12]
 8002228:	2200      	movs	r2, #0
 800222a:	715a      	strb	r2, [r3, #5]
  }

  __HAL_LOCK(hpcd);
 800222c:	687b      	ldr	r3, [r7, #4]
 800222e:	f893 34bc 	ldrb.w	r3, [r3, #1212]	; 0x4bc
 8002232:	2b01      	cmp	r3, #1
 8002234:	d101      	bne.n	800223a <HAL_PCD_EP_Open+0xaa>
 8002236:	2302      	movs	r3, #2
 8002238:	e00e      	b.n	8002258 <HAL_PCD_EP_Open+0xc8>
 800223a:	687b      	ldr	r3, [r7, #4]
 800223c:	2201      	movs	r2, #1
 800223e:	f883 24bc 	strb.w	r2, [r3, #1212]	; 0x4bc
  (void)USB_ActivateEndpoint(hpcd->Instance, ep);
 8002242:	687b      	ldr	r3, [r7, #4]
 8002244:	681b      	ldr	r3, [r3, #0]
 8002246:	68f9      	ldr	r1, [r7, #12]
 8002248:	4618      	mov	r0, r3
 800224a:	f002 ffbf 	bl	80051cc <USB_ActivateEndpoint>
  __HAL_UNLOCK(hpcd);
 800224e:	687b      	ldr	r3, [r7, #4]
 8002250:	2200      	movs	r2, #0
 8002252:	f883 24bc 	strb.w	r2, [r3, #1212]	; 0x4bc

  return ret;
 8002256:	7afb      	ldrb	r3, [r7, #11]
}
 8002258:	4618      	mov	r0, r3
 800225a:	3710      	adds	r7, #16
 800225c:	46bd      	mov	sp, r7
 800225e:	bd80      	pop	{r7, pc}

08002260 <HAL_PCD_EP_Close>:
  * @param  hpcd PCD handle
  * @param  ep_addr endpoint address
  * @retval HAL status
  */
HAL_StatusTypeDef HAL_PCD_EP_Close(PCD_HandleTypeDef *hpcd, uint8_t ep_addr)
{
 8002260:	b580      	push	{r7, lr}
 8002262:	b084      	sub	sp, #16
 8002264:	af00      	add	r7, sp, #0
 8002266:	6078      	str	r0, [r7, #4]
 8002268:	460b      	mov	r3, r1
 800226a:	70fb      	strb	r3, [r7, #3]
  PCD_EPTypeDef *ep;

  if ((ep_addr & 0x80U) == 0x80U)
 800226c:	f997 3003 	ldrsb.w	r3, [r7, #3]
 8002270:	2b00      	cmp	r3, #0
 8002272:	da0f      	bge.n	8002294 <HAL_PCD_EP_Close+0x34>
  {
    ep = &hpcd->IN_ep[ep_addr & EP_ADDR_MSK];
 8002274:	78fb      	ldrb	r3, [r7, #3]
 8002276:	f003 020f 	and.w	r2, r3, #15
 800227a:	4613      	mov	r3, r2
 800227c:	00db      	lsls	r3, r3, #3
 800227e:	4413      	add	r3, r2
 8002280:	009b      	lsls	r3, r3, #2
 8002282:	3338      	adds	r3, #56	; 0x38
 8002284:	687a      	ldr	r2, [r7, #4]
 8002286:	4413      	add	r3, r2
 8002288:	3304      	adds	r3, #4
 800228a:	60fb      	str	r3, [r7, #12]
    ep->is_in = 1U;
 800228c:	68fb      	ldr	r3, [r7, #12]
 800228e:	2201      	movs	r2, #1
 8002290:	705a      	strb	r2, [r3, #1]
 8002292:	e00f      	b.n	80022b4 <HAL_PCD_EP_Close+0x54>
  }
  else
  {
    ep = &hpcd->OUT_ep[ep_addr & EP_ADDR_MSK];
 8002294:	78fb      	ldrb	r3, [r7, #3]
 8002296:	f003 020f 	and.w	r2, r3, #15
 800229a:	4613      	mov	r3, r2
 800229c:	00db      	lsls	r3, r3, #3
 800229e:	4413      	add	r3, r2
 80022a0:	009b      	lsls	r3, r3, #2
 80022a2:	f503 731e 	add.w	r3, r3, #632	; 0x278
 80022a6:	687a      	ldr	r2, [r7, #4]
 80022a8:	4413      	add	r3, r2
 80022aa:	3304      	adds	r3, #4
 80022ac:	60fb      	str	r3, [r7, #12]
    ep->is_in = 0U;
 80022ae:	68fb      	ldr	r3, [r7, #12]
 80022b0:	2200      	movs	r2, #0
 80022b2:	705a      	strb	r2, [r3, #1]
  }
  ep->num   = ep_addr & EP_ADDR_MSK;
 80022b4:	78fb      	ldrb	r3, [r7, #3]
 80022b6:	f003 030f 	and.w	r3, r3, #15
 80022ba:	b2da      	uxtb	r2, r3
 80022bc:	68fb      	ldr	r3, [r7, #12]
 80022be:	701a      	strb	r2, [r3, #0]

  __HAL_LOCK(hpcd);
 80022c0:	687b      	ldr	r3, [r7, #4]
 80022c2:	f893 34bc 	ldrb.w	r3, [r3, #1212]	; 0x4bc
 80022c6:	2b01      	cmp	r3, #1
 80022c8:	d101      	bne.n	80022ce <HAL_PCD_EP_Close+0x6e>
 80022ca:	2302      	movs	r3, #2
 80022cc:	e00e      	b.n	80022ec <HAL_PCD_EP_Close+0x8c>
 80022ce:	687b      	ldr	r3, [r7, #4]
 80022d0:	2201      	movs	r2, #1
 80022d2:	f883 24bc 	strb.w	r2, [r3, #1212]	; 0x4bc
